{
  "contractName": "ERC721",
  "abi": [
    {
      "inputs": [],
      "stateMutability": "nonpayable",
      "type": "constructor"
    },
    {
      "anonymous": false,
      "inputs": [
        {
          "indexed": true,
          "internalType": "address",
          "name": "_owner",
          "type": "address"
        },
        {
          "indexed": true,
          "internalType": "address",
          "name": "_approved",
          "type": "address"
        },
        {
          "indexed": true,
          "internalType": "uint256",
          "name": "_tokenId",
          "type": "uint256"
        }
      ],
      "name": "Approval",
      "type": "event"
    },
    {
      "anonymous": false,
      "inputs": [
        {
          "indexed": true,
          "internalType": "address",
          "name": "_owner",
          "type": "address"
        },
        {
          "indexed": true,
          "internalType": "address",
          "name": "_operator",
          "type": "address"
        },
        {
          "indexed": false,
          "internalType": "bool",
          "name": "_approved",
          "type": "bool"
        }
      ],
      "name": "ApprovalForAll",
      "type": "event"
    },
    {
      "anonymous": false,
      "inputs": [
        {
          "indexed": true,
          "internalType": "address",
          "name": "_from",
          "type": "address"
        },
        {
          "indexed": true,
          "internalType": "address",
          "name": "_to",
          "type": "address"
        },
        {
          "indexed": true,
          "internalType": "uint256",
          "name": "_tokenId",
          "type": "uint256"
        }
      ],
      "name": "Transfer",
      "type": "event"
    },
    {
      "inputs": [
        {
          "internalType": "bytes4",
          "name": "interfaceID",
          "type": "bytes4"
        }
      ],
      "name": "_registerInterface",
      "outputs": [],
      "stateMutability": "nonpayable",
      "type": "function"
    },
    {
      "inputs": [
        {
          "internalType": "bytes4",
          "name": "interfaceID",
          "type": "bytes4"
        }
      ],
      "name": "supportsInterface",
      "outputs": [
        {
          "internalType": "bool",
          "name": "",
          "type": "bool"
        }
      ],
      "stateMutability": "view",
      "type": "function"
    },
    {
      "inputs": [
        {
          "internalType": "address",
          "name": "_owner",
          "type": "address"
        }
      ],
      "name": "balanceOf",
      "outputs": [
        {
          "internalType": "uint256",
          "name": "",
          "type": "uint256"
        }
      ],
      "stateMutability": "view",
      "type": "function"
    },
    {
      "inputs": [
        {
          "internalType": "uint256",
          "name": "_tokenId",
          "type": "uint256"
        }
      ],
      "name": "ownerOf",
      "outputs": [
        {
          "internalType": "address",
          "name": "",
          "type": "address"
        }
      ],
      "stateMutability": "view",
      "type": "function"
    },
    {
      "inputs": [
        {
          "internalType": "address",
          "name": "from",
          "type": "address"
        },
        {
          "internalType": "address",
          "name": "to",
          "type": "address"
        },
        {
          "internalType": "uint256",
          "name": "tokenId",
          "type": "uint256"
        }
      ],
      "name": "transferFrom",
      "outputs": [],
      "stateMutability": "nonpayable",
      "type": "function"
    },
    {
      "inputs": [
        {
          "internalType": "address",
          "name": "operator",
          "type": "address"
        },
        {
          "internalType": "bool",
          "name": "approved",
          "type": "bool"
        }
      ],
      "name": "setApprovalForAll",
      "outputs": [],
      "stateMutability": "nonpayable",
      "type": "function"
    },
    {
      "inputs": [
        {
          "internalType": "address",
          "name": "to",
          "type": "address"
        },
        {
          "internalType": "uint256",
          "name": "tokenId",
          "type": "uint256"
        }
      ],
      "name": "approve",
      "outputs": [],
      "stateMutability": "payable",
      "type": "function"
    },
    {
      "inputs": [
        {
          "internalType": "uint256",
          "name": "tokenId",
          "type": "uint256"
        }
      ],
      "name": "getApproved",
      "outputs": [
        {
          "internalType": "address",
          "name": "",
          "type": "address"
        }
      ],
      "stateMutability": "view",
      "type": "function"
    },
    {
      "inputs": [
        {
          "internalType": "address",
          "name": "owner",
          "type": "address"
        },
        {
          "internalType": "address",
          "name": "operator",
          "type": "address"
        }
      ],
      "name": "isApprovedForAll",
      "outputs": [
        {
          "internalType": "bool",
          "name": "",
          "type": "bool"
        }
      ],
      "stateMutability": "view",
      "type": "function"
    }
  ],
  "bytecode": "0x60806040523480156200001157600080fd5b50620000437f01ffc9a7a5cef8baa21ed3c5c0d7e23accb804b619e9333b597f47a0d84076e26200020060201b60201c565b620001fa7fe0c9b09697cad3aa3f2bcb7fdd781becaefa478990b24e83d3bfdb65623d77537bffffffffffffffffffffffffffffffffffffffffffffffffffffffff19167f5af227006b8981efabb10af200ab71f08976cbce54b4c59ae5c97811d19a398c187bffffffffffffffffffffffffffffffffffffffffffffffffffffffff19167f90dba0bef8387ab29f95a1abead857c8ccc338f1038f6fa159fa78fd18aff9f7187bffffffffffffffffffffffffffffffffffffffffffffffffffffffff19167f8c51fd5fcf1f456ec4eb0f32f68d83471264fe082fac12bcbfd2fa4be9eed6c7187bffffffffffffffffffffffffffffffffffffffffffffffffffffffff19167f3a6eb71757dfc6e784c1459d26270140c2c147d95ca985c80026fc5301c3eca1187bffffffffffffffffffffffffffffffffffffffffffffffffffffffff19167f8a7e378434598edc36d108689a030cbc9d7d465de4f74c71bae1028eed6a881b187bffffffffffffffffffffffffffffffffffffffffffffffffffffffff19167f01ffc9a7a5cef8baa21ed3c5c0d7e23accb804b619e9333b597f47a0d84076e2186200020060201b60201c565b62000381565b63ffffffff60e01b817bffffffffffffffffffffffffffffffffffffffffffffffffffffffff191614156200026c576040517f08c379a000000000000000000000000000000000000000000000000000000000815260040162000263906200035f565b60405180910390fd5b6001600080837bffffffffffffffffffffffffffffffffffffffffffffffffffffffff19167bffffffffffffffffffffffffffffffffffffffffffffffffffffffff1916815260200190815260200160002060006101000a81548160ff02191690831515021790555050565b600082825260208201905092915050565b7f4572726f72202d204552433136353a20496e76616c696420696e74657266616360008201527f6500000000000000000000000000000000000000000000000000000000000000602082015250565b600062000347602183620002d8565b91506200035482620002e9565b604082019050919050565b600060208201905081810360008301526200037a8162000338565b9050919050565b6116b280620003916000396000f3fe6080604052600436106100865760003560e01c806323b872dd1161005957806323b872dd1461014a5780636352211e1461017357806370a08231146101b0578063a22cb465146101ed578063e985e9c51461021657610086565b806301ffc9a71461008b578063068417d9146100c8578063081812fc146100f1578063095ea7b31461012e575b600080fd5b34801561009757600080fd5b506100b260048036038101906100ad9190610d66565b610253565b6040516100bf9190610dae565b60405180910390f35b3480156100d457600080fd5b506100ef60048036038101906100ea9190610d66565b6102ba565b005b3480156100fd57600080fd5b5061011860048036038101906101139190610dff565b61038f565b6040516101259190610e6d565b60405180910390f35b61014860048036038101906101439190610eb4565b610414565b005b34801561015657600080fd5b50610171600480360381019061016c9190610ef4565b6105b0565b005b34801561017f57600080fd5b5061019a60048036038101906101959190610dff565b610609565b6040516101a79190610e6d565b60405180910390f35b3480156101bc57600080fd5b506101d760048036038101906101d29190610f47565b6106bb565b6040516101e49190610f83565b60405180910390f35b3480156101f957600080fd5b50610214600480360381019061020f9190610fca565b610773565b005b34801561022257600080fd5b5061023d6004803603810190610238919061100a565b6108df565b60405161024a9190610dae565b60405180910390f35b6000806000837bffffffffffffffffffffffffffffffffffffffffffffffffffffffff19167bffffffffffffffffffffffffffffffffffffffffffffffffffffffff1916815260200190815260200160002060009054906101000a900460ff169050919050565b63ffffffff60e01b817bffffffffffffffffffffffffffffffffffffffffffffffffffffffff19161415610323576040517f08c379a000000000000000000000000000000000000000000000000000000000815260040161031a906110cd565b60405180910390fd5b6001600080837bffffffffffffffffffffffffffffffffffffffffffffffffffffffff19167bffffffffffffffffffffffffffffffffffffffffffffffffffffffff1916815260200190815260200160002060006101000a81548160ff02191690831515021790555050565b600061039a82610973565b6103d9576040517f08c379a00000000000000000000000000000000000000000000000000000000081526004016103d09061115f565b60405180910390fd5b6003600083815260200190815260200160002060009054906101000a900473ffffffffffffffffffffffffffffffffffffffff169050919050565b600061041f82610609565b90508073ffffffffffffffffffffffffffffffffffffffff168373ffffffffffffffffffffffffffffffffffffffff161415610490576040517f08c379a0000000000000000000000000000000000000000000000000000000008152600401610487906111f1565b60405180910390fd5b8073ffffffffffffffffffffffffffffffffffffffff163373ffffffffffffffffffffffffffffffffffffffff16146104fe576040517f08c379a00000000000000000000000000000000000000000000000000000000081526004016104f590611283565b60405180910390fd5b826003600084815260200190815260200160002060006101000a81548173ffffffffffffffffffffffffffffffffffffffff021916908373ffffffffffffffffffffffffffffffffffffffff160217905550818373ffffffffffffffffffffffffffffffffffffffff168273ffffffffffffffffffffffffffffffffffffffff167f8c5be1e5ebec7d5bd14f71427d1e84f3dd0314c0f7b2291e5b200ac8c7c3b92560405160405180910390a4505050565b6105ba33826109e5565b6105f9576040517f08c379a00000000000000000000000000000000000000000000000000000000081526004016105f090611315565b60405180910390fd5b610604838383610ac3565b505050565b6000806001600084815260200190815260200160002060009054906101000a900473ffffffffffffffffffffffffffffffffffffffff169050600073ffffffffffffffffffffffffffffffffffffffff168173ffffffffffffffffffffffffffffffffffffffff1614156106b2576040517f08c379a00000000000000000000000000000000000000000000000000000000081526004016106a9906113a7565b60405180910390fd5b80915050919050565b60008073ffffffffffffffffffffffffffffffffffffffff168273ffffffffffffffffffffffffffffffffffffffff16141561072c576040517f08c379a0000000000000000000000000000000000000000000000000000000008152600401610723906113a7565b60405180910390fd5b600260008373ffffffffffffffffffffffffffffffffffffffff1673ffffffffffffffffffffffffffffffffffffffff168152602001908152602001600020549050919050565b3373ffffffffffffffffffffffffffffffffffffffff168273ffffffffffffffffffffffffffffffffffffffff1614156107e2576040517f08c379a00000000000000000000000000000000000000000000000000000000081526004016107d990611413565b60405180910390fd5b80600460003373ffffffffffffffffffffffffffffffffffffffff1673ffffffffffffffffffffffffffffffffffffffff16815260200190815260200160002060008473ffffffffffffffffffffffffffffffffffffffff1673ffffffffffffffffffffffffffffffffffffffff16815260200190815260200160002060006101000a81548160ff0219169083151502179055508173ffffffffffffffffffffffffffffffffffffffff163373ffffffffffffffffffffffffffffffffffffffff167f17307eab39ab6107e8899845ad3d59bd9653f200f220920489ca2b5937696c31836040516108d39190610dae565b60405180910390a35050565b6000600460008473ffffffffffffffffffffffffffffffffffffffff1673ffffffffffffffffffffffffffffffffffffffff16815260200190815260200160002060008373ffffffffffffffffffffffffffffffffffffffff1673ffffffffffffffffffffffffffffffffffffffff16815260200190815260200160002060009054906101000a900460ff16905092915050565b6000806001600084815260200190815260200160002060009054906101000a900473ffffffffffffffffffffffffffffffffffffffff169050600073ffffffffffffffffffffffffffffffffffffffff168173ffffffffffffffffffffffffffffffffffffffff161415915050919050565b60006109f082610973565b610a2f576040517f08c379a0000000000000000000000000000000000000000000000000000000008152600401610a269061147f565b60405180910390fd5b6000610a3a83610609565b90508073ffffffffffffffffffffffffffffffffffffffff168473ffffffffffffffffffffffffffffffffffffffff161480610aa95750610a7a8361038f565b73ffffffffffffffffffffffffffffffffffffffff168473ffffffffffffffffffffffffffffffffffffffff16145b80610aba5750610ab981856108df565b5b91505092915050565b600073ffffffffffffffffffffffffffffffffffffffff168273ffffffffffffffffffffffffffffffffffffffff161415610b33576040517f08c379a0000000000000000000000000000000000000000000000000000000008152600401610b2a90611511565b60405180910390fd5b8273ffffffffffffffffffffffffffffffffffffffff16610b5382610609565b73ffffffffffffffffffffffffffffffffffffffff1614610ba9576040517f08c379a0000000000000000000000000000000000000000000000000000000008152600401610ba0906115a3565b60405180910390fd5b6001600260008573ffffffffffffffffffffffffffffffffffffffff1673ffffffffffffffffffffffffffffffffffffffff1681526020019081526020016000206000828254610bf991906115f2565b925050819055506001600260008473ffffffffffffffffffffffffffffffffffffffff1673ffffffffffffffffffffffffffffffffffffffff1681526020019081526020016000206000828254610c509190611626565b92505081905550816001600083815260200190815260200160002060006101000a81548173ffffffffffffffffffffffffffffffffffffffff021916908373ffffffffffffffffffffffffffffffffffffffff160217905550808273ffffffffffffffffffffffffffffffffffffffff168473ffffffffffffffffffffffffffffffffffffffff167fddf252ad1be2c89b69c2b068fc378daa952ba7f163c4a11628f55a4df523b3ef60405160405180910390a4505050565b600080fd5b60007fffffffff0000000000000000000000000000000000000000000000000000000082169050919050565b610d4381610d0e565b8114610d4e57600080fd5b50565b600081359050610d6081610d3a565b92915050565b600060208284031215610d7c57610d7b610d09565b5b6000610d8a84828501610d51565b91505092915050565b60008115159050919050565b610da881610d93565b82525050565b6000602082019050610dc36000830184610d9f565b92915050565b6000819050919050565b610ddc81610dc9565b8114610de757600080fd5b50565b600081359050610df981610dd3565b92915050565b600060208284031215610e1557610e14610d09565b5b6000610e2384828501610dea565b91505092915050565b600073ffffffffffffffffffffffffffffffffffffffff82169050919050565b6000610e5782610e2c565b9050919050565b610e6781610e4c565b82525050565b6000602082019050610e826000830184610e5e565b92915050565b610e9181610e4c565b8114610e9c57600080fd5b50565b600081359050610eae81610e88565b92915050565b60008060408385031215610ecb57610eca610d09565b5b6000610ed985828601610e9f565b9250506020610eea85828601610dea565b9150509250929050565b600080600060608486031215610f0d57610f0c610d09565b5b6000610f1b86828701610e9f565b9350506020610f2c86828701610e9f565b9250506040610f3d86828701610dea565b9150509250925092565b600060208284031215610f5d57610f5c610d09565b5b6000610f6b84828501610e9f565b91505092915050565b610f7d81610dc9565b82525050565b6000602082019050610f986000830184610f74565b92915050565b610fa781610d93565b8114610fb257600080fd5b50565b600081359050610fc481610f9e565b92915050565b60008060408385031215610fe157610fe0610d09565b5b6000610fef85828601610e9f565b925050602061100085828601610fb5565b9150509250929050565b6000806040838503121561102157611020610d09565b5b600061102f85828601610e9f565b925050602061104085828601610e9f565b9150509250929050565b600082825260208201905092915050565b7f4572726f72202d204552433136353a20496e76616c696420696e74657266616360008201527f6500000000000000000000000000000000000000000000000000000000000000602082015250565b60006110b760218361104a565b91506110c28261105b565b604082019050919050565b600060208201905081810360008301526110e6816110aa565b9050919050565b7f4552433732313a20617070726f76656420717565727920666f72206e6f6e657860008201527f697374656e7420746f6b656e0000000000000000000000000000000000000000602082015250565b6000611149602c8361104a565b9150611154826110ed565b604082019050919050565b600060208201905081810360008301526111788161113c565b9050919050565b7f4572726f72202d20617070726f76616c20746f2063757272656e74206f776e6560008201527f7200000000000000000000000000000000000000000000000000000000000000602082015250565b60006111db60218361104a565b91506111e68261117f565b604082019050919050565b6000602082019050818103600083015261120a816111ce565b9050919050565b7f4572726f72202d2043757272656e742063616c6c6572206973206e6f7420746860008201527f65206f776e6572206f662074686520746f6b656e000000000000000000000000602082015250565b600061126d60348361104a565b915061127882611211565b604082019050919050565b6000602082019050818103600083015261129c81611260565b9050919050565b7f4572726f72202d2049742773206e6f7420617070726f766564206f72206f776e60008201527f6572000000000000000000000000000000000000000000000000000000000000602082015250565b60006112ff60228361104a565b915061130a826112a3565b604082019050919050565b6000602082019050818103600083015261132e816112f2565b9050919050565b7f4572726f72202d204f776e657220717565727920666f72206e6f6e2d6578697360008201527f74656e7420746f6b656e00000000000000000000000000000000000000000000602082015250565b6000611391602a8361104a565b915061139c82611335565b604082019050919050565b600060208201905081810360008301526113c081611384565b9050919050565b7f4552433732313a20617070726f766520746f2063616c6c657200000000000000600082015250565b60006113fd60198361104a565b9150611408826113c7565b602082019050919050565b6000602082019050818103600083015261142c816113f0565b9050919050565b7f546f6b656e20646f6573206e6f74206578697374000000000000000000000000600082015250565b600061146960148361104a565b915061147482611433565b602082019050919050565b600060208201905081810360008301526114988161145c565b9050919050565b7f4572726f72202d20455243373231207472616e7366657220746f20746865207a60008201527f65726f2061646472657373200000000000000000000000000000000000000000602082015250565b60006114fb602c8361104a565b91506115068261149f565b604082019050919050565b6000602082019050818103600083015261152a816114ee565b9050919050565b7f4572726f72202d20547279696e6720746f207472616e73666572206120746f6b60008201527f656e20746865206164647265737320646f6573206e6f74206f776e0000000000602082015250565b600061158d603b8361104a565b915061159882611531565b604082019050919050565b600060208201905081810360008301526115bc81611580565b9050919050565b7f4e487b7100000000000000000000000000000000000000000000000000000000600052601160045260246000fd5b60006115fd82610dc9565b915061160883610dc9565b92508282101561161b5761161a6115c3565b5b828203905092915050565b600061163182610dc9565b915061163c83610dc9565b9250827fffffffffffffffffffffffffffffffffffffffffffffffffffffffffffffffff03821115611671576116706115c3565b5b82820190509291505056fea2646970667358221220e74275c601ce78c72b4344635d4f9980811315ab9e977402489d5499e78e469864736f6c634300080a0033",
  "immutableReferences": {},
  "source": "// SPDX-License-Identifier: MIT\npragma solidity ^0.8.0;\n\n// imports (brigns IREC165 interface as well)\nimport './ERC165.sol';\nimport './interfaces/IERC721.sol';\n\n// Here are the ERC721 standards ONLY!\ncontract ERC721 is ERC165, IERC721 {\n\n    // mapping for token id to the owner\n    mapping(uint => address) private _tokenOwner;\n\n    // mapping from owner to number of owned tokens\n    mapping(address => uint) private _ownedTokensCount;\n\n    // mapping from token id to approval addresses\n    mapping(uint => address) private _tokenApprovals;\n\n    // Mapping from owner to operator approvals\n    mapping(address => mapping(address => bool)) private _operatorApprovals;\n\n    constructor() {\n        _registerInterface(bytes4(keccak256('supportsInterface(bytes4)')^\n                            bytes4(keccak256('balanceOf(bytes4)')^\n                            bytes4(keccak256('ownerOf(bytes4)')^\n                            bytes4(keccak256('approve(bytes4)')^\n                            bytes4(keccak256('setApprovalForAll(bytes4)')^\n                            bytes4(keccak256('getApproved(bytes4)')^\n                            bytes4(keccak256('isApprovedForAll(bytes4)')))))))));\n    }\n\n    function _exists(uint _tokenId) internal view returns(bool) {\n        // setting the address of nft owner to check the mapping\n        // of the address from tokenOwner at the tokenId\n        address owner = _tokenOwner[_tokenId];\n        // return truth that address is not zero\n        return owner != address(0);\n    }\n\n    function _mint(address _to, uint _tokenId) internal virtual {\n        require(_to != address(0), \"Error - ERC721: minting to the zero address\");\n        // Check if the token is already minted\n        require(!_exists(_tokenId), \"Error - ERC721: token already minted\");\n        // this will give an address to token\n        _tokenOwner[_tokenId] = _to;\n        // add 1 for user owned tokens\n        _ownedTokensCount[_to] +=1;\n        emit Transfer(address(0), _to, _tokenId);\n\n    }\n\n    function balanceOf(address _owner) public view returns(uint) {\n        require(_owner != address(0), 'Error - Owner query for non-existent token');\n        return _ownedTokensCount[_owner];\n    }\n\n    function ownerOf(uint _tokenId) public   view returns(address) {\n        address owner = _tokenOwner[_tokenId];\n        require(owner != address(0), 'Error - Owner query for non-existent token');\n        return owner;\n    }\n\n    function _transferFrom(address _from, address _to, uint _tokenId) internal {\n        require(_to != address(0), 'Error - ERC721 transfer to the zero address ');\n        require(ownerOf(_tokenId) == _from, \"Error - Trying to transfer a token the address does not own\");\n        _ownedTokensCount[_from] -= 1;\n        _ownedTokensCount[_to] += 1;\n        _tokenOwner[_tokenId] = _to;\n        emit Transfer(_from, _to, _tokenId);\n        \n    }\n\n    function transferFrom(address from, address to, uint tokenId) public  {\n        require(_isApprovedOrOwner(msg.sender, tokenId), \"Error - It's not approved or owner\");\n        _transferFrom(from, to, tokenId);\n    }\n\n    function setApprovalForAll(address operator, bool approved) public  {\n        require(operator != msg.sender, \"ERC721: approve to caller\");\n        _operatorApprovals[msg.sender][operator] = approved;\n        emit ApprovalForAll(msg.sender, operator, approved);\n    }\n\n    function approve(address to, uint256 tokenId) payable public override {\n        address owner = ownerOf(tokenId);\n        require(to != owner, \"Error - approval to current owner\");\n        require(msg.sender == owner, \"Error - Current caller is not the owner of the token\");\n        _tokenApprovals[tokenId] = to;\n        emit Approval(owner, to, tokenId);\n    }\n\n    function getApproved(uint256 tokenId) public view returns(address) {\n        require(_exists(tokenId), \"ERC721: approved query for nonexistent token\");\n        return _tokenApprovals[tokenId];\n    }\n\n    function isApprovedForAll(address owner, address operator) public view returns (bool) {\n        return _operatorApprovals[owner][operator];\n    }\n\n    function _isApprovedOrOwner(address spender, uint256 tokenId) internal view returns(bool) {\n        require(_exists(tokenId), \"Token does not exist\");\n        address owner = ownerOf(tokenId);\n        return(spender == owner || spender == getApproved(tokenId) || isApprovedForAll(owner, spender));\n    }\n}",
  "sourcePath": "/home/pyry/Documents/truffleProjects/Ethereum-implementation/NFT_marketplace/nft-marketplace/contracts/ERC721.sol",
  "compiler": {
    "name": "solc",
    "version": "0.8.10+commit.fc410830.Emscripten.clang"
  },
  "schemaVersion": "3.4.7",
  "updatedAt": "2022-06-09T14:31:36.363Z",
  "devdoc": {
    "kind": "dev",
    "methods": {
      "balanceOf(address)": {
        "details": "NFTs assigned to the zero address are considered invalid, and this  function throws for queries about the zero address.",
        "params": {
          "_owner": "An address for whom to query the balance"
        },
        "returns": {
          "_0": "The number of NFTs owned by `_owner`, possibly zero"
        }
      },
      "supportsInterface(bytes4)": {
        "details": "Interface identification is specified in ERC-165. This function  uses less than 30,000 gas.",
        "params": {
          "interfaceID": "The interface identifier, as specified in ERC-165"
        },
        "returns": {
          "_0": "`true` if the contract implements `interfaceID` and  `interfaceID` is not 0xffffffff, `false` otherwise"
        }
      }
    },
    "version": 1
  },
  "userdoc": {
    "kind": "user",
    "methods": {
      "balanceOf(address)": {
        "notice": "Count all NFTs assigned to an owner"
      },
      "supportsInterface(bytes4)": {
        "notice": "Query if a contract implements an interface"
      }
    },
    "version": 1
  }
}