{
  "contractName": "ERC721",
  "abi": [
    {
      "anonymous": false,
      "inputs": [
        {
          "indexed": true,
          "internalType": "address",
          "name": "_from",
          "type": "address"
        },
        {
          "indexed": true,
          "internalType": "address",
          "name": "_to",
          "type": "address"
        },
        {
          "indexed": true,
          "internalType": "uint256",
          "name": "tokenId",
          "type": "uint256"
        }
      ],
      "name": "Transfer",
      "type": "event"
    },
    {
      "inputs": [
        {
          "internalType": "address",
          "name": "_owner",
          "type": "address"
        }
      ],
      "name": "balanceOf",
      "outputs": [
        {
          "internalType": "uint256",
          "name": "",
          "type": "uint256"
        }
      ],
      "stateMutability": "view",
      "type": "function"
    },
    {
      "inputs": [
        {
          "internalType": "uint256",
          "name": "_tokenId",
          "type": "uint256"
        }
      ],
      "name": "ownerOf",
      "outputs": [
        {
          "internalType": "address",
          "name": "",
          "type": "address"
        }
      ],
      "stateMutability": "view",
      "type": "function"
    }
  ],
  "bytecode": "0x608060405234801561001057600080fd5b50610424806100206000396000f3fe608060405234801561001057600080fd5b50600436106100365760003560e01c80636352211e1461003b57806370a082311461006b575b600080fd5b6100556004803603810190610050919061023f565b61009b565b60405161006291906102ad565b60405180910390f35b610085600480360381019061008091906102f4565b61014c565b6040516100929190610330565b60405180910390f35b60008060008084815260200190815260200160002060009054906101000a900473ffffffffffffffffffffffffffffffffffffffff169050600073ffffffffffffffffffffffffffffffffffffffff168173ffffffffffffffffffffffffffffffffffffffff161415610143576040517f08c379a000000000000000000000000000000000000000000000000000000000815260040161013a906103ce565b60405180910390fd5b80915050919050565b60008073ffffffffffffffffffffffffffffffffffffffff168273ffffffffffffffffffffffffffffffffffffffff1614156101bd576040517f08c379a00000000000000000000000000000000000000000000000000000000081526004016101b4906103ce565b60405180910390fd5b600160008373ffffffffffffffffffffffffffffffffffffffff1673ffffffffffffffffffffffffffffffffffffffff168152602001908152602001600020549050919050565b600080fd5b6000819050919050565b61021c81610209565b811461022757600080fd5b50565b60008135905061023981610213565b92915050565b60006020828403121561025557610254610204565b5b60006102638482850161022a565b91505092915050565b600073ffffffffffffffffffffffffffffffffffffffff82169050919050565b60006102978261026c565b9050919050565b6102a78161028c565b82525050565b60006020820190506102c2600083018461029e565b92915050565b6102d18161028c565b81146102dc57600080fd5b50565b6000813590506102ee816102c8565b92915050565b60006020828403121561030a57610309610204565b5b6000610318848285016102df565b91505092915050565b61032a81610209565b82525050565b60006020820190506103456000830184610321565b92915050565b600082825260208201905092915050565b7f4f776e657220717565727920666f72206e6f6e2d6578697374656e7420746f6b60008201527f656e000000000000000000000000000000000000000000000000000000000000602082015250565b60006103b860228361034b565b91506103c38261035c565b604082019050919050565b600060208201905081810360008301526103e7816103ab565b905091905056fea2646970667358221220a4d7af630c86abdcf604791e1b50094703e7b8a11f2639d0d4b6cb80b4f5a84b64736f6c634300080a0033",
  "immutableReferences": {},
  "source": "// SPDX-License-Identifier: MIT\npragma solidity ^0.8.0;\n\n\ncontract ERC721 {\n\n    // remember 3 indexed keyword are MAX per event! \n    // save gas as much as possible-\n    event Transfer(\n        address indexed _from, \n        address indexed _to, \n        uint indexed tokenId);\n\n    // mapping for token id to the owner\n    mapping(uint => address) private _tokenOwner;\n\n    // Mapping from owner to number of owned tokens\n    mapping(address => uint) private _ownedTokensCount;\n\n    function _exists(uint toeknID) internal view returns(bool) {\n        // setting the address pf nft owner to check the mapping\n        // of the address from tokenOwner at the tokenId\n        address owner = _tokenOwner[toeknID];\n        // return truth that address is not zero\n        return owner != address(0);\n    }\n\n    function _mint(address _to, uint _tokenId) internal virtual {\n        require(_to != address(0), \"ERC721: minting to the zero address\");\n        // Check if the token is already minted\n        require(!_exists(_tokenId), \"ERC721: token already minted\");\n        // this will give an address to token\n        _tokenOwner[_tokenId] = _to;\n        // add 1 for user owned tokens\n        _ownedTokensCount[_to] +=1;\n        emit Transfer(address(0), _to, _tokenId);\n\n    }\n\n    function balanceOf(address _owner) public view returns(uint) {\n        require(_owner != address(0), 'Owner query for non-existent token');\n        return _ownedTokensCount[_owner];\n    }\n\n    function ownerOf(uint _tokenId) external view returns(address) {\n        address owner = _tokenOwner[_tokenId];\n        require(owner != address(0), 'Owner query for non-existent token');\n        return owner;\n    }\n\n}",
  "sourcePath": "/home/pyry/Documents/truffleProjects/Ethereum-implementation/NFT_marketplace/nft-marketplace/contracts/ERC721.sol",
  "compiler": {
    "name": "solc",
    "version": "0.8.10+commit.fc410830.Emscripten.clang"
  },
  "schemaVersion": "3.4.7",
  "updatedAt": "2022-06-06T10:27:47.592Z",
  "devdoc": {
    "kind": "dev",
    "methods": {},
    "version": 1
  },
  "userdoc": {
    "kind": "user",
    "methods": {},
    "version": 1
  }
}