{
  "contractName": "ERC721",
  "abi": [
    {
      "anonymous": false,
      "inputs": [
        {
          "indexed": true,
          "internalType": "address",
          "name": "owner",
          "type": "address"
        },
        {
          "indexed": true,
          "internalType": "address",
          "name": "approved",
          "type": "address"
        },
        {
          "indexed": true,
          "internalType": "uint256",
          "name": "tokenId",
          "type": "uint256"
        }
      ],
      "name": "Approval",
      "type": "event"
    },
    {
      "anonymous": false,
      "inputs": [
        {
          "indexed": true,
          "internalType": "address",
          "name": "owner",
          "type": "address"
        },
        {
          "indexed": true,
          "internalType": "address",
          "name": "operator",
          "type": "address"
        },
        {
          "indexed": true,
          "internalType": "bool",
          "name": "approved",
          "type": "bool"
        }
      ],
      "name": "ApprovalForAll",
      "type": "event"
    },
    {
      "anonymous": false,
      "inputs": [
        {
          "indexed": true,
          "internalType": "address",
          "name": "from",
          "type": "address"
        },
        {
          "indexed": true,
          "internalType": "address",
          "name": "to",
          "type": "address"
        },
        {
          "indexed": true,
          "internalType": "uint256",
          "name": "tokenId",
          "type": "uint256"
        }
      ],
      "name": "Transfer",
      "type": "event"
    },
    {
      "inputs": [
        {
          "internalType": "address",
          "name": "_owner",
          "type": "address"
        }
      ],
      "name": "balanceOf",
      "outputs": [
        {
          "internalType": "uint256",
          "name": "",
          "type": "uint256"
        }
      ],
      "stateMutability": "view",
      "type": "function"
    },
    {
      "inputs": [
        {
          "internalType": "uint256",
          "name": "_tokenId",
          "type": "uint256"
        }
      ],
      "name": "ownerOf",
      "outputs": [
        {
          "internalType": "address",
          "name": "",
          "type": "address"
        }
      ],
      "stateMutability": "view",
      "type": "function"
    },
    {
      "inputs": [
        {
          "internalType": "address",
          "name": "from",
          "type": "address"
        },
        {
          "internalType": "address",
          "name": "to",
          "type": "address"
        },
        {
          "internalType": "uint256",
          "name": "tokenId",
          "type": "uint256"
        }
      ],
      "name": "transferFrom",
      "outputs": [],
      "stateMutability": "payable",
      "type": "function"
    },
    {
      "inputs": [
        {
          "internalType": "address",
          "name": "operator",
          "type": "address"
        },
        {
          "internalType": "bool",
          "name": "approved",
          "type": "bool"
        }
      ],
      "name": "setApprovalForAll",
      "outputs": [],
      "stateMutability": "nonpayable",
      "type": "function"
    },
    {
      "inputs": [
        {
          "internalType": "address",
          "name": "to",
          "type": "address"
        },
        {
          "internalType": "uint256",
          "name": "tokenId",
          "type": "uint256"
        }
      ],
      "name": "approve",
      "outputs": [],
      "stateMutability": "nonpayable",
      "type": "function"
    },
    {
      "inputs": [
        {
          "internalType": "uint256",
          "name": "tokenId",
          "type": "uint256"
        }
      ],
      "name": "getApproved",
      "outputs": [
        {
          "internalType": "address",
          "name": "",
          "type": "address"
        }
      ],
      "stateMutability": "view",
      "type": "function"
    },
    {
      "inputs": [
        {
          "internalType": "address",
          "name": "owner",
          "type": "address"
        },
        {
          "internalType": "address",
          "name": "operator",
          "type": "address"
        }
      ],
      "name": "isApprovedForAll",
      "outputs": [
        {
          "internalType": "bool",
          "name": "",
          "type": "bool"
        }
      ],
      "stateMutability": "view",
      "type": "function"
    }
  ],
  "bytecode": "0x608060405234801561001057600080fd5b506113d6806100206000396000f3fe6080604052600436106100705760003560e01c80636352211e1161004e5780636352211e146100f757806370a0823114610134578063a22cb46514610171578063e985e9c51461019a57610070565b8063081812fc14610075578063095ea7b3146100b257806323b872dd146100db575b600080fd5b34801561008157600080fd5b5061009c60048036038101906100979190610b7f565b6101d7565b6040516100a99190610bed565b60405180910390f35b3480156100be57600080fd5b506100d960048036038101906100d49190610c34565b61025c565b005b6100f560048036038101906100f09190610c74565b6103f8565b005b34801561010357600080fd5b5061011e60048036038101906101199190610b7f565b610451565b60405161012b9190610bed565b60405180910390f35b34801561014057600080fd5b5061015b60048036038101906101569190610cc7565b610502565b6040516101689190610d03565b60405180910390f35b34801561017d57600080fd5b5061019860048036038101906101939190610d56565b6105ba565b005b3480156101a657600080fd5b506101c160048036038101906101bc9190610d96565b61071e565b6040516101ce9190610de5565b60405180910390f35b60006101e2826107b2565b610221576040517f08c379a000000000000000000000000000000000000000000000000000000000815260040161021890610e83565b60405180910390fd5b6002600083815260200190815260200160002060009054906101000a900473ffffffffffffffffffffffffffffffffffffffff169050919050565b600061026782610451565b90508073ffffffffffffffffffffffffffffffffffffffff168373ffffffffffffffffffffffffffffffffffffffff1614156102d8576040517f08c379a00000000000000000000000000000000000000000000000000000000081526004016102cf90610f15565b60405180910390fd5b8073ffffffffffffffffffffffffffffffffffffffff163373ffffffffffffffffffffffffffffffffffffffff1614610346576040517f08c379a000000000000000000000000000000000000000000000000000000000815260040161033d90610fa7565b60405180910390fd5b826002600084815260200190815260200160002060006101000a81548173ffffffffffffffffffffffffffffffffffffffff021916908373ffffffffffffffffffffffffffffffffffffffff160217905550818373ffffffffffffffffffffffffffffffffffffffff168273ffffffffffffffffffffffffffffffffffffffff167f8c5be1e5ebec7d5bd14f71427d1e84f3dd0314c0f7b2291e5b200ac8c7c3b92560405160405180910390a4505050565b6104023382610823565b610441576040517f08c379a000000000000000000000000000000000000000000000000000000000815260040161043890611039565b60405180910390fd5b61044c838383610901565b505050565b60008060008084815260200190815260200160002060009054906101000a900473ffffffffffffffffffffffffffffffffffffffff169050600073ffffffffffffffffffffffffffffffffffffffff168173ffffffffffffffffffffffffffffffffffffffff1614156104f9576040517f08c379a00000000000000000000000000000000000000000000000000000000081526004016104f0906110cb565b60405180910390fd5b80915050919050565b60008073ffffffffffffffffffffffffffffffffffffffff168273ffffffffffffffffffffffffffffffffffffffff161415610573576040517f08c379a000000000000000000000000000000000000000000000000000000000815260040161056a906110cb565b60405180910390fd5b600160008373ffffffffffffffffffffffffffffffffffffffff1673ffffffffffffffffffffffffffffffffffffffff168152602001908152602001600020549050919050565b3373ffffffffffffffffffffffffffffffffffffffff168273ffffffffffffffffffffffffffffffffffffffff161415610629576040517f08c379a000000000000000000000000000000000000000000000000000000000815260040161062090611137565b60405180910390fd5b80600360003373ffffffffffffffffffffffffffffffffffffffff1673ffffffffffffffffffffffffffffffffffffffff16815260200190815260200160002060008473ffffffffffffffffffffffffffffffffffffffff1673ffffffffffffffffffffffffffffffffffffffff16815260200190815260200160002060006101000a81548160ff0219169083151502179055508015158273ffffffffffffffffffffffffffffffffffffffff163373ffffffffffffffffffffffffffffffffffffffff167f17307eab39ab6107e8899845ad3d59bd9653f200f220920489ca2b5937696c3160405160405180910390a45050565b6000600360008473ffffffffffffffffffffffffffffffffffffffff1673ffffffffffffffffffffffffffffffffffffffff16815260200190815260200160002060008373ffffffffffffffffffffffffffffffffffffffff1673ffffffffffffffffffffffffffffffffffffffff16815260200190815260200160002060009054906101000a900460ff16905092915050565b60008060008084815260200190815260200160002060009054906101000a900473ffffffffffffffffffffffffffffffffffffffff169050600073ffffffffffffffffffffffffffffffffffffffff168173ffffffffffffffffffffffffffffffffffffffff161415915050919050565b600061082e826107b2565b61086d576040517f08c379a0000000000000000000000000000000000000000000000000000000008152600401610864906111a3565b60405180910390fd5b600061087883610451565b90508073ffffffffffffffffffffffffffffffffffffffff168473ffffffffffffffffffffffffffffffffffffffff1614806108e757506108b8836101d7565b73ffffffffffffffffffffffffffffffffffffffff168473ffffffffffffffffffffffffffffffffffffffff16145b806108f857506108f7818561071e565b5b91505092915050565b600073ffffffffffffffffffffffffffffffffffffffff168273ffffffffffffffffffffffffffffffffffffffff161415610971576040517f08c379a000000000000000000000000000000000000000000000000000000000815260040161096890611235565b60405180910390fd5b8273ffffffffffffffffffffffffffffffffffffffff1661099182610451565b73ffffffffffffffffffffffffffffffffffffffff16146109e7576040517f08c379a00000000000000000000000000000000000000000000000000000000081526004016109de906112c7565b60405180910390fd5b60018060008573ffffffffffffffffffffffffffffffffffffffff1673ffffffffffffffffffffffffffffffffffffffff1681526020019081526020016000206000828254610a369190611316565b9250508190555060018060008473ffffffffffffffffffffffffffffffffffffffff1673ffffffffffffffffffffffffffffffffffffffff1681526020019081526020016000206000828254610a8c919061134a565b925050819055508160008083815260200190815260200160002060006101000a81548173ffffffffffffffffffffffffffffffffffffffff021916908373ffffffffffffffffffffffffffffffffffffffff160217905550808273ffffffffffffffffffffffffffffffffffffffff168473ffffffffffffffffffffffffffffffffffffffff167fddf252ad1be2c89b69c2b068fc378daa952ba7f163c4a11628f55a4df523b3ef60405160405180910390a4505050565b600080fd5b6000819050919050565b610b5c81610b49565b8114610b6757600080fd5b50565b600081359050610b7981610b53565b92915050565b600060208284031215610b9557610b94610b44565b5b6000610ba384828501610b6a565b91505092915050565b600073ffffffffffffffffffffffffffffffffffffffff82169050919050565b6000610bd782610bac565b9050919050565b610be781610bcc565b82525050565b6000602082019050610c026000830184610bde565b92915050565b610c1181610bcc565b8114610c1c57600080fd5b50565b600081359050610c2e81610c08565b92915050565b60008060408385031215610c4b57610c4a610b44565b5b6000610c5985828601610c1f565b9250506020610c6a85828601610b6a565b9150509250929050565b600080600060608486031215610c8d57610c8c610b44565b5b6000610c9b86828701610c1f565b9350506020610cac86828701610c1f565b9250506040610cbd86828701610b6a565b9150509250925092565b600060208284031215610cdd57610cdc610b44565b5b6000610ceb84828501610c1f565b91505092915050565b610cfd81610b49565b82525050565b6000602082019050610d186000830184610cf4565b92915050565b60008115159050919050565b610d3381610d1e565b8114610d3e57600080fd5b50565b600081359050610d5081610d2a565b92915050565b60008060408385031215610d6d57610d6c610b44565b5b6000610d7b85828601610c1f565b9250506020610d8c85828601610d41565b9150509250929050565b60008060408385031215610dad57610dac610b44565b5b6000610dbb85828601610c1f565b9250506020610dcc85828601610c1f565b9150509250929050565b610ddf81610d1e565b82525050565b6000602082019050610dfa6000830184610dd6565b92915050565b600082825260208201905092915050565b7f4552433732313a20617070726f76656420717565727920666f72206e6f6e657860008201527f697374656e7420746f6b656e0000000000000000000000000000000000000000602082015250565b6000610e6d602c83610e00565b9150610e7882610e11565b604082019050919050565b60006020820190508181036000830152610e9c81610e60565b9050919050565b7f4572726f72202d20617070726f76616c20746f2063757272656e74206f776e6560008201527f7200000000000000000000000000000000000000000000000000000000000000602082015250565b6000610eff602183610e00565b9150610f0a82610ea3565b604082019050919050565b60006020820190508181036000830152610f2e81610ef2565b9050919050565b7f4572726f72202d2043757272656e742063616c6c6572206973206e6f7420746860008201527f65206f776e6572206f662074686520746f6b656e000000000000000000000000602082015250565b6000610f91603483610e00565b9150610f9c82610f35565b604082019050919050565b60006020820190508181036000830152610fc081610f84565b9050919050565b7f4572726f72202d2049742773206e6f7420617070726f766564206f72206f776e60008201527f6572000000000000000000000000000000000000000000000000000000000000602082015250565b6000611023602283610e00565b915061102e82610fc7565b604082019050919050565b6000602082019050818103600083015261105281611016565b9050919050565b7f4572726f72202d204f776e657220717565727920666f72206e6f6e2d6578697360008201527f74656e7420746f6b656e00000000000000000000000000000000000000000000602082015250565b60006110b5602a83610e00565b91506110c082611059565b604082019050919050565b600060208201905081810360008301526110e4816110a8565b9050919050565b7f4552433732313a20617070726f766520746f2063616c6c657200000000000000600082015250565b6000611121601983610e00565b915061112c826110eb565b602082019050919050565b6000602082019050818103600083015261115081611114565b9050919050565b7f546f6b656e20646f6573206e6f74206578697374000000000000000000000000600082015250565b600061118d601483610e00565b915061119882611157565b602082019050919050565b600060208201905081810360008301526111bc81611180565b9050919050565b7f4572726f72202d20455243373231207472616e7366657220746f20746865207a60008201527f65726f2061646472657373200000000000000000000000000000000000000000602082015250565b600061121f602c83610e00565b915061122a826111c3565b604082019050919050565b6000602082019050818103600083015261124e81611212565b9050919050565b7f4572726f72202d20547279696e6720746f207472616e73666572206120746f6b60008201527f656e20746865206164647265737320646f6573206e6f74206f776e0000000000602082015250565b60006112b1603b83610e00565b91506112bc82611255565b604082019050919050565b600060208201905081810360008301526112e0816112a4565b9050919050565b7f4e487b7100000000000000000000000000000000000000000000000000000000600052601160045260246000fd5b600061132182610b49565b915061132c83610b49565b92508282101561133f5761133e6112e7565b5b828203905092915050565b600061135582610b49565b915061136083610b49565b9250827fffffffffffffffffffffffffffffffffffffffffffffffffffffffffffffffff03821115611395576113946112e7565b5b82820190509291505056fea2646970667358221220ad64ad2923c933624f250c09e2eacd5c1752109aaac244f2fca9cd04c36da52e64736f6c634300080a0033",
  "immutableReferences": {},
  "source": "// SPDX-License-Identifier: MIT\npragma solidity ^0.8.0;\n\n// Here are the ERC721 standards ONLY!\ncontract ERC721 {\n\n    // remember 3 indexed keyword are MAX per event! \n    // save gas as much as possible-\n    event Transfer(\n        address indexed from, \n        address indexed to, \n        uint indexed tokenId);\n\n    event Approval(\n        address indexed owner, \n        address indexed approved,\n        uint256 indexed tokenId);\n\n\n    event ApprovalForAll( \n        address indexed owner, \n        address indexed operator, \n        bool indexed approved);\n\n    // mapping for token id to the owner\n    mapping(uint => address) private _tokenOwner;\n\n    // mapping from owner to number of owned tokens\n    mapping(address => uint) private _ownedTokensCount;\n\n    // mapping from token id to approval addresses\n    mapping(uint => address) private _tokenApprovals;\n\n    // Mapping from owner to operator approvals\n    mapping(address => mapping(address => bool)) private _operatorApprovals;\n\n    function _exists(uint _tokenId) internal view returns(bool) {\n        // setting the address of nft owner to check the mapping\n        // of the address from tokenOwner at the tokenId\n        address owner = _tokenOwner[_tokenId];\n        // return truth that address is not zero\n        return owner != address(0);\n    }\n\n    function _mint(address _to, uint _tokenId) internal virtual {\n        require(_to != address(0), \"Error - ERC721: minting to the zero address\");\n        // Check if the token is already minted\n        require(!_exists(_tokenId), \"Error - ERC721: token already minted\");\n        // this will give an address to token\n        _tokenOwner[_tokenId] = _to;\n        // add 1 for user owned tokens\n        _ownedTokensCount[_to] +=1;\n        emit Transfer(address(0), _to, _tokenId);\n\n    }\n\n    function balanceOf(address _owner) public view returns(uint) {\n        require(_owner != address(0), 'Error - Owner query for non-existent token');\n        return _ownedTokensCount[_owner];\n    }\n\n    function ownerOf(uint _tokenId) public   view returns(address) {\n        address owner = _tokenOwner[_tokenId];\n        require(owner != address(0), 'Error - Owner query for non-existent token');\n        return owner;\n    }\n\n    function _transferFrom(address _from, address _to, uint _tokenId) internal {\n        require(_to != address(0), 'Error - ERC721 transfer to the zero address ');\n        require(ownerOf(_tokenId) == _from, \"Error - Trying to transfer a token the address does not own\");\n        _ownedTokensCount[_from] -= 1;\n        _ownedTokensCount[_to] += 1;\n        _tokenOwner[_tokenId] = _to;\n        emit Transfer(_from, _to, _tokenId);\n        \n    }\n\n    function transferFrom(address from, address to, uint tokenId) public payable {\n        require(_isApprovedOrOwner(msg.sender, tokenId), \"Error - It's not approved or owner\");\n        _transferFrom(from, to, tokenId);\n    }\n\n    function setApprovalForAll(address operator, bool approved) public  {\n        require(operator != msg.sender, \"ERC721: approve to caller\");\n        _operatorApprovals[msg.sender][operator] = approved;\n        emit ApprovalForAll(msg.sender, operator, approved);\n    }\n\n    function approve(address to, uint256 tokenId) public {\n        address owner = ownerOf(tokenId);\n        require(to != owner, \"Error - approval to current owner\");\n        require(msg.sender == owner, \"Error - Current caller is not the owner of the token\");\n        _tokenApprovals[tokenId] = to;\n        emit Approval(owner, to, tokenId);\n    }\n\n    function getApproved(uint256 tokenId) public view returns(address) {\n        require(_exists(tokenId), \"ERC721: approved query for nonexistent token\");\n        return _tokenApprovals[tokenId];\n    }\n\n    function isApprovedForAll(address owner, address operator) public view returns (bool) {\n        return _operatorApprovals[owner][operator];\n    }\n\n    function _isApprovedOrOwner(address spender, uint256 tokenId) internal view returns(bool) {\n        require(_exists(tokenId), \"Token does not exist\");\n        address owner = ownerOf(tokenId);\n        return(spender == owner || spender == getApproved(tokenId) || isApprovedForAll(owner, spender));\n    }\n}",
  "sourcePath": "/home/pyry/Documents/truffleProjects/Ethereum-implementation/NFT_marketplace/nft-marketplace/contracts/ERC721.sol",
  "compiler": {
    "name": "solc",
    "version": "0.8.10+commit.fc410830.Emscripten.clang"
  },
  "schemaVersion": "3.4.7",
  "updatedAt": "2022-06-08T09:23:39.871Z",
  "devdoc": {
    "kind": "dev",
    "methods": {},
    "version": 1
  },
  "userdoc": {
    "kind": "user",
    "methods": {},
    "version": 1
  }
}