{
  "contractName": "ERC721Enumerable",
  "abi": [
    {
      "anonymous": false,
      "inputs": [
        {
          "indexed": true,
          "internalType": "address",
          "name": "owner",
          "type": "address"
        },
        {
          "indexed": true,
          "internalType": "address",
          "name": "approved",
          "type": "address"
        },
        {
          "indexed": true,
          "internalType": "uint256",
          "name": "tokenId",
          "type": "uint256"
        }
      ],
      "name": "Approval",
      "type": "event"
    },
    {
      "anonymous": false,
      "inputs": [
        {
          "indexed": true,
          "internalType": "address",
          "name": "owner",
          "type": "address"
        },
        {
          "indexed": true,
          "internalType": "address",
          "name": "operator",
          "type": "address"
        },
        {
          "indexed": true,
          "internalType": "bool",
          "name": "approved",
          "type": "bool"
        }
      ],
      "name": "ApprovalForAll",
      "type": "event"
    },
    {
      "anonymous": false,
      "inputs": [
        {
          "indexed": true,
          "internalType": "address",
          "name": "from",
          "type": "address"
        },
        {
          "indexed": true,
          "internalType": "address",
          "name": "to",
          "type": "address"
        },
        {
          "indexed": true,
          "internalType": "uint256",
          "name": "tokenId",
          "type": "uint256"
        }
      ],
      "name": "Transfer",
      "type": "event"
    },
    {
      "inputs": [
        {
          "internalType": "address",
          "name": "to",
          "type": "address"
        },
        {
          "internalType": "uint256",
          "name": "tokenId",
          "type": "uint256"
        }
      ],
      "name": "approve",
      "outputs": [],
      "stateMutability": "nonpayable",
      "type": "function"
    },
    {
      "inputs": [
        {
          "internalType": "address",
          "name": "_owner",
          "type": "address"
        }
      ],
      "name": "balanceOf",
      "outputs": [
        {
          "internalType": "uint256",
          "name": "",
          "type": "uint256"
        }
      ],
      "stateMutability": "view",
      "type": "function"
    },
    {
      "inputs": [
        {
          "internalType": "uint256",
          "name": "tokenId",
          "type": "uint256"
        }
      ],
      "name": "getApproved",
      "outputs": [
        {
          "internalType": "address",
          "name": "",
          "type": "address"
        }
      ],
      "stateMutability": "view",
      "type": "function"
    },
    {
      "inputs": [
        {
          "internalType": "address",
          "name": "owner",
          "type": "address"
        },
        {
          "internalType": "address",
          "name": "operator",
          "type": "address"
        }
      ],
      "name": "isApprovedForAll",
      "outputs": [
        {
          "internalType": "bool",
          "name": "",
          "type": "bool"
        }
      ],
      "stateMutability": "view",
      "type": "function"
    },
    {
      "inputs": [
        {
          "internalType": "uint256",
          "name": "_tokenId",
          "type": "uint256"
        }
      ],
      "name": "ownerOf",
      "outputs": [
        {
          "internalType": "address",
          "name": "",
          "type": "address"
        }
      ],
      "stateMutability": "view",
      "type": "function"
    },
    {
      "inputs": [
        {
          "internalType": "address",
          "name": "operator",
          "type": "address"
        },
        {
          "internalType": "bool",
          "name": "approved",
          "type": "bool"
        }
      ],
      "name": "setApprovalForAll",
      "outputs": [],
      "stateMutability": "nonpayable",
      "type": "function"
    },
    {
      "inputs": [
        {
          "internalType": "address",
          "name": "from",
          "type": "address"
        },
        {
          "internalType": "address",
          "name": "to",
          "type": "address"
        },
        {
          "internalType": "uint256",
          "name": "tokenId",
          "type": "uint256"
        }
      ],
      "name": "transferFrom",
      "outputs": [],
      "stateMutability": "payable",
      "type": "function"
    },
    {
      "inputs": [
        {
          "internalType": "uint256",
          "name": "_index",
          "type": "uint256"
        }
      ],
      "name": "_tokenByIndex",
      "outputs": [
        {
          "internalType": "uint256",
          "name": "",
          "type": "uint256"
        }
      ],
      "stateMutability": "view",
      "type": "function"
    },
    {
      "inputs": [
        {
          "internalType": "address",
          "name": "_owner",
          "type": "address"
        },
        {
          "internalType": "uint256",
          "name": "_index",
          "type": "uint256"
        }
      ],
      "name": "_tokenOfOwnerByIndex",
      "outputs": [
        {
          "internalType": "uint256",
          "name": "",
          "type": "uint256"
        }
      ],
      "stateMutability": "view",
      "type": "function"
    },
    {
      "inputs": [],
      "name": "_totalSupply",
      "outputs": [
        {
          "internalType": "uint256",
          "name": "",
          "type": "uint256"
        }
      ],
      "stateMutability": "view",
      "type": "function"
    }
  ],
  "bytecode": "0x608060405234801561001057600080fd5b506116c6806100206000396000f3fe6080604052600436106100915760003560e01c80636352211e116100595780636352211e1461018057806370a08231146101bd578063a22cb465146101fa578063bf9ffa2914610223578063e985e9c51461026057610091565b8063081812fc14610096578063095ea7b3146100d357806323b872dd146100fc57806327071f6a146101185780633eaaf86b14610155575b600080fd5b3480156100a257600080fd5b506100bd60048036038101906100b89190610d68565b61029d565b6040516100ca9190610dd6565b60405180910390f35b3480156100df57600080fd5b506100fa60048036038101906100f59190610e1d565b610322565b005b61011660048036038101906101119190610e5d565b6104be565b005b34801561012457600080fd5b5061013f600480360381019061013a9190610e1d565b610517565b60405161014c9190610ebf565b60405180910390f35b34801561016157600080fd5b5061016a6105c7565b6040516101779190610ebf565b60405180910390f35b34801561018c57600080fd5b506101a760048036038101906101a29190610d68565b6105d4565b6040516101b49190610dd6565b60405180910390f35b3480156101c957600080fd5b506101e460048036038101906101df9190610eda565b610685565b6040516101f19190610ebf565b60405180910390f35b34801561020657600080fd5b50610221600480360381019061021c9190610f3f565b61073d565b005b34801561022f57600080fd5b5061024a60048036038101906102459190610d68565b6108a1565b6040516102579190610ebf565b60405180910390f35b34801561026c57600080fd5b5061028760048036038101906102829190610f7f565b610907565b6040516102949190610fce565b60405180910390f35b60006102a88261099b565b6102e7576040517f08c379a00000000000000000000000000000000000000000000000000000000081526004016102de9061106c565b60405180910390fd5b6002600083815260200190815260200160002060009054906101000a900473ffffffffffffffffffffffffffffffffffffffff169050919050565b600061032d826105d4565b90508073ffffffffffffffffffffffffffffffffffffffff168373ffffffffffffffffffffffffffffffffffffffff16141561039e576040517f08c379a0000000000000000000000000000000000000000000000000000000008152600401610395906110fe565b60405180910390fd5b8073ffffffffffffffffffffffffffffffffffffffff163373ffffffffffffffffffffffffffffffffffffffff161461040c576040517f08c379a000000000000000000000000000000000000000000000000000000000815260040161040390611190565b60405180910390fd5b826002600084815260200190815260200160002060006101000a81548173ffffffffffffffffffffffffffffffffffffffff021916908373ffffffffffffffffffffffffffffffffffffffff160217905550818373ffffffffffffffffffffffffffffffffffffffff168273ffffffffffffffffffffffffffffffffffffffff167f8c5be1e5ebec7d5bd14f71427d1e84f3dd0314c0f7b2291e5b200ac8c7c3b92560405160405180910390a4505050565b6104c83382610a0c565b610507576040517f08c379a00000000000000000000000000000000000000000000000000000000081526004016104fe90611222565b60405180910390fd5b610512838383610aea565b505050565b600061052283610685565b8210610563576040517f08c379a000000000000000000000000000000000000000000000000000000000815260040161055a9061128e565b60405180910390fd5b600660008473ffffffffffffffffffffffffffffffffffffffff1673ffffffffffffffffffffffffffffffffffffffff16815260200190815260200160002082815481106105b4576105b36112ae565b5b9060005260206000200154905092915050565b6000600480549050905090565b60008060008084815260200190815260200160002060009054906101000a900473ffffffffffffffffffffffffffffffffffffffff169050600073ffffffffffffffffffffffffffffffffffffffff168173ffffffffffffffffffffffffffffffffffffffff16141561067c576040517f08c379a00000000000000000000000000000000000000000000000000000000081526004016106739061134f565b60405180910390fd5b80915050919050565b60008073ffffffffffffffffffffffffffffffffffffffff168273ffffffffffffffffffffffffffffffffffffffff1614156106f6576040517f08c379a00000000000000000000000000000000000000000000000000000000081526004016106ed9061134f565b60405180910390fd5b600160008373ffffffffffffffffffffffffffffffffffffffff1673ffffffffffffffffffffffffffffffffffffffff168152602001908152602001600020549050919050565b3373ffffffffffffffffffffffffffffffffffffffff168273ffffffffffffffffffffffffffffffffffffffff1614156107ac576040517f08c379a00000000000000000000000000000000000000000000000000000000081526004016107a3906113bb565b60405180910390fd5b80600360003373ffffffffffffffffffffffffffffffffffffffff1673ffffffffffffffffffffffffffffffffffffffff16815260200190815260200160002060008473ffffffffffffffffffffffffffffffffffffffff1673ffffffffffffffffffffffffffffffffffffffff16815260200190815260200160002060006101000a81548160ff0219169083151502179055508015158273ffffffffffffffffffffffffffffffffffffffff163373ffffffffffffffffffffffffffffffffffffffff167f17307eab39ab6107e8899845ad3d59bd9653f200f220920489ca2b5937696c3160405160405180910390a45050565b60006108ab6105c7565b82106108ec576040517f08c379a00000000000000000000000000000000000000000000000000000000081526004016108e390611427565b60405180910390fd5b60056000838152602001908152602001600020549050919050565b6000600360008473ffffffffffffffffffffffffffffffffffffffff1673ffffffffffffffffffffffffffffffffffffffff16815260200190815260200160002060008373ffffffffffffffffffffffffffffffffffffffff1673ffffffffffffffffffffffffffffffffffffffff16815260200190815260200160002060009054906101000a900460ff16905092915050565b60008060008084815260200190815260200160002060009054906101000a900473ffffffffffffffffffffffffffffffffffffffff169050600073ffffffffffffffffffffffffffffffffffffffff168173ffffffffffffffffffffffffffffffffffffffff161415915050919050565b6000610a178261099b565b610a56576040517f08c379a0000000000000000000000000000000000000000000000000000000008152600401610a4d90611493565b60405180910390fd5b6000610a61836105d4565b90508073ffffffffffffffffffffffffffffffffffffffff168473ffffffffffffffffffffffffffffffffffffffff161480610ad05750610aa18361029d565b73ffffffffffffffffffffffffffffffffffffffff168473ffffffffffffffffffffffffffffffffffffffff16145b80610ae15750610ae08185610907565b5b91505092915050565b600073ffffffffffffffffffffffffffffffffffffffff168273ffffffffffffffffffffffffffffffffffffffff161415610b5a576040517f08c379a0000000000000000000000000000000000000000000000000000000008152600401610b5190611525565b60405180910390fd5b8273ffffffffffffffffffffffffffffffffffffffff16610b7a826105d4565b73ffffffffffffffffffffffffffffffffffffffff1614610bd0576040517f08c379a0000000000000000000000000000000000000000000000000000000008152600401610bc7906115b7565b60405180910390fd5b60018060008573ffffffffffffffffffffffffffffffffffffffff1673ffffffffffffffffffffffffffffffffffffffff1681526020019081526020016000206000828254610c1f9190611606565b9250508190555060018060008473ffffffffffffffffffffffffffffffffffffffff1673ffffffffffffffffffffffffffffffffffffffff1681526020019081526020016000206000828254610c75919061163a565b925050819055508160008083815260200190815260200160002060006101000a81548173ffffffffffffffffffffffffffffffffffffffff021916908373ffffffffffffffffffffffffffffffffffffffff160217905550808273ffffffffffffffffffffffffffffffffffffffff168473ffffffffffffffffffffffffffffffffffffffff167fddf252ad1be2c89b69c2b068fc378daa952ba7f163c4a11628f55a4df523b3ef60405160405180910390a4505050565b600080fd5b6000819050919050565b610d4581610d32565b8114610d5057600080fd5b50565b600081359050610d6281610d3c565b92915050565b600060208284031215610d7e57610d7d610d2d565b5b6000610d8c84828501610d53565b91505092915050565b600073ffffffffffffffffffffffffffffffffffffffff82169050919050565b6000610dc082610d95565b9050919050565b610dd081610db5565b82525050565b6000602082019050610deb6000830184610dc7565b92915050565b610dfa81610db5565b8114610e0557600080fd5b50565b600081359050610e1781610df1565b92915050565b60008060408385031215610e3457610e33610d2d565b5b6000610e4285828601610e08565b9250506020610e5385828601610d53565b9150509250929050565b600080600060608486031215610e7657610e75610d2d565b5b6000610e8486828701610e08565b9350506020610e9586828701610e08565b9250506040610ea686828701610d53565b9150509250925092565b610eb981610d32565b82525050565b6000602082019050610ed46000830184610eb0565b92915050565b600060208284031215610ef057610eef610d2d565b5b6000610efe84828501610e08565b91505092915050565b60008115159050919050565b610f1c81610f07565b8114610f2757600080fd5b50565b600081359050610f3981610f13565b92915050565b60008060408385031215610f5657610f55610d2d565b5b6000610f6485828601610e08565b9250506020610f7585828601610f2a565b9150509250929050565b60008060408385031215610f9657610f95610d2d565b5b6000610fa485828601610e08565b9250506020610fb585828601610e08565b9150509250929050565b610fc881610f07565b82525050565b6000602082019050610fe36000830184610fbf565b92915050565b600082825260208201905092915050565b7f4552433732313a20617070726f76656420717565727920666f72206e6f6e657860008201527f697374656e7420746f6b656e0000000000000000000000000000000000000000602082015250565b6000611056602c83610fe9565b915061106182610ffa565b604082019050919050565b6000602082019050818103600083015261108581611049565b9050919050565b7f4572726f72202d20617070726f76616c20746f2063757272656e74206f776e6560008201527f7200000000000000000000000000000000000000000000000000000000000000602082015250565b60006110e8602183610fe9565b91506110f38261108c565b604082019050919050565b60006020820190508181036000830152611117816110db565b9050919050565b7f4572726f72202d2043757272656e742063616c6c6572206973206e6f7420746860008201527f65206f776e6572206f662074686520746f6b656e000000000000000000000000602082015250565b600061117a603483610fe9565b91506111858261111e565b604082019050919050565b600060208201905081810360008301526111a98161116d565b9050919050565b7f4572726f72202d2049742773206e6f7420617070726f766564206f72206f776e60008201527f6572000000000000000000000000000000000000000000000000000000000000602082015250565b600061120c602283610fe9565b9150611217826111b0565b604082019050919050565b6000602082019050818103600083015261123b816111ff565b9050919050565b7f4f776e657220696e646578206973206f7574206f662072616e67652100000000600082015250565b6000611278601c83610fe9565b915061128382611242565b602082019050919050565b600060208201905081810360008301526112a78161126b565b9050919050565b7f4e487b7100000000000000000000000000000000000000000000000000000000600052603260045260246000fd5b7f4572726f72202d204f776e657220717565727920666f72206e6f6e2d6578697360008201527f74656e7420746f6b656e00000000000000000000000000000000000000000000602082015250565b6000611339602a83610fe9565b9150611344826112dd565b604082019050919050565b600060208201905081810360008301526113688161132c565b9050919050565b7f4552433732313a20617070726f766520746f2063616c6c657200000000000000600082015250565b60006113a5601983610fe9565b91506113b08261136f565b602082019050919050565b600060208201905081810360008301526113d481611398565b9050919050565b7f496e646578206973206f7574206f662072616e67652100000000000000000000600082015250565b6000611411601683610fe9565b915061141c826113db565b602082019050919050565b6000602082019050818103600083015261144081611404565b9050919050565b7f546f6b656e20646f6573206e6f74206578697374000000000000000000000000600082015250565b600061147d601483610fe9565b915061148882611447565b602082019050919050565b600060208201905081810360008301526114ac81611470565b9050919050565b7f4572726f72202d20455243373231207472616e7366657220746f20746865207a60008201527f65726f2061646472657373200000000000000000000000000000000000000000602082015250565b600061150f602c83610fe9565b915061151a826114b3565b604082019050919050565b6000602082019050818103600083015261153e81611502565b9050919050565b7f4572726f72202d20547279696e6720746f207472616e73666572206120746f6b60008201527f656e20746865206164647265737320646f6573206e6f74206f776e0000000000602082015250565b60006115a1603b83610fe9565b91506115ac82611545565b604082019050919050565b600060208201905081810360008301526115d081611594565b9050919050565b7f4e487b7100000000000000000000000000000000000000000000000000000000600052601160045260246000fd5b600061161182610d32565b915061161c83610d32565b92508282101561162f5761162e6115d7565b5b828203905092915050565b600061164582610d32565b915061165083610d32565b9250827fffffffffffffffffffffffffffffffffffffffffffffffffffffffffffffffff03821115611685576116846115d7565b5b82820190509291505056fea2646970667358221220b266703fb6bc55f8062271d90ff48066368906579a55bbae3651f7de2a9d2f5564736f6c634300080a0033",
  "immutableReferences": {},
  "source": "// SPDX-License-Identifier: MIT\npragma solidity ^0.8.0;\n\nimport './ERC721.sol';\n\ncontract ERC721Enumerable is ERC721 {\n\n    // total supply\n    uint[] private _allTokens;\n\n    // mapping from tokenId to position in _allTokens array\n    mapping(uint => uint) private _allTokensIndex;\n\n    // mapping of owner to list fo all owner token ids\n    mapping(address => uint[]) private _ownedTokens;\n\n    // mapping from token ID index of the owner tokens list\n    mapping(uint => uint) private  _ownedTokensIndex;\n\n    function _mint(address _to, uint _tokenId) internal override(ERC721) {\n        super._mint(_to, _tokenId);\n        // 1. All tokens to our totalSupply - to allTokens\n        _addTokensToAllTokensEnumeration(_tokenId);\n         // 2. add tokens to the owner\n        _addTokenToOwnerEnumeration(_to, _tokenId);\n    }\n\n    function _addTokensToAllTokensEnumeration(uint _tokenId) private {\n        // this will set up the token index\n        _allTokensIndex[_tokenId] = _allTokens.length;\n        _allTokens.push(_tokenId);\n    }\n\n    function _addTokenToOwnerEnumeration(address _to, uint tokenId) private {\n        _ownedTokens[_to].push(tokenId);\n        _ownedTokensIndex[tokenId] = _ownedTokens[_to].length;\n    }\n\n    function _tokenByIndex(uint _index) public view returns(uint) {\n        require(_index < _totalSupply(), \"Index is out of range!\");\n        return _allTokensIndex[_index];\n    }\n\n    function _tokenOfOwnerByIndex(address _owner, uint _index) public view returns(uint) {\n        require(_index < balanceOf(_owner), \"Owner index is out of range!\");\n        return _ownedTokens[_owner][_index];\n    }\n\n    function _totalSupply() public view returns(uint) {\n        return _allTokens.length;\n    }\n    \n}",
  "sourcePath": "/home/pyry/Documents/truffleProjects/Ethereum-implementation/NFT_marketplace/nft-marketplace/contracts/ERC721Enumerable.sol",
  "compiler": {
    "name": "solc",
    "version": "0.8.10+commit.fc410830.Emscripten.clang"
  },
  "schemaVersion": "3.4.7",
  "updatedAt": "2022-06-08T09:23:39.885Z",
  "devdoc": {
    "kind": "dev",
    "methods": {},
    "version": 1
  },
  "userdoc": {
    "kind": "user",
    "methods": {},
    "version": 1
  }
}