{
  "contractName": "ERC721Enumerable",
  "abi": [
    {
      "anonymous": false,
      "inputs": [
        {
          "indexed": true,
          "internalType": "address",
          "name": "_from",
          "type": "address"
        },
        {
          "indexed": true,
          "internalType": "address",
          "name": "_to",
          "type": "address"
        },
        {
          "indexed": true,
          "internalType": "uint256",
          "name": "tokenId",
          "type": "uint256"
        }
      ],
      "name": "Transfer",
      "type": "event"
    },
    {
      "inputs": [
        {
          "internalType": "address",
          "name": "_owner",
          "type": "address"
        }
      ],
      "name": "balanceOf",
      "outputs": [
        {
          "internalType": "uint256",
          "name": "",
          "type": "uint256"
        }
      ],
      "stateMutability": "view",
      "type": "function"
    },
    {
      "inputs": [
        {
          "internalType": "uint256",
          "name": "_tokenId",
          "type": "uint256"
        }
      ],
      "name": "ownerOf",
      "outputs": [
        {
          "internalType": "address",
          "name": "",
          "type": "address"
        }
      ],
      "stateMutability": "view",
      "type": "function"
    },
    {
      "inputs": [
        {
          "internalType": "address",
          "name": "_from",
          "type": "address"
        },
        {
          "internalType": "address",
          "name": "_to",
          "type": "address"
        },
        {
          "internalType": "uint256",
          "name": "_tokenId",
          "type": "uint256"
        }
      ],
      "name": "transferFrom",
      "outputs": [],
      "stateMutability": "payable",
      "type": "function"
    },
    {
      "inputs": [
        {
          "internalType": "uint256",
          "name": "_index",
          "type": "uint256"
        }
      ],
      "name": "_tokenByIndex",
      "outputs": [
        {
          "internalType": "uint256",
          "name": "",
          "type": "uint256"
        }
      ],
      "stateMutability": "view",
      "type": "function"
    },
    {
      "inputs": [
        {
          "internalType": "address",
          "name": "_owner",
          "type": "address"
        },
        {
          "internalType": "uint256",
          "name": "_index",
          "type": "uint256"
        }
      ],
      "name": "_tokenOfOwnerByIndex",
      "outputs": [
        {
          "internalType": "uint256",
          "name": "",
          "type": "uint256"
        }
      ],
      "stateMutability": "view",
      "type": "function"
    },
    {
      "inputs": [],
      "name": "_totalSupply",
      "outputs": [
        {
          "internalType": "uint256",
          "name": "",
          "type": "uint256"
        }
      ],
      "stateMutability": "view",
      "type": "function"
    }
  ],
  "bytecode": "0x608060405234801561001057600080fd5b50610c0b806100206000396000f3fe6080604052600436106100555760003560e01c806323b872dd1461005a57806327071f6a146100765780633eaaf86b146100b35780636352211e146100de57806370a082311461011b578063bf9ffa2914610158575b600080fd5b610074600480360381019061006f919061070d565b610195565b005b34801561008257600080fd5b5061009d60048036038101906100989190610760565b6101a5565b6040516100aa91906107af565b60405180910390f35b3480156100bf57600080fd5b506100c8610255565b6040516100d591906107af565b60405180910390f35b3480156100ea57600080fd5b50610105600480360381019061010091906107ca565b610262565b6040516101129190610806565b60405180910390f35b34801561012757600080fd5b50610142600480360381019061013d9190610821565b610313565b60405161014f91906107af565b60405180910390f35b34801561016457600080fd5b5061017f600480360381019061017a91906107ca565b6103cb565b60405161018c91906107af565b60405180910390f35b6101a0838383610431565b505050565b60006101b083610313565b82106101f1576040517f08c379a00000000000000000000000000000000000000000000000000000000081526004016101e8906108ab565b60405180910390fd5b600560008473ffffffffffffffffffffffffffffffffffffffff1673ffffffffffffffffffffffffffffffffffffffff1681526020019081526020016000208281548110610242576102416108cb565b5b9060005260206000200154905092915050565b6000600380549050905090565b60008060008084815260200190815260200160002060009054906101000a900473ffffffffffffffffffffffffffffffffffffffff169050600073ffffffffffffffffffffffffffffffffffffffff168173ffffffffffffffffffffffffffffffffffffffff16141561030a576040517f08c379a00000000000000000000000000000000000000000000000000000000081526004016103019061096c565b60405180910390fd5b80915050919050565b60008073ffffffffffffffffffffffffffffffffffffffff168273ffffffffffffffffffffffffffffffffffffffff161415610384576040517f08c379a000000000000000000000000000000000000000000000000000000000815260040161037b9061096c565b60405180910390fd5b600160008373ffffffffffffffffffffffffffffffffffffffff1673ffffffffffffffffffffffffffffffffffffffff168152602001908152602001600020549050919050565b60006103d5610255565b8210610416576040517f08c379a000000000000000000000000000000000000000000000000000000000815260040161040d906109d8565b60405180910390fd5b60046000838152602001908152602001600020549050919050565b600073ffffffffffffffffffffffffffffffffffffffff168273ffffffffffffffffffffffffffffffffffffffff1614156104a1576040517f08c379a000000000000000000000000000000000000000000000000000000000815260040161049890610a6a565b60405180910390fd5b8273ffffffffffffffffffffffffffffffffffffffff166104c182610262565b73ffffffffffffffffffffffffffffffffffffffff1614610517576040517f08c379a000000000000000000000000000000000000000000000000000000000815260040161050e90610afc565b60405180910390fd5b60018060008573ffffffffffffffffffffffffffffffffffffffff1673ffffffffffffffffffffffffffffffffffffffff16815260200190815260200160002060008282546105669190610b4b565b9250508190555060018060008473ffffffffffffffffffffffffffffffffffffffff1673ffffffffffffffffffffffffffffffffffffffff16815260200190815260200160002060008282546105bc9190610b7f565b925050819055508160008083815260200190815260200160002060006101000a81548173ffffffffffffffffffffffffffffffffffffffff021916908373ffffffffffffffffffffffffffffffffffffffff160217905550808273ffffffffffffffffffffffffffffffffffffffff168473ffffffffffffffffffffffffffffffffffffffff167fddf252ad1be2c89b69c2b068fc378daa952ba7f163c4a11628f55a4df523b3ef60405160405180910390a4505050565b600080fd5b600073ffffffffffffffffffffffffffffffffffffffff82169050919050565b60006106a482610679565b9050919050565b6106b481610699565b81146106bf57600080fd5b50565b6000813590506106d1816106ab565b92915050565b6000819050919050565b6106ea816106d7565b81146106f557600080fd5b50565b600081359050610707816106e1565b92915050565b60008060006060848603121561072657610725610674565b5b6000610734868287016106c2565b9350506020610745868287016106c2565b9250506040610756868287016106f8565b9150509250925092565b6000806040838503121561077757610776610674565b5b6000610785858286016106c2565b9250506020610796858286016106f8565b9150509250929050565b6107a9816106d7565b82525050565b60006020820190506107c460008301846107a0565b92915050565b6000602082840312156107e0576107df610674565b5b60006107ee848285016106f8565b91505092915050565b61080081610699565b82525050565b600060208201905061081b60008301846107f7565b92915050565b60006020828403121561083757610836610674565b5b6000610845848285016106c2565b91505092915050565b600082825260208201905092915050565b7f4f776e657220696e646578206973206f7574206f662072616e67652100000000600082015250565b6000610895601c8361084e565b91506108a08261085f565b602082019050919050565b600060208201905081810360008301526108c481610888565b9050919050565b7f4e487b7100000000000000000000000000000000000000000000000000000000600052603260045260246000fd5b7f4f776e657220717565727920666f72206e6f6e2d6578697374656e7420746f6b60008201527f656e000000000000000000000000000000000000000000000000000000000000602082015250565b600061095660228361084e565b9150610961826108fa565b604082019050919050565b6000602082019050818103600083015261098581610949565b9050919050565b7f496e646578206973206f7574206f662072616e67652100000000000000000000600082015250565b60006109c260168361084e565b91506109cd8261098c565b602082019050919050565b600060208201905081810360008301526109f1816109b5565b9050919050565b7f4572726f72202d20455243373231207472616e7366657220746f20746865207a60008201527f65726f2061646472657373200000000000000000000000000000000000000000602082015250565b6000610a54602c8361084e565b9150610a5f826109f8565b604082019050919050565b60006020820190508181036000830152610a8381610a47565b9050919050565b7f4572726f72202d20547279696e6720746f207472616e73666572206120746f6b60008201527f656e20746865206164647265737320646f6573206e6f74206f776e0000000000602082015250565b6000610ae6603b8361084e565b9150610af182610a8a565b604082019050919050565b60006020820190508181036000830152610b1581610ad9565b9050919050565b7f4e487b7100000000000000000000000000000000000000000000000000000000600052601160045260246000fd5b6000610b56826106d7565b9150610b61836106d7565b925082821015610b7457610b73610b1c565b5b828203905092915050565b6000610b8a826106d7565b9150610b95836106d7565b9250827fffffffffffffffffffffffffffffffffffffffffffffffffffffffffffffffff03821115610bca57610bc9610b1c565b5b82820190509291505056fea2646970667358221220cddfadabdb44cbb6a03da77d184f9249f3709375c4d621e7dd22dce20c21c09164736f6c634300080a0033",
  "immutableReferences": {},
  "source": "// SPDX-License-Identifier: MIT\npragma solidity ^0.8.0;\n\nimport './ERC721.sol';\n\ncontract ERC721Enumerable is ERC721 {\n\n    // total supply\n    uint[] private _allTokens;\n\n    // mapping from tokenId to position in _allTokens array\n    mapping(uint => uint) private _allTokensIndex;\n\n    // mapping of owner to list fo all owner token ids\n    mapping(address => uint[]) private _ownedTokens;\n\n    // mapping from token ID index of the owner tokens list\n    mapping(uint => uint) private  _ownedTokensIndex;\n\n    function _mint(address _to, uint _tokenId) internal override(ERC721) {\n        super._mint(_to, _tokenId);\n        // 1. All tokens to our totalSupply - to allTokens\n        _addTokensToAllTokensEnumeration(_tokenId);\n         // 2. add tokens to the owner\n        _addTokenToOwnerEnumeration(_to, _tokenId);\n    }\n\n    function _addTokensToAllTokensEnumeration(uint _tokenId) private {\n        // this will set up the token index\n        _allTokensIndex[_tokenId] = _allTokens.length;\n        _allTokens.push(_tokenId);\n    }\n\n    function _addTokenToOwnerEnumeration(address _to, uint tokenId) private {\n        _ownedTokens[_to].push(tokenId);\n        _ownedTokensIndex[tokenId] = _ownedTokens[_to].length;\n    }\n\n    function _tokenByIndex(uint _index) public view returns(uint) {\n        require(_index < _totalSupply(), \"Index is out of range!\");\n        return _allTokensIndex[_index];\n    }\n\n    function _tokenOfOwnerByIndex(address _owner, uint _index) public view returns(uint) {\n        require(_index < balanceOf(_owner), \"Owner index is out of range!\");\n        return _ownedTokens[_owner][_index];\n    }\n\n    function _totalSupply() public view returns(uint) {\n        return _allTokens.length;\n    }\n    \n}",
  "sourcePath": "/home/pyry/Documents/truffleProjects/Ethereum-implementation/NFT_marketplace/nft-marketplace/contracts/ERC721Enumerable.sol",
  "compiler": {
    "name": "solc",
    "version": "0.8.10+commit.fc410830.Emscripten.clang"
  },
  "schemaVersion": "3.4.7",
  "updatedAt": "2022-06-07T11:51:52.503Z",
  "devdoc": {
    "kind": "dev",
    "methods": {},
    "version": 1
  },
  "userdoc": {
    "kind": "user",
    "methods": {},
    "version": 1
  }
}