{
  "contractName": "ERC721Enumerable",
  "abi": [
    {
      "inputs": [],
      "stateMutability": "nonpayable",
      "type": "constructor"
    },
    {
      "anonymous": false,
      "inputs": [
        {
          "indexed": true,
          "internalType": "address",
          "name": "_owner",
          "type": "address"
        },
        {
          "indexed": true,
          "internalType": "address",
          "name": "_approved",
          "type": "address"
        },
        {
          "indexed": true,
          "internalType": "uint256",
          "name": "_tokenId",
          "type": "uint256"
        }
      ],
      "name": "Approval",
      "type": "event"
    },
    {
      "anonymous": false,
      "inputs": [
        {
          "indexed": true,
          "internalType": "address",
          "name": "_owner",
          "type": "address"
        },
        {
          "indexed": true,
          "internalType": "address",
          "name": "_operator",
          "type": "address"
        },
        {
          "indexed": false,
          "internalType": "bool",
          "name": "_approved",
          "type": "bool"
        }
      ],
      "name": "ApprovalForAll",
      "type": "event"
    },
    {
      "anonymous": false,
      "inputs": [
        {
          "indexed": true,
          "internalType": "address",
          "name": "_from",
          "type": "address"
        },
        {
          "indexed": true,
          "internalType": "address",
          "name": "_to",
          "type": "address"
        },
        {
          "indexed": true,
          "internalType": "uint256",
          "name": "_tokenId",
          "type": "uint256"
        }
      ],
      "name": "Transfer",
      "type": "event"
    },
    {
      "inputs": [
        {
          "internalType": "bytes4",
          "name": "interfaceID",
          "type": "bytes4"
        }
      ],
      "name": "_registerInterface",
      "outputs": [],
      "stateMutability": "nonpayable",
      "type": "function"
    },
    {
      "inputs": [
        {
          "internalType": "address",
          "name": "to",
          "type": "address"
        },
        {
          "internalType": "uint256",
          "name": "tokenId",
          "type": "uint256"
        }
      ],
      "name": "approve",
      "outputs": [],
      "stateMutability": "payable",
      "type": "function"
    },
    {
      "inputs": [
        {
          "internalType": "address",
          "name": "_owner",
          "type": "address"
        }
      ],
      "name": "balanceOf",
      "outputs": [
        {
          "internalType": "uint256",
          "name": "",
          "type": "uint256"
        }
      ],
      "stateMutability": "view",
      "type": "function"
    },
    {
      "inputs": [
        {
          "internalType": "uint256",
          "name": "tokenId",
          "type": "uint256"
        }
      ],
      "name": "getApproved",
      "outputs": [
        {
          "internalType": "address",
          "name": "",
          "type": "address"
        }
      ],
      "stateMutability": "view",
      "type": "function"
    },
    {
      "inputs": [
        {
          "internalType": "address",
          "name": "owner",
          "type": "address"
        },
        {
          "internalType": "address",
          "name": "operator",
          "type": "address"
        }
      ],
      "name": "isApprovedForAll",
      "outputs": [
        {
          "internalType": "bool",
          "name": "",
          "type": "bool"
        }
      ],
      "stateMutability": "view",
      "type": "function"
    },
    {
      "inputs": [
        {
          "internalType": "uint256",
          "name": "_tokenId",
          "type": "uint256"
        }
      ],
      "name": "ownerOf",
      "outputs": [
        {
          "internalType": "address",
          "name": "",
          "type": "address"
        }
      ],
      "stateMutability": "view",
      "type": "function"
    },
    {
      "inputs": [
        {
          "internalType": "address",
          "name": "operator",
          "type": "address"
        },
        {
          "internalType": "bool",
          "name": "approved",
          "type": "bool"
        }
      ],
      "name": "setApprovalForAll",
      "outputs": [],
      "stateMutability": "nonpayable",
      "type": "function"
    },
    {
      "inputs": [
        {
          "internalType": "bytes4",
          "name": "interfaceID",
          "type": "bytes4"
        }
      ],
      "name": "supportsInterface",
      "outputs": [
        {
          "internalType": "bool",
          "name": "",
          "type": "bool"
        }
      ],
      "stateMutability": "view",
      "type": "function"
    },
    {
      "inputs": [
        {
          "internalType": "address",
          "name": "from",
          "type": "address"
        },
        {
          "internalType": "address",
          "name": "to",
          "type": "address"
        },
        {
          "internalType": "uint256",
          "name": "tokenId",
          "type": "uint256"
        }
      ],
      "name": "transferFrom",
      "outputs": [],
      "stateMutability": "nonpayable",
      "type": "function"
    },
    {
      "inputs": [
        {
          "internalType": "uint256",
          "name": "_index",
          "type": "uint256"
        }
      ],
      "name": "tokenByIndex",
      "outputs": [
        {
          "internalType": "uint256",
          "name": "",
          "type": "uint256"
        }
      ],
      "stateMutability": "view",
      "type": "function"
    },
    {
      "inputs": [
        {
          "internalType": "address",
          "name": "_owner",
          "type": "address"
        },
        {
          "internalType": "uint256",
          "name": "_index",
          "type": "uint256"
        }
      ],
      "name": "tokenOfOwnerByIndex",
      "outputs": [
        {
          "internalType": "uint256",
          "name": "",
          "type": "uint256"
        }
      ],
      "stateMutability": "view",
      "type": "function"
    },
    {
      "inputs": [],
      "name": "totalSupply",
      "outputs": [
        {
          "internalType": "uint256",
          "name": "",
          "type": "uint256"
        }
      ],
      "stateMutability": "view",
      "type": "function"
    }
  ],
  "bytecode": "0x60806040523480156200001157600080fd5b50620000437f01ffc9a7a5cef8baa21ed3c5c0d7e23accb804b619e9333b597f47a0d84076e2620002b360201b60201c565b620001fa7fe0c9b09697cad3aa3f2bcb7fdd781becaefa478990b24e83d3bfdb65623d77537bffffffffffffffffffffffffffffffffffffffffffffffffffffffff19167f5af227006b8981efabb10af200ab71f08976cbce54b4c59ae5c97811d19a398c187bffffffffffffffffffffffffffffffffffffffffffffffffffffffff19167f90dba0bef8387ab29f95a1abead857c8ccc338f1038f6fa159fa78fd18aff9f7187bffffffffffffffffffffffffffffffffffffffffffffffffffffffff19167f8c51fd5fcf1f456ec4eb0f32f68d83471264fe082fac12bcbfd2fa4be9eed6c7187bffffffffffffffffffffffffffffffffffffffffffffffffffffffff19167f3a6eb71757dfc6e784c1459d26270140c2c147d95ca985c80026fc5301c3eca1187bffffffffffffffffffffffffffffffffffffffffffffffffffffffff19167f8a7e378434598edc36d108689a030cbc9d7d465de4f74c71bae1028eed6a881b187bffffffffffffffffffffffffffffffffffffffffffffffffffffffff19167f01ffc9a7a5cef8baa21ed3c5c0d7e23accb804b619e9333b597f47a0d84076e218620002b360201b60201c565b620002ad7f8230223f691b981717299fae9549350a0d894555723531f02108b1f522c1a7977bffffffffffffffffffffffffffffffffffffffffffffffffffffffff19167f6da5e1284143cdd2d15038a59bde3be031250f00291d64494c12d967b3a4e0c3187bffffffffffffffffffffffffffffffffffffffffffffffffffffffff19167fc53637662700e6c65104059db8bba34439e0c32483ab7c34e3ccae52c739549518620002b360201b60201c565b62000434565b63ffffffff60e01b817bffffffffffffffffffffffffffffffffffffffffffffffffffffffff191614156200031f576040517f08c379a0000000000000000000000000000000000000000000000000000000008152600401620003169062000412565b60405180910390fd5b6001600080837bffffffffffffffffffffffffffffffffffffffffffffffffffffffff19167bffffffffffffffffffffffffffffffffffffffffffffffffffffffff1916815260200190815260200160002060006101000a81548160ff02191690831515021790555050565b600082825260208201905092915050565b7f4572726f72202d204552433136353a20496e76616c696420696e74657266616360008201527f6500000000000000000000000000000000000000000000000000000000000000602082015250565b6000620003fa6021836200038b565b915062000407826200039c565b604082019050919050565b600060208201905081810360008301526200042d81620003eb565b9050919050565b6119a280620004446000396000f3fe6080604052600436106100a75760003560e01c80632f745c59116100645780632f745c59146101bf5780634f6ccce7146101fc5780636352211e1461023957806370a0823114610276578063a22cb465146102b3578063e985e9c5146102dc576100a7565b806301ffc9a7146100ac578063068417d9146100e9578063081812fc14610112578063095ea7b31461014f57806318160ddd1461016b57806323b872dd14610196575b600080fd5b3480156100b857600080fd5b506100d360048036038101906100ce9190610f4f565b610319565b6040516100e09190610f97565b60405180910390f35b3480156100f557600080fd5b50610110600480360381019061010b9190610f4f565b610380565b005b34801561011e57600080fd5b5061013960048036038101906101349190610fe8565b610455565b6040516101469190611056565b60405180910390f35b6101696004803603810190610164919061109d565b6104da565b005b34801561017757600080fd5b50610180610676565b60405161018d91906110ec565b60405180910390f35b3480156101a257600080fd5b506101bd60048036038101906101b89190611107565b610683565b005b3480156101cb57600080fd5b506101e660048036038101906101e1919061109d565b6106dc565b6040516101f391906110ec565b60405180910390f35b34801561020857600080fd5b50610223600480360381019061021e9190610fe8565b61078c565b60405161023091906110ec565b60405180910390f35b34801561024557600080fd5b50610260600480360381019061025b9190610fe8565b6107f2565b60405161026d9190611056565b60405180910390f35b34801561028257600080fd5b5061029d6004803603810190610298919061115a565b6108a4565b6040516102aa91906110ec565b60405180910390f35b3480156102bf57600080fd5b506102da60048036038101906102d591906111b3565b61095c565b005b3480156102e857600080fd5b5061030360048036038101906102fe91906111f3565b610ac8565b6040516103109190610f97565b60405180910390f35b6000806000837bffffffffffffffffffffffffffffffffffffffffffffffffffffffff19167bffffffffffffffffffffffffffffffffffffffffffffffffffffffff1916815260200190815260200160002060009054906101000a900460ff169050919050565b63ffffffff60e01b817bffffffffffffffffffffffffffffffffffffffffffffffffffffffff191614156103e9576040517f08c379a00000000000000000000000000000000000000000000000000000000081526004016103e0906112b6565b60405180910390fd5b6001600080837bffffffffffffffffffffffffffffffffffffffffffffffffffffffff19167bffffffffffffffffffffffffffffffffffffffffffffffffffffffff1916815260200190815260200160002060006101000a81548160ff02191690831515021790555050565b600061046082610b5c565b61049f576040517f08c379a000000000000000000000000000000000000000000000000000000000815260040161049690611348565b60405180910390fd5b6003600083815260200190815260200160002060009054906101000a900473ffffffffffffffffffffffffffffffffffffffff169050919050565b60006104e5826107f2565b90508073ffffffffffffffffffffffffffffffffffffffff168373ffffffffffffffffffffffffffffffffffffffff161415610556576040517f08c379a000000000000000000000000000000000000000000000000000000000815260040161054d906113da565b60405180910390fd5b8073ffffffffffffffffffffffffffffffffffffffff163373ffffffffffffffffffffffffffffffffffffffff16146105c4576040517f08c379a00000000000000000000000000000000000000000000000000000000081526004016105bb9061146c565b60405180910390fd5b826003600084815260200190815260200160002060006101000a81548173ffffffffffffffffffffffffffffffffffffffff021916908373ffffffffffffffffffffffffffffffffffffffff160217905550818373ffffffffffffffffffffffffffffffffffffffff168273ffffffffffffffffffffffffffffffffffffffff167f8c5be1e5ebec7d5bd14f71427d1e84f3dd0314c0f7b2291e5b200ac8c7c3b92560405160405180910390a4505050565b6000600580549050905090565b61068d3382610bce565b6106cc576040517f08c379a00000000000000000000000000000000000000000000000000000000081526004016106c3906114fe565b60405180910390fd5b6106d7838383610cac565b505050565b60006106e7836108a4565b8210610728576040517f08c379a000000000000000000000000000000000000000000000000000000000815260040161071f9061156a565b60405180910390fd5b600760008473ffffffffffffffffffffffffffffffffffffffff1673ffffffffffffffffffffffffffffffffffffffff16815260200190815260200160002082815481106107795761077861158a565b5b9060005260206000200154905092915050565b6000610796610676565b82106107d7576040517f08c379a00000000000000000000000000000000000000000000000000000000081526004016107ce90611605565b60405180910390fd5b60066000838152602001908152602001600020549050919050565b6000806001600084815260200190815260200160002060009054906101000a900473ffffffffffffffffffffffffffffffffffffffff169050600073ffffffffffffffffffffffffffffffffffffffff168173ffffffffffffffffffffffffffffffffffffffff16141561089b576040517f08c379a000000000000000000000000000000000000000000000000000000000815260040161089290611697565b60405180910390fd5b80915050919050565b60008073ffffffffffffffffffffffffffffffffffffffff168273ffffffffffffffffffffffffffffffffffffffff161415610915576040517f08c379a000000000000000000000000000000000000000000000000000000000815260040161090c90611697565b60405180910390fd5b600260008373ffffffffffffffffffffffffffffffffffffffff1673ffffffffffffffffffffffffffffffffffffffff168152602001908152602001600020549050919050565b3373ffffffffffffffffffffffffffffffffffffffff168273ffffffffffffffffffffffffffffffffffffffff1614156109cb576040517f08c379a00000000000000000000000000000000000000000000000000000000081526004016109c290611703565b60405180910390fd5b80600460003373ffffffffffffffffffffffffffffffffffffffff1673ffffffffffffffffffffffffffffffffffffffff16815260200190815260200160002060008473ffffffffffffffffffffffffffffffffffffffff1673ffffffffffffffffffffffffffffffffffffffff16815260200190815260200160002060006101000a81548160ff0219169083151502179055508173ffffffffffffffffffffffffffffffffffffffff163373ffffffffffffffffffffffffffffffffffffffff167f17307eab39ab6107e8899845ad3d59bd9653f200f220920489ca2b5937696c3183604051610abc9190610f97565b60405180910390a35050565b6000600460008473ffffffffffffffffffffffffffffffffffffffff1673ffffffffffffffffffffffffffffffffffffffff16815260200190815260200160002060008373ffffffffffffffffffffffffffffffffffffffff1673ffffffffffffffffffffffffffffffffffffffff16815260200190815260200160002060009054906101000a900460ff16905092915050565b6000806001600084815260200190815260200160002060009054906101000a900473ffffffffffffffffffffffffffffffffffffffff169050600073ffffffffffffffffffffffffffffffffffffffff168173ffffffffffffffffffffffffffffffffffffffff161415915050919050565b6000610bd982610b5c565b610c18576040517f08c379a0000000000000000000000000000000000000000000000000000000008152600401610c0f9061176f565b60405180910390fd5b6000610c23836107f2565b90508073ffffffffffffffffffffffffffffffffffffffff168473ffffffffffffffffffffffffffffffffffffffff161480610c925750610c6383610455565b73ffffffffffffffffffffffffffffffffffffffff168473ffffffffffffffffffffffffffffffffffffffff16145b80610ca35750610ca28185610ac8565b5b91505092915050565b600073ffffffffffffffffffffffffffffffffffffffff168273ffffffffffffffffffffffffffffffffffffffff161415610d1c576040517f08c379a0000000000000000000000000000000000000000000000000000000008152600401610d1390611801565b60405180910390fd5b8273ffffffffffffffffffffffffffffffffffffffff16610d3c826107f2565b73ffffffffffffffffffffffffffffffffffffffff1614610d92576040517f08c379a0000000000000000000000000000000000000000000000000000000008152600401610d8990611893565b60405180910390fd5b6001600260008573ffffffffffffffffffffffffffffffffffffffff1673ffffffffffffffffffffffffffffffffffffffff1681526020019081526020016000206000828254610de291906118e2565b925050819055506001600260008473ffffffffffffffffffffffffffffffffffffffff1673ffffffffffffffffffffffffffffffffffffffff1681526020019081526020016000206000828254610e399190611916565b92505081905550816001600083815260200190815260200160002060006101000a81548173ffffffffffffffffffffffffffffffffffffffff021916908373ffffffffffffffffffffffffffffffffffffffff160217905550808273ffffffffffffffffffffffffffffffffffffffff168473ffffffffffffffffffffffffffffffffffffffff167fddf252ad1be2c89b69c2b068fc378daa952ba7f163c4a11628f55a4df523b3ef60405160405180910390a4505050565b600080fd5b60007fffffffff0000000000000000000000000000000000000000000000000000000082169050919050565b610f2c81610ef7565b8114610f3757600080fd5b50565b600081359050610f4981610f23565b92915050565b600060208284031215610f6557610f64610ef2565b5b6000610f7384828501610f3a565b91505092915050565b60008115159050919050565b610f9181610f7c565b82525050565b6000602082019050610fac6000830184610f88565b92915050565b6000819050919050565b610fc581610fb2565b8114610fd057600080fd5b50565b600081359050610fe281610fbc565b92915050565b600060208284031215610ffe57610ffd610ef2565b5b600061100c84828501610fd3565b91505092915050565b600073ffffffffffffffffffffffffffffffffffffffff82169050919050565b600061104082611015565b9050919050565b61105081611035565b82525050565b600060208201905061106b6000830184611047565b92915050565b61107a81611035565b811461108557600080fd5b50565b60008135905061109781611071565b92915050565b600080604083850312156110b4576110b3610ef2565b5b60006110c285828601611088565b92505060206110d385828601610fd3565b9150509250929050565b6110e681610fb2565b82525050565b600060208201905061110160008301846110dd565b92915050565b6000806000606084860312156111205761111f610ef2565b5b600061112e86828701611088565b935050602061113f86828701611088565b925050604061115086828701610fd3565b9150509250925092565b6000602082840312156111705761116f610ef2565b5b600061117e84828501611088565b91505092915050565b61119081610f7c565b811461119b57600080fd5b50565b6000813590506111ad81611187565b92915050565b600080604083850312156111ca576111c9610ef2565b5b60006111d885828601611088565b92505060206111e98582860161119e565b9150509250929050565b6000806040838503121561120a57611209610ef2565b5b600061121885828601611088565b925050602061122985828601611088565b9150509250929050565b600082825260208201905092915050565b7f4572726f72202d204552433136353a20496e76616c696420696e74657266616360008201527f6500000000000000000000000000000000000000000000000000000000000000602082015250565b60006112a0602183611233565b91506112ab82611244565b604082019050919050565b600060208201905081810360008301526112cf81611293565b9050919050565b7f4552433732313a20617070726f76656420717565727920666f72206e6f6e657860008201527f697374656e7420746f6b656e0000000000000000000000000000000000000000602082015250565b6000611332602c83611233565b915061133d826112d6565b604082019050919050565b6000602082019050818103600083015261136181611325565b9050919050565b7f4572726f72202d20617070726f76616c20746f2063757272656e74206f776e6560008201527f7200000000000000000000000000000000000000000000000000000000000000602082015250565b60006113c4602183611233565b91506113cf82611368565b604082019050919050565b600060208201905081810360008301526113f3816113b7565b9050919050565b7f4572726f72202d2043757272656e742063616c6c6572206973206e6f7420746860008201527f65206f776e6572206f662074686520746f6b656e000000000000000000000000602082015250565b6000611456603483611233565b9150611461826113fa565b604082019050919050565b6000602082019050818103600083015261148581611449565b9050919050565b7f4572726f72202d2049742773206e6f7420617070726f766564206f72206f776e60008201527f6572000000000000000000000000000000000000000000000000000000000000602082015250565b60006114e8602283611233565b91506114f38261148c565b604082019050919050565b60006020820190508181036000830152611517816114db565b9050919050565b7f4f776e657220696e646578206973206f7574206f662072616e67652100000000600082015250565b6000611554601c83611233565b915061155f8261151e565b602082019050919050565b6000602082019050818103600083015261158381611547565b9050919050565b7f4e487b7100000000000000000000000000000000000000000000000000000000600052603260045260246000fd5b7f496e646578206973206f7574206f662072616e67652100000000000000000000600082015250565b60006115ef601683611233565b91506115fa826115b9565b602082019050919050565b6000602082019050818103600083015261161e816115e2565b9050919050565b7f4572726f72202d204f776e657220717565727920666f72206e6f6e2d6578697360008201527f74656e7420746f6b656e00000000000000000000000000000000000000000000602082015250565b6000611681602a83611233565b915061168c82611625565b604082019050919050565b600060208201905081810360008301526116b081611674565b9050919050565b7f4552433732313a20617070726f766520746f2063616c6c657200000000000000600082015250565b60006116ed601983611233565b91506116f8826116b7565b602082019050919050565b6000602082019050818103600083015261171c816116e0565b9050919050565b7f546f6b656e20646f6573206e6f74206578697374000000000000000000000000600082015250565b6000611759601483611233565b915061176482611723565b602082019050919050565b600060208201905081810360008301526117888161174c565b9050919050565b7f4572726f72202d20455243373231207472616e7366657220746f20746865207a60008201527f65726f2061646472657373200000000000000000000000000000000000000000602082015250565b60006117eb602c83611233565b91506117f68261178f565b604082019050919050565b6000602082019050818103600083015261181a816117de565b9050919050565b7f4572726f72202d20547279696e6720746f207472616e73666572206120746f6b60008201527f656e20746865206164647265737320646f6573206e6f74206f776e0000000000602082015250565b600061187d603b83611233565b915061188882611821565b604082019050919050565b600060208201905081810360008301526118ac81611870565b9050919050565b7f4e487b7100000000000000000000000000000000000000000000000000000000600052601160045260246000fd5b60006118ed82610fb2565b91506118f883610fb2565b92508282101561190b5761190a6118b3565b5b828203905092915050565b600061192182610fb2565b915061192c83610fb2565b9250827fffffffffffffffffffffffffffffffffffffffffffffffffffffffffffffffff03821115611961576119606118b3565b5b82820190509291505056fea2646970667358221220f6cda3c5c6b36e682fc7314fb7db6835814d93795b2fac957094776cf0fa9bd164736f6c634300080a0033",
  "immutableReferences": {},
  "source": "// SPDX-License-Identifier: MIT\npragma solidity ^0.8.0;\n\nimport './ERC721.sol';\nimport './interfaces/IERC721Enumerable.sol';\n\ncontract ERC721Enumerable is IERC721Enumerable, ERC721 {\n\n    // total supply\n    uint[] private _allTokens;\n\n    // mapping from tokenId to position in _allTokens array\n    mapping(uint => uint) private _allTokensIndex;\n\n    // mapping of owner to list fo all owner token ids\n    mapping(address => uint[]) private _ownedTokens;\n\n    // mapping from token ID index of the owner tokens list\n    mapping(uint => uint) private  _ownedTokensIndex;\n\n    constructor() {\n        _registerInterface(bytes4(keccak256('totalSupply(bytes4)')^\n                            bytes4(keccak256('tokenByIndex(bytes4)')^\n                            bytes4(keccak256('tokenOfOwnerByIndex(bytes4)')))));\n    }\n\n    function _mint(address _to, uint _tokenId) internal override(ERC721) {\n        super._mint(_to, _tokenId);\n        // 1. All tokens to our totalSupply - to allTokens\n        _addTokensToAllTokensEnumeration(_tokenId);\n         // 2. add tokens to the owner\n        _addTokenToOwnerEnumeration(_to, _tokenId);\n    }\n\n    function _addTokensToAllTokensEnumeration(uint _tokenId) private {\n        // this will set up the token index\n        _allTokensIndex[_tokenId] = _allTokens.length;\n        _allTokens.push(_tokenId);\n    }\n\n    function _addTokenToOwnerEnumeration(address _to, uint tokenId) private {\n        _ownedTokens[_to].push(tokenId);\n        _ownedTokensIndex[tokenId] = _ownedTokens[_to].length;\n    }\n\n    function tokenByIndex(uint _index) public view override returns(uint) {\n        require(_index < totalSupply(), \"Index is out of range!\");\n        return _allTokensIndex[_index];\n    }\n\n    function tokenOfOwnerByIndex(address _owner, uint _index) public view override returns(uint) {\n        require(_index < balanceOf(_owner), \"Owner index is out of range!\");\n        return _ownedTokens[_owner][_index];\n    }\n\n    function totalSupply() public view override returns(uint) {\n        return _allTokens.length;\n    }\n    \n}",
  "sourcePath": "/home/pyry/Documents/truffleProjects/Ethereum-implementation/NFT_marketplace/nft-marketplace/contracts/ERC721Enumerable.sol",
  "compiler": {
    "name": "solc",
    "version": "0.8.10+commit.fc410830.Emscripten.clang"
  },
  "schemaVersion": "3.4.7",
  "updatedAt": "2022-06-09T14:31:36.382Z",
  "devdoc": {
    "kind": "dev",
    "methods": {
      "balanceOf(address)": {
        "details": "NFTs assigned to the zero address are considered invalid, and this  function throws for queries about the zero address.",
        "params": {
          "_owner": "An address for whom to query the balance"
        },
        "returns": {
          "_0": "The number of NFTs owned by `_owner`, possibly zero"
        }
      },
      "supportsInterface(bytes4)": {
        "details": "Interface identification is specified in ERC-165. This function  uses less than 30,000 gas.",
        "params": {
          "interfaceID": "The interface identifier, as specified in ERC-165"
        },
        "returns": {
          "_0": "`true` if the contract implements `interfaceID` and  `interfaceID` is not 0xffffffff, `false` otherwise"
        }
      }
    },
    "version": 1
  },
  "userdoc": {
    "kind": "user",
    "methods": {
      "balanceOf(address)": {
        "notice": "Count all NFTs assigned to an owner"
      },
      "supportsInterface(bytes4)": {
        "notice": "Query if a contract implements an interface"
      }
    },
    "version": 1
  }
}