{
  "contractName": "ERC721Connector",
  "abi": [
    {
      "inputs": [
        {
          "internalType": "string",
          "name": "name",
          "type": "string"
        },
        {
          "internalType": "string",
          "name": "symbol",
          "type": "string"
        }
      ],
      "stateMutability": "nonpayable",
      "type": "constructor"
    },
    {
      "anonymous": false,
      "inputs": [
        {
          "indexed": true,
          "internalType": "address",
          "name": "_owner",
          "type": "address"
        },
        {
          "indexed": true,
          "internalType": "address",
          "name": "_approved",
          "type": "address"
        },
        {
          "indexed": true,
          "internalType": "uint256",
          "name": "_tokenId",
          "type": "uint256"
        }
      ],
      "name": "Approval",
      "type": "event"
    },
    {
      "anonymous": false,
      "inputs": [
        {
          "indexed": true,
          "internalType": "address",
          "name": "_owner",
          "type": "address"
        },
        {
          "indexed": true,
          "internalType": "address",
          "name": "_operator",
          "type": "address"
        },
        {
          "indexed": false,
          "internalType": "bool",
          "name": "_approved",
          "type": "bool"
        }
      ],
      "name": "ApprovalForAll",
      "type": "event"
    },
    {
      "anonymous": false,
      "inputs": [
        {
          "indexed": true,
          "internalType": "address",
          "name": "_from",
          "type": "address"
        },
        {
          "indexed": true,
          "internalType": "address",
          "name": "_to",
          "type": "address"
        },
        {
          "indexed": true,
          "internalType": "uint256",
          "name": "_tokenId",
          "type": "uint256"
        }
      ],
      "name": "Transfer",
      "type": "event"
    },
    {
      "inputs": [
        {
          "internalType": "bytes4",
          "name": "interfaceID",
          "type": "bytes4"
        }
      ],
      "name": "_registerInterface",
      "outputs": [],
      "stateMutability": "nonpayable",
      "type": "function"
    },
    {
      "inputs": [
        {
          "internalType": "address",
          "name": "to",
          "type": "address"
        },
        {
          "internalType": "uint256",
          "name": "tokenId",
          "type": "uint256"
        }
      ],
      "name": "approve",
      "outputs": [],
      "stateMutability": "payable",
      "type": "function"
    },
    {
      "inputs": [
        {
          "internalType": "address",
          "name": "_owner",
          "type": "address"
        }
      ],
      "name": "balanceOf",
      "outputs": [
        {
          "internalType": "uint256",
          "name": "",
          "type": "uint256"
        }
      ],
      "stateMutability": "view",
      "type": "function"
    },
    {
      "inputs": [
        {
          "internalType": "uint256",
          "name": "tokenId",
          "type": "uint256"
        }
      ],
      "name": "getApproved",
      "outputs": [
        {
          "internalType": "address",
          "name": "",
          "type": "address"
        }
      ],
      "stateMutability": "view",
      "type": "function"
    },
    {
      "inputs": [
        {
          "internalType": "address",
          "name": "owner",
          "type": "address"
        },
        {
          "internalType": "address",
          "name": "operator",
          "type": "address"
        }
      ],
      "name": "isApprovedForAll",
      "outputs": [
        {
          "internalType": "bool",
          "name": "",
          "type": "bool"
        }
      ],
      "stateMutability": "view",
      "type": "function"
    },
    {
      "inputs": [],
      "name": "name",
      "outputs": [
        {
          "internalType": "string",
          "name": "",
          "type": "string"
        }
      ],
      "stateMutability": "view",
      "type": "function"
    },
    {
      "inputs": [
        {
          "internalType": "uint256",
          "name": "_tokenId",
          "type": "uint256"
        }
      ],
      "name": "ownerOf",
      "outputs": [
        {
          "internalType": "address",
          "name": "",
          "type": "address"
        }
      ],
      "stateMutability": "view",
      "type": "function"
    },
    {
      "inputs": [
        {
          "internalType": "address",
          "name": "operator",
          "type": "address"
        },
        {
          "internalType": "bool",
          "name": "approved",
          "type": "bool"
        }
      ],
      "name": "setApprovalForAll",
      "outputs": [],
      "stateMutability": "nonpayable",
      "type": "function"
    },
    {
      "inputs": [
        {
          "internalType": "bytes4",
          "name": "interfaceID",
          "type": "bytes4"
        }
      ],
      "name": "supportsInterface",
      "outputs": [
        {
          "internalType": "bool",
          "name": "",
          "type": "bool"
        }
      ],
      "stateMutability": "view",
      "type": "function"
    },
    {
      "inputs": [],
      "name": "symbol",
      "outputs": [
        {
          "internalType": "string",
          "name": "",
          "type": "string"
        }
      ],
      "stateMutability": "view",
      "type": "function"
    },
    {
      "inputs": [
        {
          "internalType": "uint256",
          "name": "_index",
          "type": "uint256"
        }
      ],
      "name": "tokenByIndex",
      "outputs": [
        {
          "internalType": "uint256",
          "name": "",
          "type": "uint256"
        }
      ],
      "stateMutability": "view",
      "type": "function"
    },
    {
      "inputs": [
        {
          "internalType": "address",
          "name": "_owner",
          "type": "address"
        },
        {
          "internalType": "uint256",
          "name": "_index",
          "type": "uint256"
        }
      ],
      "name": "tokenOfOwnerByIndex",
      "outputs": [
        {
          "internalType": "uint256",
          "name": "",
          "type": "uint256"
        }
      ],
      "stateMutability": "view",
      "type": "function"
    },
    {
      "inputs": [],
      "name": "totalSupply",
      "outputs": [
        {
          "internalType": "uint256",
          "name": "",
          "type": "uint256"
        }
      ],
      "stateMutability": "view",
      "type": "function"
    },
    {
      "inputs": [
        {
          "internalType": "address",
          "name": "from",
          "type": "address"
        },
        {
          "internalType": "address",
          "name": "to",
          "type": "address"
        },
        {
          "internalType": "uint256",
          "name": "tokenId",
          "type": "uint256"
        }
      ],
      "name": "transferFrom",
      "outputs": [],
      "stateMutability": "nonpayable",
      "type": "function"
    }
  ],
  "bytecode": "0x60806040523480156200001157600080fd5b50604051620024a7380380620024a78339818101604052810190620000379190620006a7565b81816200006a7f01ffc9a7a5cef8baa21ed3c5c0d7e23accb804b619e9333b597f47a0d84076e26200038260201b60201c565b620000dc7f13b182f4c0e5b2efbac0efe6cf6d756c8b89f4b79c5707a043ed9ea740574ee97bffffffffffffffffffffffffffffffffffffffffffffffffffffffff19167f7feaf19471f34a12a7eaf32d5f3090aa2260ea8624dc8a138e74e0bf0f623076186200038260201b60201c565b8160019080519060200190620000f49291906200045a565b5080600290805190602001906200010d9291906200045a565b505050620002c77fe0c9b09697cad3aa3f2bcb7fdd781becaefa478990b24e83d3bfdb65623d77537bffffffffffffffffffffffffffffffffffffffffffffffffffffffff19167f5af227006b8981efabb10af200ab71f08976cbce54b4c59ae5c97811d19a398c187bffffffffffffffffffffffffffffffffffffffffffffffffffffffff19167f90dba0bef8387ab29f95a1abead857c8ccc338f1038f6fa159fa78fd18aff9f7187bffffffffffffffffffffffffffffffffffffffffffffffffffffffff19167f8c51fd5fcf1f456ec4eb0f32f68d83471264fe082fac12bcbfd2fa4be9eed6c7187bffffffffffffffffffffffffffffffffffffffffffffffffffffffff19167f3a6eb71757dfc6e784c1459d26270140c2c147d95ca985c80026fc5301c3eca1187bffffffffffffffffffffffffffffffffffffffffffffffffffffffff19167f8a7e378434598edc36d108689a030cbc9d7d465de4f74c71bae1028eed6a881b187bffffffffffffffffffffffffffffffffffffffffffffffffffffffff19167f01ffc9a7a5cef8baa21ed3c5c0d7e23accb804b619e9333b597f47a0d84076e2186200038260201b60201c565b6200037a7f8230223f691b981717299fae9549350a0d894555723531f02108b1f522c1a7977bffffffffffffffffffffffffffffffffffffffffffffffffffffffff19167f6da5e1284143cdd2d15038a59bde3be031250f00291d64494c12d967b3a4e0c3187bffffffffffffffffffffffffffffffffffffffffffffffffffffffff19167fc53637662700e6c65104059db8bba34439e0c32483ab7c34e3ccae52c7395495186200038260201b60201c565b50506200083a565b63ffffffff60e01b817bffffffffffffffffffffffffffffffffffffffffffffffffffffffff19161415620003ee576040517f08c379a0000000000000000000000000000000000000000000000000000000008152600401620003e590620007b3565b60405180910390fd5b6001600080837bffffffffffffffffffffffffffffffffffffffffffffffffffffffff19167bffffffffffffffffffffffffffffffffffffffffffffffffffffffff1916815260200190815260200160002060006101000a81548160ff02191690831515021790555050565b828054620004689062000804565b90600052602060002090601f0160209004810192826200048c5760008555620004d8565b82601f10620004a757805160ff1916838001178555620004d8565b82800160010185558215620004d8579182015b82811115620004d7578251825591602001919060010190620004ba565b5b509050620004e79190620004eb565b5090565b5b8082111562000506576000816000905550600101620004ec565b5090565b6000604051905090565b600080fd5b600080fd5b600080fd5b600080fd5b6000601f19601f8301169050919050565b7f4e487b7100000000000000000000000000000000000000000000000000000000600052604160045260246000fd5b620005738262000528565b810181811067ffffffffffffffff8211171562000595576200059462000539565b5b80604052505050565b6000620005aa6200050a565b9050620005b8828262000568565b919050565b600067ffffffffffffffff821115620005db57620005da62000539565b5b620005e68262000528565b9050602081019050919050565b60005b8381101562000613578082015181840152602081019050620005f6565b8381111562000623576000848401525b50505050565b6000620006406200063a84620005bd565b6200059e565b9050828152602081018484840111156200065f576200065e62000523565b5b6200066c848285620005f3565b509392505050565b600082601f8301126200068c576200068b6200051e565b5b81516200069e84826020860162000629565b91505092915050565b60008060408385031215620006c157620006c062000514565b5b600083015167ffffffffffffffff811115620006e257620006e162000519565b5b620006f08582860162000674565b925050602083015167ffffffffffffffff81111562000714576200071362000519565b5b620007228582860162000674565b9150509250929050565b600082825260208201905092915050565b7f4572726f72202d204552433136353a20496e76616c696420696e74657266616360008201527f6500000000000000000000000000000000000000000000000000000000000000602082015250565b60006200079b6021836200072c565b9150620007a8826200073d565b604082019050919050565b60006020820190508181036000830152620007ce816200078c565b9050919050565b7f4e487b7100000000000000000000000000000000000000000000000000000000600052602260045260246000fd5b600060028204905060018216806200081d57607f821691505b60208210811415620008345762000833620007d5565b5b50919050565b611c5d806200084a6000396000f3fe6080604052600436106100dd5760003560e01c80632f745c591161007f57806370a082311161005957806370a08231146102d757806395d89b4114610314578063a22cb4651461033f578063e985e9c514610368576100dd565b80632f745c59146102205780634f6ccce71461025d5780636352211e1461029a576100dd565b8063081812fc116100bb578063081812fc14610173578063095ea7b3146101b057806318160ddd146101cc57806323b872dd146101f7576100dd565b806301ffc9a7146100e2578063068417d91461011f57806306fdde0314610148575b600080fd5b3480156100ee57600080fd5b50610109600480360381019061010491906110ff565b6103a5565b6040516101169190611147565b60405180910390f35b34801561012b57600080fd5b50610146600480360381019061014191906110ff565b61040c565b005b34801561015457600080fd5b5061015d6104e1565b60405161016a91906111fb565b60405180910390f35b34801561017f57600080fd5b5061019a60048036038101906101959190611253565b610573565b6040516101a791906112c1565b60405180910390f35b6101ca60048036038101906101c59190611308565b6105f8565b005b3480156101d857600080fd5b506101e1610794565b6040516101ee9190611357565b60405180910390f35b34801561020357600080fd5b5061021e60048036038101906102199190611372565b6107a1565b005b34801561022c57600080fd5b5061024760048036038101906102429190611308565b6107fa565b6040516102549190611357565b60405180910390f35b34801561026957600080fd5b50610284600480360381019061027f9190611253565b6108aa565b6040516102919190611357565b60405180910390f35b3480156102a657600080fd5b506102c160048036038101906102bc9190611253565b610910565b6040516102ce91906112c1565b60405180910390f35b3480156102e357600080fd5b506102fe60048036038101906102f991906113c5565b6109c2565b60405161030b9190611357565b60405180910390f35b34801561032057600080fd5b50610329610a7a565b60405161033691906111fb565b60405180910390f35b34801561034b57600080fd5b506103666004803603810190610361919061141e565b610b0c565b005b34801561037457600080fd5b5061038f600480360381019061038a919061145e565b610c78565b60405161039c9190611147565b60405180910390f35b6000806000837bffffffffffffffffffffffffffffffffffffffffffffffffffffffff19167bffffffffffffffffffffffffffffffffffffffffffffffffffffffff1916815260200190815260200160002060009054906101000a900460ff169050919050565b63ffffffff60e01b817bffffffffffffffffffffffffffffffffffffffffffffffffffffffff19161415610475576040517f08c379a000000000000000000000000000000000000000000000000000000000815260040161046c90611510565b60405180910390fd5b6001600080837bffffffffffffffffffffffffffffffffffffffffffffffffffffffff19167bffffffffffffffffffffffffffffffffffffffffffffffffffffffff1916815260200190815260200160002060006101000a81548160ff02191690831515021790555050565b6060600180546104f09061155f565b80601f016020809104026020016040519081016040528092919081815260200182805461051c9061155f565b80156105695780601f1061053e57610100808354040283529160200191610569565b820191906000526020600020905b81548152906001019060200180831161054c57829003601f168201915b5050505050905090565b600061057e82610d0c565b6105bd576040517f08c379a00000000000000000000000000000000000000000000000000000000081526004016105b490611603565b60405180910390fd5b6005600083815260200190815260200160002060009054906101000a900473ffffffffffffffffffffffffffffffffffffffff169050919050565b600061060382610910565b90508073ffffffffffffffffffffffffffffffffffffffff168373ffffffffffffffffffffffffffffffffffffffff161415610674576040517f08c379a000000000000000000000000000000000000000000000000000000000815260040161066b90611695565b60405180910390fd5b8073ffffffffffffffffffffffffffffffffffffffff163373ffffffffffffffffffffffffffffffffffffffff16146106e2576040517f08c379a00000000000000000000000000000000000000000000000000000000081526004016106d990611727565b60405180910390fd5b826005600084815260200190815260200160002060006101000a81548173ffffffffffffffffffffffffffffffffffffffff021916908373ffffffffffffffffffffffffffffffffffffffff160217905550818373ffffffffffffffffffffffffffffffffffffffff168273ffffffffffffffffffffffffffffffffffffffff167f8c5be1e5ebec7d5bd14f71427d1e84f3dd0314c0f7b2291e5b200ac8c7c3b92560405160405180910390a4505050565b6000600780549050905090565b6107ab3382610d7e565b6107ea576040517f08c379a00000000000000000000000000000000000000000000000000000000081526004016107e1906117b9565b60405180910390fd5b6107f5838383610e5c565b505050565b6000610805836109c2565b8210610846576040517f08c379a000000000000000000000000000000000000000000000000000000000815260040161083d90611825565b60405180910390fd5b600960008473ffffffffffffffffffffffffffffffffffffffff1673ffffffffffffffffffffffffffffffffffffffff168152602001908152602001600020828154811061089757610896611845565b5b9060005260206000200154905092915050565b60006108b4610794565b82106108f5576040517f08c379a00000000000000000000000000000000000000000000000000000000081526004016108ec906118c0565b60405180910390fd5b60086000838152602001908152602001600020549050919050565b6000806003600084815260200190815260200160002060009054906101000a900473ffffffffffffffffffffffffffffffffffffffff169050600073ffffffffffffffffffffffffffffffffffffffff168173ffffffffffffffffffffffffffffffffffffffff1614156109b9576040517f08c379a00000000000000000000000000000000000000000000000000000000081526004016109b090611952565b60405180910390fd5b80915050919050565b60008073ffffffffffffffffffffffffffffffffffffffff168273ffffffffffffffffffffffffffffffffffffffff161415610a33576040517f08c379a0000000000000000000000000000000000000000000000000000000008152600401610a2a90611952565b60405180910390fd5b600460008373ffffffffffffffffffffffffffffffffffffffff1673ffffffffffffffffffffffffffffffffffffffff168152602001908152602001600020549050919050565b606060028054610a899061155f565b80601f0160208091040260200160405190810160405280929190818152602001828054610ab59061155f565b8015610b025780601f10610ad757610100808354040283529160200191610b02565b820191906000526020600020905b815481529060010190602001808311610ae557829003601f168201915b5050505050905090565b3373ffffffffffffffffffffffffffffffffffffffff168273ffffffffffffffffffffffffffffffffffffffff161415610b7b576040517f08c379a0000000000000000000000000000000000000000000000000000000008152600401610b72906119be565b60405180910390fd5b80600660003373ffffffffffffffffffffffffffffffffffffffff1673ffffffffffffffffffffffffffffffffffffffff16815260200190815260200160002060008473ffffffffffffffffffffffffffffffffffffffff1673ffffffffffffffffffffffffffffffffffffffff16815260200190815260200160002060006101000a81548160ff0219169083151502179055508173ffffffffffffffffffffffffffffffffffffffff163373ffffffffffffffffffffffffffffffffffffffff167f17307eab39ab6107e8899845ad3d59bd9653f200f220920489ca2b5937696c3183604051610c6c9190611147565b60405180910390a35050565b6000600660008473ffffffffffffffffffffffffffffffffffffffff1673ffffffffffffffffffffffffffffffffffffffff16815260200190815260200160002060008373ffffffffffffffffffffffffffffffffffffffff1673ffffffffffffffffffffffffffffffffffffffff16815260200190815260200160002060009054906101000a900460ff16905092915050565b6000806003600084815260200190815260200160002060009054906101000a900473ffffffffffffffffffffffffffffffffffffffff169050600073ffffffffffffffffffffffffffffffffffffffff168173ffffffffffffffffffffffffffffffffffffffff161415915050919050565b6000610d8982610d0c565b610dc8576040517f08c379a0000000000000000000000000000000000000000000000000000000008152600401610dbf90611a2a565b60405180910390fd5b6000610dd383610910565b90508073ffffffffffffffffffffffffffffffffffffffff168473ffffffffffffffffffffffffffffffffffffffff161480610e425750610e1383610573565b73ffffffffffffffffffffffffffffffffffffffff168473ffffffffffffffffffffffffffffffffffffffff16145b80610e535750610e528185610c78565b5b91505092915050565b600073ffffffffffffffffffffffffffffffffffffffff168273ffffffffffffffffffffffffffffffffffffffff161415610ecc576040517f08c379a0000000000000000000000000000000000000000000000000000000008152600401610ec390611abc565b60405180910390fd5b8273ffffffffffffffffffffffffffffffffffffffff16610eec82610910565b73ffffffffffffffffffffffffffffffffffffffff1614610f42576040517f08c379a0000000000000000000000000000000000000000000000000000000008152600401610f3990611b4e565b60405180910390fd5b6001600460008573ffffffffffffffffffffffffffffffffffffffff1673ffffffffffffffffffffffffffffffffffffffff1681526020019081526020016000206000828254610f929190611b9d565b925050819055506001600460008473ffffffffffffffffffffffffffffffffffffffff1673ffffffffffffffffffffffffffffffffffffffff1681526020019081526020016000206000828254610fe99190611bd1565b92505081905550816003600083815260200190815260200160002060006101000a81548173ffffffffffffffffffffffffffffffffffffffff021916908373ffffffffffffffffffffffffffffffffffffffff160217905550808273ffffffffffffffffffffffffffffffffffffffff168473ffffffffffffffffffffffffffffffffffffffff167fddf252ad1be2c89b69c2b068fc378daa952ba7f163c4a11628f55a4df523b3ef60405160405180910390a4505050565b600080fd5b60007fffffffff0000000000000000000000000000000000000000000000000000000082169050919050565b6110dc816110a7565b81146110e757600080fd5b50565b6000813590506110f9816110d3565b92915050565b600060208284031215611115576111146110a2565b5b6000611123848285016110ea565b91505092915050565b60008115159050919050565b6111418161112c565b82525050565b600060208201905061115c6000830184611138565b92915050565b600081519050919050565b600082825260208201905092915050565b60005b8381101561119c578082015181840152602081019050611181565b838111156111ab576000848401525b50505050565b6000601f19601f8301169050919050565b60006111cd82611162565b6111d7818561116d565b93506111e781856020860161117e565b6111f0816111b1565b840191505092915050565b6000602082019050818103600083015261121581846111c2565b905092915050565b6000819050919050565b6112308161121d565b811461123b57600080fd5b50565b60008135905061124d81611227565b92915050565b600060208284031215611269576112686110a2565b5b60006112778482850161123e565b91505092915050565b600073ffffffffffffffffffffffffffffffffffffffff82169050919050565b60006112ab82611280565b9050919050565b6112bb816112a0565b82525050565b60006020820190506112d660008301846112b2565b92915050565b6112e5816112a0565b81146112f057600080fd5b50565b600081359050611302816112dc565b92915050565b6000806040838503121561131f5761131e6110a2565b5b600061132d858286016112f3565b925050602061133e8582860161123e565b9150509250929050565b6113518161121d565b82525050565b600060208201905061136c6000830184611348565b92915050565b60008060006060848603121561138b5761138a6110a2565b5b6000611399868287016112f3565b93505060206113aa868287016112f3565b92505060406113bb8682870161123e565b9150509250925092565b6000602082840312156113db576113da6110a2565b5b60006113e9848285016112f3565b91505092915050565b6113fb8161112c565b811461140657600080fd5b50565b600081359050611418816113f2565b92915050565b60008060408385031215611435576114346110a2565b5b6000611443858286016112f3565b925050602061145485828601611409565b9150509250929050565b60008060408385031215611475576114746110a2565b5b6000611483858286016112f3565b9250506020611494858286016112f3565b9150509250929050565b7f4572726f72202d204552433136353a20496e76616c696420696e74657266616360008201527f6500000000000000000000000000000000000000000000000000000000000000602082015250565b60006114fa60218361116d565b91506115058261149e565b604082019050919050565b60006020820190508181036000830152611529816114ed565b9050919050565b7f4e487b7100000000000000000000000000000000000000000000000000000000600052602260045260246000fd5b6000600282049050600182168061157757607f821691505b6020821081141561158b5761158a611530565b5b50919050565b7f4552433732313a20617070726f76656420717565727920666f72206e6f6e657860008201527f697374656e7420746f6b656e0000000000000000000000000000000000000000602082015250565b60006115ed602c8361116d565b91506115f882611591565b604082019050919050565b6000602082019050818103600083015261161c816115e0565b9050919050565b7f4572726f72202d20617070726f76616c20746f2063757272656e74206f776e6560008201527f7200000000000000000000000000000000000000000000000000000000000000602082015250565b600061167f60218361116d565b915061168a82611623565b604082019050919050565b600060208201905081810360008301526116ae81611672565b9050919050565b7f4572726f72202d2043757272656e742063616c6c6572206973206e6f7420746860008201527f65206f776e6572206f662074686520746f6b656e000000000000000000000000602082015250565b600061171160348361116d565b915061171c826116b5565b604082019050919050565b6000602082019050818103600083015261174081611704565b9050919050565b7f4572726f72202d2049742773206e6f7420617070726f766564206f72206f776e60008201527f6572000000000000000000000000000000000000000000000000000000000000602082015250565b60006117a360228361116d565b91506117ae82611747565b604082019050919050565b600060208201905081810360008301526117d281611796565b9050919050565b7f4f776e657220696e646578206973206f7574206f662072616e67652100000000600082015250565b600061180f601c8361116d565b915061181a826117d9565b602082019050919050565b6000602082019050818103600083015261183e81611802565b9050919050565b7f4e487b7100000000000000000000000000000000000000000000000000000000600052603260045260246000fd5b7f496e646578206973206f7574206f662072616e67652100000000000000000000600082015250565b60006118aa60168361116d565b91506118b582611874565b602082019050919050565b600060208201905081810360008301526118d98161189d565b9050919050565b7f4572726f72202d204f776e657220717565727920666f72206e6f6e2d6578697360008201527f74656e7420746f6b656e00000000000000000000000000000000000000000000602082015250565b600061193c602a8361116d565b9150611947826118e0565b604082019050919050565b6000602082019050818103600083015261196b8161192f565b9050919050565b7f4552433732313a20617070726f766520746f2063616c6c657200000000000000600082015250565b60006119a860198361116d565b91506119b382611972565b602082019050919050565b600060208201905081810360008301526119d78161199b565b9050919050565b7f546f6b656e20646f6573206e6f74206578697374000000000000000000000000600082015250565b6000611a1460148361116d565b9150611a1f826119de565b602082019050919050565b60006020820190508181036000830152611a4381611a07565b9050919050565b7f4572726f72202d20455243373231207472616e7366657220746f20746865207a60008201527f65726f2061646472657373200000000000000000000000000000000000000000602082015250565b6000611aa6602c8361116d565b9150611ab182611a4a565b604082019050919050565b60006020820190508181036000830152611ad581611a99565b9050919050565b7f4572726f72202d20547279696e6720746f207472616e73666572206120746f6b60008201527f656e20746865206164647265737320646f6573206e6f74206f776e0000000000602082015250565b6000611b38603b8361116d565b9150611b4382611adc565b604082019050919050565b60006020820190508181036000830152611b6781611b2b565b9050919050565b7f4e487b7100000000000000000000000000000000000000000000000000000000600052601160045260246000fd5b6000611ba88261121d565b9150611bb38361121d565b925082821015611bc657611bc5611b6e565b5b828203905092915050565b6000611bdc8261121d565b9150611be78361121d565b9250827fffffffffffffffffffffffffffffffffffffffffffffffffffffffffffffffff03821115611c1c57611c1b611b6e565b5b82820190509291505056fea264697066735822122007c327096b55b89e376495dfad136751a462d2ab761c7eaab58f481b25ab26c264736f6c634300080a0033",
  "immutableReferences": {},
  "source": "// SPDX-License-Identifier: MIT\npragma solidity ^0.8.0;\n\nimport './ERC721Metadata.sol';\nimport './ERC721Enumerable.sol';\n\n// this is a connector which combine all contracts together.\ncontract ERC721Connector is ERC721Metadata, ERC721Enumerable {\n    \n    constructor(string memory name, string memory symbol) ERC721Metadata(name, symbol) {\n        \n\n    }\n}\n",
  "sourcePath": "/home/pyry/Documents/truffleProjects/Ethereum-implementation/NFT_marketplace/nft-marketplace/contracts/ERC721Connector.sol",
  "compiler": {
    "name": "solc",
    "version": "0.8.10+commit.fc410830.Emscripten.clang"
  },
  "schemaVersion": "3.4.7",
  "updatedAt": "2022-06-09T14:31:36.373Z",
  "devdoc": {
    "kind": "dev",
    "methods": {
      "balanceOf(address)": {
        "details": "NFTs assigned to the zero address are considered invalid, and this  function throws for queries about the zero address.",
        "params": {
          "_owner": "An address for whom to query the balance"
        },
        "returns": {
          "_0": "The number of NFTs owned by `_owner`, possibly zero"
        }
      },
      "supportsInterface(bytes4)": {
        "details": "Interface identification is specified in ERC-165. This function  uses less than 30,000 gas.",
        "params": {
          "interfaceID": "The interface identifier, as specified in ERC-165"
        },
        "returns": {
          "_0": "`true` if the contract implements `interfaceID` and  `interfaceID` is not 0xffffffff, `false` otherwise"
        }
      }
    },
    "version": 1
  },
  "userdoc": {
    "kind": "user",
    "methods": {
      "balanceOf(address)": {
        "notice": "Count all NFTs assigned to an owner"
      },
      "supportsInterface(bytes4)": {
        "notice": "Query if a contract implements an interface"
      }
    },
    "version": 1
  }
}