{
  "contractName": "ERC721Metadata",
  "abi": [
    {
      "inputs": [
        {
          "internalType": "string",
          "name": "named",
          "type": "string"
        },
        {
          "internalType": "string",
          "name": "symbolified",
          "type": "string"
        }
      ],
      "stateMutability": "nonpayable",
      "type": "constructor"
    },
    {
      "inputs": [
        {
          "internalType": "bytes4",
          "name": "interfaceID",
          "type": "bytes4"
        }
      ],
      "name": "_registerInterface",
      "outputs": [],
      "stateMutability": "nonpayable",
      "type": "function"
    },
    {
      "inputs": [
        {
          "internalType": "bytes4",
          "name": "interfaceID",
          "type": "bytes4"
        }
      ],
      "name": "supportsInterface",
      "outputs": [
        {
          "internalType": "bool",
          "name": "",
          "type": "bool"
        }
      ],
      "stateMutability": "view",
      "type": "function"
    },
    {
      "inputs": [],
      "name": "name",
      "outputs": [
        {
          "internalType": "string",
          "name": "",
          "type": "string"
        }
      ],
      "stateMutability": "view",
      "type": "function"
    },
    {
      "inputs": [],
      "name": "symbol",
      "outputs": [
        {
          "internalType": "string",
          "name": "",
          "type": "string"
        }
      ],
      "stateMutability": "view",
      "type": "function"
    }
  ],
  "bytecode": "0x60806040523480156200001157600080fd5b5060405162000bb938038062000bb9833981810160405281019062000037919062000439565b620000687f01ffc9a7a5cef8baa21ed3c5c0d7e23accb804b619e9333b597f47a0d84076e26200011460201b60201c565b620000da7f13b182f4c0e5b2efbac0efe6cf6d756c8b89f4b79c5707a043ed9ea740574ee97bffffffffffffffffffffffffffffffffffffffffffffffffffffffff19167f7feaf19471f34a12a7eaf32d5f3090aa2260ea8624dc8a138e74e0bf0f623076186200011460201b60201c565b8160019080519060200190620000f2929190620001ec565b5080600290805190602001906200010b929190620001ec565b505050620005cc565b63ffffffff60e01b817bffffffffffffffffffffffffffffffffffffffffffffffffffffffff1916141562000180576040517f08c379a0000000000000000000000000000000000000000000000000000000008152600401620001779062000545565b60405180910390fd5b6001600080837bffffffffffffffffffffffffffffffffffffffffffffffffffffffff19167bffffffffffffffffffffffffffffffffffffffffffffffffffffffff1916815260200190815260200160002060006101000a81548160ff02191690831515021790555050565b828054620001fa9062000596565b90600052602060002090601f0160209004810192826200021e57600085556200026a565b82601f106200023957805160ff19168380011785556200026a565b828001600101855582156200026a579182015b82811115620002695782518255916020019190600101906200024c565b5b5090506200027991906200027d565b5090565b5b80821115620002985760008160009055506001016200027e565b5090565b6000604051905090565b600080fd5b600080fd5b600080fd5b600080fd5b6000601f19601f8301169050919050565b7f4e487b7100000000000000000000000000000000000000000000000000000000600052604160045260246000fd5b6200030582620002ba565b810181811067ffffffffffffffff82111715620003275762000326620002cb565b5b80604052505050565b60006200033c6200029c565b90506200034a8282620002fa565b919050565b600067ffffffffffffffff8211156200036d576200036c620002cb565b5b6200037882620002ba565b9050602081019050919050565b60005b83811015620003a557808201518184015260208101905062000388565b83811115620003b5576000848401525b50505050565b6000620003d2620003cc846200034f565b62000330565b905082815260208101848484011115620003f157620003f0620002b5565b5b620003fe84828562000385565b509392505050565b600082601f8301126200041e576200041d620002b0565b5b815162000430848260208601620003bb565b91505092915050565b60008060408385031215620004535762000452620002a6565b5b600083015167ffffffffffffffff811115620004745762000473620002ab565b5b620004828582860162000406565b925050602083015167ffffffffffffffff811115620004a657620004a5620002ab565b5b620004b48582860162000406565b9150509250929050565b600082825260208201905092915050565b7f4572726f72202d204552433136353a20496e76616c696420696e74657266616360008201527f6500000000000000000000000000000000000000000000000000000000000000602082015250565b60006200052d602183620004be565b91506200053a82620004cf565b604082019050919050565b6000602082019050818103600083015262000560816200051e565b9050919050565b7f4e487b7100000000000000000000000000000000000000000000000000000000600052602260045260246000fd5b60006002820490506001821680620005af57607f821691505b60208210811415620005c657620005c562000567565b5b50919050565b6105dd80620005dc6000396000f3fe608060405234801561001057600080fd5b506004361061004c5760003560e01c806301ffc9a714610051578063068417d91461008157806306fdde031461009d57806395d89b41146100bb575b600080fd5b61006b60048036038101906100669190610396565b6100d9565b60405161007891906103de565b60405180910390f35b61009b60048036038101906100969190610396565b610140565b005b6100a5610215565b6040516100b29190610492565b60405180910390f35b6100c36102a7565b6040516100d09190610492565b60405180910390f35b6000806000837bffffffffffffffffffffffffffffffffffffffffffffffffffffffff19167bffffffffffffffffffffffffffffffffffffffffffffffffffffffff1916815260200190815260200160002060009054906101000a900460ff169050919050565b63ffffffff60e01b817bffffffffffffffffffffffffffffffffffffffffffffffffffffffff191614156101a9576040517f08c379a00000000000000000000000000000000000000000000000000000000081526004016101a090610526565b60405180910390fd5b6001600080837bffffffffffffffffffffffffffffffffffffffffffffffffffffffff19167bffffffffffffffffffffffffffffffffffffffffffffffffffffffff1916815260200190815260200160002060006101000a81548160ff02191690831515021790555050565b60606001805461022490610575565b80601f016020809104026020016040519081016040528092919081815260200182805461025090610575565b801561029d5780601f106102725761010080835404028352916020019161029d565b820191906000526020600020905b81548152906001019060200180831161028057829003601f168201915b5050505050905090565b6060600280546102b690610575565b80601f01602080910402602001604051908101604052809291908181526020018280546102e290610575565b801561032f5780601f106103045761010080835404028352916020019161032f565b820191906000526020600020905b81548152906001019060200180831161031257829003601f168201915b5050505050905090565b600080fd5b60007fffffffff0000000000000000000000000000000000000000000000000000000082169050919050565b6103738161033e565b811461037e57600080fd5b50565b6000813590506103908161036a565b92915050565b6000602082840312156103ac576103ab610339565b5b60006103ba84828501610381565b91505092915050565b60008115159050919050565b6103d8816103c3565b82525050565b60006020820190506103f360008301846103cf565b92915050565b600081519050919050565b600082825260208201905092915050565b60005b83811015610433578082015181840152602081019050610418565b83811115610442576000848401525b50505050565b6000601f19601f8301169050919050565b6000610464826103f9565b61046e8185610404565b935061047e818560208601610415565b61048781610448565b840191505092915050565b600060208201905081810360008301526104ac8184610459565b905092915050565b7f4572726f72202d204552433136353a20496e76616c696420696e74657266616360008201527f6500000000000000000000000000000000000000000000000000000000000000602082015250565b6000610510602183610404565b915061051b826104b4565b604082019050919050565b6000602082019050818103600083015261053f81610503565b9050919050565b7f4e487b7100000000000000000000000000000000000000000000000000000000600052602260045260246000fd5b6000600282049050600182168061058d57607f821691505b602082108114156105a1576105a0610546565b5b5091905056fea2646970667358221220869604a8a2ef856a81e97335e53c9e115a236b9750a6a468e83787a42210b4ed64736f6c634300080a0033",
  "immutableReferences": {},
  "source": "// SPDX-License-Identifier: MIT\npragma solidity ^0.8.0;\n\nimport './interfaces/IERC721Metadata.sol';\nimport \"./ERC165.sol\";\n\n\ncontract ERC721Metadata is IERC721Metadata, ERC165 {\n\n    string private _name;\n    string private _symbol;\n\n    constructor(string memory named, string memory symbolified) {\n        _registerInterface(bytes4(keccak256('name(bytes4)')^\n                           bytes4(keccak256('symbol(bytes4)'))));\n\n        _name = named;\n        _symbol = symbolified;\n    }\n\n    function name() external view override returns(string memory) {\n        return _name;\n    }\n\n    function symbol() external view override returns(string memory) {\n        return _symbol;\n    }\n\n\n\n}",
  "sourcePath": "/home/pyry/Documents/truffleProjects/Ethereum-implementation/NFT_marketplace/nft-marketplace/contracts/ERC721Metadata.sol",
  "compiler": {
    "name": "solc",
    "version": "0.8.10+commit.fc410830.Emscripten.clang"
  },
  "schemaVersion": "3.4.7",
  "updatedAt": "2022-06-09T14:31:36.389Z",
  "devdoc": {
    "kind": "dev",
    "methods": {
      "supportsInterface(bytes4)": {
        "details": "Interface identification is specified in ERC-165. This function  uses less than 30,000 gas.",
        "params": {
          "interfaceID": "The interface identifier, as specified in ERC-165"
        },
        "returns": {
          "_0": "`true` if the contract implements `interfaceID` and  `interfaceID` is not 0xffffffff, `false` otherwise"
        }
      }
    },
    "version": 1
  },
  "userdoc": {
    "kind": "user",
    "methods": {
      "supportsInterface(bytes4)": {
        "notice": "Query if a contract implements an interface"
      }
    },
    "version": 1
  }
}