{
  "contractName": "KryptoBird",
  "abi": [
    {
      "inputs": [],
      "stateMutability": "nonpayable",
      "type": "constructor"
    },
    {
      "anonymous": false,
      "inputs": [
        {
          "indexed": true,
          "internalType": "address",
          "name": "_from",
          "type": "address"
        },
        {
          "indexed": true,
          "internalType": "address",
          "name": "_to",
          "type": "address"
        },
        {
          "indexed": true,
          "internalType": "uint256",
          "name": "tokenId",
          "type": "uint256"
        }
      ],
      "name": "Transfer",
      "type": "event"
    },
    {
      "inputs": [
        {
          "internalType": "uint256",
          "name": "_index",
          "type": "uint256"
        }
      ],
      "name": "_tokenByIndex",
      "outputs": [
        {
          "internalType": "uint256",
          "name": "",
          "type": "uint256"
        }
      ],
      "stateMutability": "view",
      "type": "function",
      "constant": true
    },
    {
      "inputs": [
        {
          "internalType": "address",
          "name": "_owner",
          "type": "address"
        },
        {
          "internalType": "uint256",
          "name": "_index",
          "type": "uint256"
        }
      ],
      "name": "_tokenOfOwnerByIndex",
      "outputs": [
        {
          "internalType": "uint256",
          "name": "",
          "type": "uint256"
        }
      ],
      "stateMutability": "view",
      "type": "function",
      "constant": true
    },
    {
      "inputs": [],
      "name": "_totalSupply",
      "outputs": [
        {
          "internalType": "uint256",
          "name": "",
          "type": "uint256"
        }
      ],
      "stateMutability": "view",
      "type": "function",
      "constant": true
    },
    {
      "inputs": [
        {
          "internalType": "address",
          "name": "_owner",
          "type": "address"
        }
      ],
      "name": "balanceOf",
      "outputs": [
        {
          "internalType": "uint256",
          "name": "",
          "type": "uint256"
        }
      ],
      "stateMutability": "view",
      "type": "function",
      "constant": true
    },
    {
      "inputs": [
        {
          "internalType": "uint256",
          "name": "",
          "type": "uint256"
        }
      ],
      "name": "kryptoBirdz",
      "outputs": [
        {
          "internalType": "string",
          "name": "",
          "type": "string"
        }
      ],
      "stateMutability": "view",
      "type": "function",
      "constant": true
    },
    {
      "inputs": [],
      "name": "name",
      "outputs": [
        {
          "internalType": "string",
          "name": "",
          "type": "string"
        }
      ],
      "stateMutability": "view",
      "type": "function",
      "constant": true
    },
    {
      "inputs": [
        {
          "internalType": "uint256",
          "name": "_tokenId",
          "type": "uint256"
        }
      ],
      "name": "ownerOf",
      "outputs": [
        {
          "internalType": "address",
          "name": "",
          "type": "address"
        }
      ],
      "stateMutability": "view",
      "type": "function",
      "constant": true
    },
    {
      "inputs": [],
      "name": "symbol",
      "outputs": [
        {
          "internalType": "string",
          "name": "",
          "type": "string"
        }
      ],
      "stateMutability": "view",
      "type": "function",
      "constant": true
    },
    {
      "inputs": [
        {
          "internalType": "address",
          "name": "_from",
          "type": "address"
        },
        {
          "internalType": "address",
          "name": "_to",
          "type": "address"
        },
        {
          "internalType": "uint256",
          "name": "_tokenId",
          "type": "uint256"
        }
      ],
      "name": "transferFrom",
      "outputs": [],
      "stateMutability": "payable",
      "type": "function",
      "payable": true
    },
    {
      "inputs": [
        {
          "internalType": "string",
          "name": "_kryptoBird",
          "type": "string"
        }
      ],
      "name": "mint",
      "outputs": [],
      "stateMutability": "nonpayable",
      "type": "function"
    }
  ],
  "bytecode": "0x60806040523480156200001157600080fd5b506040518060400160405280600a81526020017f4b727970746f42697264000000000000000000000000000000000000000000008152506040518060400160405280600681526020017f4b424952445a00000000000000000000000000000000000000000000000000008152508181816000908051906020019062000098929190620000bc565b508060019080519060200190620000b1929190620000bc565b5050505050620001d1565b828054620000ca906200019b565b90600052602060002090601f016020900481019282620000ee57600085556200013a565b82601f106200010957805160ff19168380011785556200013a565b828001600101855582156200013a579182015b82811115620001395782518255916020019190600101906200011c565b5b5090506200014991906200014d565b5090565b5b80821115620001685760008160009055506001016200014e565b5090565b7f4e487b7100000000000000000000000000000000000000000000000000000000600052602260045260246000fd5b60006002820490506001821680620001b457607f821691505b60208210811415620001cb57620001ca6200016c565b5b50919050565b61185a80620001e16000396000f3fe6080604052600436106100915760003560e01c806370a082311161005957806370a082311461018257806393ab6e56146101bf57806395d89b41146101fc578063bf9ffa2914610227578063d85d3d271461026457610091565b806306fdde031461009657806323b872dd146100c157806327071f6a146100dd5780633eaaf86b1461011a5780636352211e14610145575b600080fd5b3480156100a257600080fd5b506100ab61028d565b6040516100b89190610ee1565b60405180910390f35b6100db60048036038101906100d69190610fab565b61031f565b005b3480156100e957600080fd5b5061010460048036038101906100ff9190610ffe565b61032f565b604051610111919061104d565b60405180910390f35b34801561012657600080fd5b5061012f6103df565b60405161013c919061104d565b60405180910390f35b34801561015157600080fd5b5061016c60048036038101906101679190611068565b6103ec565b60405161017991906110a4565b60405180910390f35b34801561018e57600080fd5b506101a960048036038101906101a491906110bf565b61049e565b6040516101b6919061104d565b60405180910390f35b3480156101cb57600080fd5b506101e660048036038101906101e19190611068565b610556565b6040516101f39190610ee1565b60405180910390f35b34801561020857600080fd5b50610211610602565b60405161021e9190610ee1565b60405180910390f35b34801561023357600080fd5b5061024e60048036038101906102499190611068565b610694565b60405161025b919061104d565b60405180910390f35b34801561027057600080fd5b5061028b60048036038101906102869190611221565b6106fa565b005b60606000805461029c90611299565b80601f01602080910402602001604051908101604052809291908181526020018280546102c890611299565b80156103155780601f106102ea57610100808354040283529160200191610315565b820191906000526020600020905b8154815290600101906020018083116102f857829003601f168201915b5050505050905090565b61032a8383836107fd565b505050565b600061033a8361049e565b821061037b576040517f08c379a000000000000000000000000000000000000000000000000000000000815260040161037290611317565b60405180910390fd5b600760008473ffffffffffffffffffffffffffffffffffffffff1673ffffffffffffffffffffffffffffffffffffffff16815260200190815260200160002082815481106103cc576103cb611337565b5b9060005260206000200154905092915050565b6000600580549050905090565b6000806002600084815260200190815260200160002060009054906101000a900473ffffffffffffffffffffffffffffffffffffffff169050600073ffffffffffffffffffffffffffffffffffffffff168173ffffffffffffffffffffffffffffffffffffffff161415610495576040517f08c379a000000000000000000000000000000000000000000000000000000000815260040161048c906113d8565b60405180910390fd5b80915050919050565b60008073ffffffffffffffffffffffffffffffffffffffff168273ffffffffffffffffffffffffffffffffffffffff16141561050f576040517f08c379a0000000000000000000000000000000000000000000000000000000008152600401610506906113d8565b60405180910390fd5b600360008373ffffffffffffffffffffffffffffffffffffffff1673ffffffffffffffffffffffffffffffffffffffff168152602001908152602001600020549050919050565b6009818154811061056657600080fd5b90600052602060002001600091509050805461058190611299565b80601f01602080910402602001604051908101604052809291908181526020018280546105ad90611299565b80156105fa5780601f106105cf576101008083540402835291602001916105fa565b820191906000526020600020905b8154815290600101906020018083116105dd57829003601f168201915b505050505081565b60606001805461061190611299565b80601f016020809104026020016040519081016040528092919081815260200182805461063d90611299565b801561068a5780601f1061065f5761010080835404028352916020019161068a565b820191906000526020600020905b81548152906001019060200180831161066d57829003601f168201915b5050505050905090565b600061069e6103df565b82106106df576040517f08c379a00000000000000000000000000000000000000000000000000000000081526004016106d690611444565b60405180910390fd5b60066000838152602001908152602001600020549050919050565b600a8160405161070a91906114a0565b908152602001604051809103902060009054906101000a900460ff1615610766576040517f08c379a000000000000000000000000000000000000000000000000000000000815260040161075d90611529565b60405180910390fd5b6009819080600181540180825580915050600190039060005260206000200160009091909190915090805190602001906107a1929190610da5565b50600060016009805490506107b69190611578565b90506107c23382610a43565b6001600a836040516107d491906114a0565b908152602001604051809103902060006101000a81548160ff0219169083151502179055505050565b600073ffffffffffffffffffffffffffffffffffffffff168273ffffffffffffffffffffffffffffffffffffffff16141561086d576040517f08c379a00000000000000000000000000000000000000000000000000000000081526004016108649061161e565b60405180910390fd5b8273ffffffffffffffffffffffffffffffffffffffff1661088d826103ec565b73ffffffffffffffffffffffffffffffffffffffff16146108e3576040517f08c379a00000000000000000000000000000000000000000000000000000000081526004016108da906116b0565b60405180910390fd5b6001600360008573ffffffffffffffffffffffffffffffffffffffff1673ffffffffffffffffffffffffffffffffffffffff16815260200190815260200160002060008282546109339190611578565b925050819055506001600360008473ffffffffffffffffffffffffffffffffffffffff1673ffffffffffffffffffffffffffffffffffffffff168152602001908152602001600020600082825461098a91906116d0565b92505081905550816002600083815260200190815260200160002060006101000a81548173ffffffffffffffffffffffffffffffffffffffff021916908373ffffffffffffffffffffffffffffffffffffffff160217905550808273ffffffffffffffffffffffffffffffffffffffff168473ffffffffffffffffffffffffffffffffffffffff167fddf252ad1be2c89b69c2b068fc378daa952ba7f163c4a11628f55a4df523b3ef60405160405180910390a4505050565b610a4d8282610a64565b610a5681610c26565b610a608282610c6f565b5050565b600073ffffffffffffffffffffffffffffffffffffffff168273ffffffffffffffffffffffffffffffffffffffff161415610ad4576040517f08c379a0000000000000000000000000000000000000000000000000000000008152600401610acb90611798565b60405180910390fd5b610add81610d33565b15610b1d576040517f08c379a0000000000000000000000000000000000000000000000000000000008152600401610b1490611804565b60405180910390fd5b816002600083815260200190815260200160002060006101000a81548173ffffffffffffffffffffffffffffffffffffffff021916908373ffffffffffffffffffffffffffffffffffffffff1602179055506001600360008473ffffffffffffffffffffffffffffffffffffffff1673ffffffffffffffffffffffffffffffffffffffff1681526020019081526020016000206000828254610bbf91906116d0565b92505081905550808273ffffffffffffffffffffffffffffffffffffffff16600073ffffffffffffffffffffffffffffffffffffffff167fddf252ad1be2c89b69c2b068fc378daa952ba7f163c4a11628f55a4df523b3ef60405160405180910390a45050565b6005805490506006600083815260200190815260200160002081905550600581908060018154018082558091505060019003906000526020600020016000909190919091505550565b600760008373ffffffffffffffffffffffffffffffffffffffff1673ffffffffffffffffffffffffffffffffffffffff168152602001908152602001600020819080600181540180825580915050600190039060005260206000200160009091909190915055600760008373ffffffffffffffffffffffffffffffffffffffff1673ffffffffffffffffffffffffffffffffffffffff1681526020019081526020016000208054905060086000838152602001908152602001600020819055505050565b6000806002600084815260200190815260200160002060009054906101000a900473ffffffffffffffffffffffffffffffffffffffff169050600073ffffffffffffffffffffffffffffffffffffffff168173ffffffffffffffffffffffffffffffffffffffff161415915050919050565b828054610db190611299565b90600052602060002090601f016020900481019282610dd35760008555610e1a565b82601f10610dec57805160ff1916838001178555610e1a565b82800160010185558215610e1a579182015b82811115610e19578251825591602001919060010190610dfe565b5b509050610e279190610e2b565b5090565b5b80821115610e44576000816000905550600101610e2c565b5090565b600081519050919050565b600082825260208201905092915050565b60005b83811015610e82578082015181840152602081019050610e67565b83811115610e91576000848401525b50505050565b6000601f19601f8301169050919050565b6000610eb382610e48565b610ebd8185610e53565b9350610ecd818560208601610e64565b610ed681610e97565b840191505092915050565b60006020820190508181036000830152610efb8184610ea8565b905092915050565b6000604051905090565b600080fd5b600080fd5b600073ffffffffffffffffffffffffffffffffffffffff82169050919050565b6000610f4282610f17565b9050919050565b610f5281610f37565b8114610f5d57600080fd5b50565b600081359050610f6f81610f49565b92915050565b6000819050919050565b610f8881610f75565b8114610f9357600080fd5b50565b600081359050610fa581610f7f565b92915050565b600080600060608486031215610fc457610fc3610f0d565b5b6000610fd286828701610f60565b9350506020610fe386828701610f60565b9250506040610ff486828701610f96565b9150509250925092565b6000806040838503121561101557611014610f0d565b5b600061102385828601610f60565b925050602061103485828601610f96565b9150509250929050565b61104781610f75565b82525050565b6000602082019050611062600083018461103e565b92915050565b60006020828403121561107e5761107d610f0d565b5b600061108c84828501610f96565b91505092915050565b61109e81610f37565b82525050565b60006020820190506110b96000830184611095565b92915050565b6000602082840312156110d5576110d4610f0d565b5b60006110e384828501610f60565b91505092915050565b600080fd5b600080fd5b7f4e487b7100000000000000000000000000000000000000000000000000000000600052604160045260246000fd5b61112e82610e97565b810181811067ffffffffffffffff8211171561114d5761114c6110f6565b5b80604052505050565b6000611160610f03565b905061116c8282611125565b919050565b600067ffffffffffffffff82111561118c5761118b6110f6565b5b61119582610e97565b9050602081019050919050565b82818337600083830152505050565b60006111c46111bf84611171565b611156565b9050828152602081018484840111156111e0576111df6110f1565b5b6111eb8482856111a2565b509392505050565b600082601f830112611208576112076110ec565b5b81356112188482602086016111b1565b91505092915050565b60006020828403121561123757611236610f0d565b5b600082013567ffffffffffffffff81111561125557611254610f12565b5b611261848285016111f3565b91505092915050565b7f4e487b7100000000000000000000000000000000000000000000000000000000600052602260045260246000fd5b600060028204905060018216806112b157607f821691505b602082108114156112c5576112c461126a565b5b50919050565b7f4f776e657220696e646578206973206f7574206f662072616e67652100000000600082015250565b6000611301601c83610e53565b915061130c826112cb565b602082019050919050565b60006020820190508181036000830152611330816112f4565b9050919050565b7f4e487b7100000000000000000000000000000000000000000000000000000000600052603260045260246000fd5b7f4f776e657220717565727920666f72206e6f6e2d6578697374656e7420746f6b60008201527f656e000000000000000000000000000000000000000000000000000000000000602082015250565b60006113c2602283610e53565b91506113cd82611366565b604082019050919050565b600060208201905081810360008301526113f1816113b5565b9050919050565b7f496e646578206973206f7574206f662072616e67652100000000000000000000600082015250565b600061142e601683610e53565b9150611439826113f8565b602082019050919050565b6000602082019050818103600083015261145d81611421565b9050919050565b600081905092915050565b600061147a82610e48565b6114848185611464565b9350611494818560208601610e64565b80840191505092915050565b60006114ac828461146f565b915081905092915050565b7f4572726f72202d206b727970746f4269726420616c726561647920657869737460008201527f7300000000000000000000000000000000000000000000000000000000000000602082015250565b6000611513602183610e53565b915061151e826114b7565b604082019050919050565b6000602082019050818103600083015261154281611506565b9050919050565b7f4e487b7100000000000000000000000000000000000000000000000000000000600052601160045260246000fd5b600061158382610f75565b915061158e83610f75565b9250828210156115a1576115a0611549565b5b828203905092915050565b7f4572726f72202d20455243373231207472616e7366657220746f20746865207a60008201527f65726f2061646472657373200000000000000000000000000000000000000000602082015250565b6000611608602c83610e53565b9150611613826115ac565b604082019050919050565b60006020820190508181036000830152611637816115fb565b9050919050565b7f4572726f72202d20547279696e6720746f207472616e73666572206120746f6b60008201527f656e20746865206164647265737320646f6573206e6f74206f776e0000000000602082015250565b600061169a603b83610e53565b91506116a58261163e565b604082019050919050565b600060208201905081810360008301526116c98161168d565b9050919050565b60006116db82610f75565b91506116e683610f75565b9250827fffffffffffffffffffffffffffffffffffffffffffffffffffffffffffffffff0382111561171b5761171a611549565b5b828201905092915050565b7f4552433732313a206d696e74696e6720746f20746865207a65726f206164647260008201527f6573730000000000000000000000000000000000000000000000000000000000602082015250565b6000611782602383610e53565b915061178d82611726565b604082019050919050565b600060208201905081810360008301526117b181611775565b9050919050565b7f4552433732313a20746f6b656e20616c7265616479206d696e74656400000000600082015250565b60006117ee601c83610e53565b91506117f9826117b8565b602082019050919050565b6000602082019050818103600083015261181d816117e1565b905091905056fea2646970667358221220bcc526edef7ffce13f6cf7ea47202eb026f93b0d11715884a2df8943f56e3b0664736f6c634300080a0033",
  "immutableReferences": {},
  "source": "// SPDX-License-Identifier: MIT\npragma solidity ^0.8.0;\n\nimport './ERC721Connector.sol';\n\ncontract KryptoBird is ERC721Connector {\n\n    // array to store our nfts\n    string [] public kryptoBirdz;\n\n    mapping (string => bool) _kryptoBirdzExists;\n\n    constructor() ERC721Connector('KryptoBird','KBIRDZ') {}\n\n                                // _kryptoBird will be the data location.\n    function mint(string memory _kryptoBird) public {\n        // check if kryptobird are already minted\n        require(!_kryptoBirdzExists[_kryptoBird], \"Error - kryptoBird already exists\");\n        kryptoBirdz.push(_kryptoBird);\n        uint _id = kryptoBirdz.length - 1;\n        _mint(msg.sender, _id);\n        _kryptoBirdzExists[_kryptoBird] = true;\n    }\n\n}\n\n\n",
  "sourcePath": "/home/pyry/Documents/truffleProjects/Ethereum-implementation/NFT_marketplace/nft-marketplace/contracts/KryptoBirdz.sol",
  "compiler": {
    "name": "solc",
    "version": "0.8.10+commit.fc410830.Emscripten.clang"
  },
  "schemaVersion": "3.4.7",
  "updatedAt": "2022-06-07T11:52:04.186Z",
  "networkType": "ethereum",
  "devdoc": {
    "kind": "dev",
    "methods": {},
    "version": 1
  },
  "userdoc": {
    "kind": "user",
    "methods": {},
    "version": 1
  }
}