{
  "contractName": "KryptoBird",
  "abi": [
    {
      "inputs": [],
      "stateMutability": "nonpayable",
      "type": "constructor"
    },
    {
      "anonymous": false,
      "inputs": [
        {
          "indexed": true,
          "internalType": "address",
          "name": "_owner",
          "type": "address"
        },
        {
          "indexed": true,
          "internalType": "address",
          "name": "_approved",
          "type": "address"
        },
        {
          "indexed": true,
          "internalType": "uint256",
          "name": "_tokenId",
          "type": "uint256"
        }
      ],
      "name": "Approval",
      "type": "event"
    },
    {
      "anonymous": false,
      "inputs": [
        {
          "indexed": true,
          "internalType": "address",
          "name": "_owner",
          "type": "address"
        },
        {
          "indexed": true,
          "internalType": "address",
          "name": "_operator",
          "type": "address"
        },
        {
          "indexed": false,
          "internalType": "bool",
          "name": "_approved",
          "type": "bool"
        }
      ],
      "name": "ApprovalForAll",
      "type": "event"
    },
    {
      "anonymous": false,
      "inputs": [
        {
          "indexed": true,
          "internalType": "address",
          "name": "_from",
          "type": "address"
        },
        {
          "indexed": true,
          "internalType": "address",
          "name": "_to",
          "type": "address"
        },
        {
          "indexed": true,
          "internalType": "uint256",
          "name": "_tokenId",
          "type": "uint256"
        }
      ],
      "name": "Transfer",
      "type": "event"
    },
    {
      "inputs": [
        {
          "internalType": "bytes4",
          "name": "interfaceID",
          "type": "bytes4"
        }
      ],
      "name": "_registerInterface",
      "outputs": [],
      "stateMutability": "nonpayable",
      "type": "function"
    },
    {
      "inputs": [
        {
          "internalType": "address",
          "name": "to",
          "type": "address"
        },
        {
          "internalType": "uint256",
          "name": "tokenId",
          "type": "uint256"
        }
      ],
      "name": "approve",
      "outputs": [],
      "stateMutability": "payable",
      "type": "function",
      "payable": true
    },
    {
      "inputs": [
        {
          "internalType": "address",
          "name": "_owner",
          "type": "address"
        }
      ],
      "name": "balanceOf",
      "outputs": [
        {
          "internalType": "uint256",
          "name": "",
          "type": "uint256"
        }
      ],
      "stateMutability": "view",
      "type": "function",
      "constant": true
    },
    {
      "inputs": [
        {
          "internalType": "uint256",
          "name": "tokenId",
          "type": "uint256"
        }
      ],
      "name": "getApproved",
      "outputs": [
        {
          "internalType": "address",
          "name": "",
          "type": "address"
        }
      ],
      "stateMutability": "view",
      "type": "function",
      "constant": true
    },
    {
      "inputs": [
        {
          "internalType": "address",
          "name": "owner",
          "type": "address"
        },
        {
          "internalType": "address",
          "name": "operator",
          "type": "address"
        }
      ],
      "name": "isApprovedForAll",
      "outputs": [
        {
          "internalType": "bool",
          "name": "",
          "type": "bool"
        }
      ],
      "stateMutability": "view",
      "type": "function",
      "constant": true
    },
    {
      "inputs": [
        {
          "internalType": "uint256",
          "name": "",
          "type": "uint256"
        }
      ],
      "name": "kryptoBirdz",
      "outputs": [
        {
          "internalType": "string",
          "name": "",
          "type": "string"
        }
      ],
      "stateMutability": "view",
      "type": "function",
      "constant": true
    },
    {
      "inputs": [],
      "name": "name",
      "outputs": [
        {
          "internalType": "string",
          "name": "",
          "type": "string"
        }
      ],
      "stateMutability": "view",
      "type": "function",
      "constant": true
    },
    {
      "inputs": [
        {
          "internalType": "uint256",
          "name": "_tokenId",
          "type": "uint256"
        }
      ],
      "name": "ownerOf",
      "outputs": [
        {
          "internalType": "address",
          "name": "",
          "type": "address"
        }
      ],
      "stateMutability": "view",
      "type": "function",
      "constant": true
    },
    {
      "inputs": [
        {
          "internalType": "address",
          "name": "operator",
          "type": "address"
        },
        {
          "internalType": "bool",
          "name": "approved",
          "type": "bool"
        }
      ],
      "name": "setApprovalForAll",
      "outputs": [],
      "stateMutability": "nonpayable",
      "type": "function"
    },
    {
      "inputs": [
        {
          "internalType": "bytes4",
          "name": "interfaceID",
          "type": "bytes4"
        }
      ],
      "name": "supportsInterface",
      "outputs": [
        {
          "internalType": "bool",
          "name": "",
          "type": "bool"
        }
      ],
      "stateMutability": "view",
      "type": "function",
      "constant": true
    },
    {
      "inputs": [],
      "name": "symbol",
      "outputs": [
        {
          "internalType": "string",
          "name": "",
          "type": "string"
        }
      ],
      "stateMutability": "view",
      "type": "function",
      "constant": true
    },
    {
      "inputs": [
        {
          "internalType": "uint256",
          "name": "_index",
          "type": "uint256"
        }
      ],
      "name": "tokenByIndex",
      "outputs": [
        {
          "internalType": "uint256",
          "name": "",
          "type": "uint256"
        }
      ],
      "stateMutability": "view",
      "type": "function",
      "constant": true
    },
    {
      "inputs": [
        {
          "internalType": "address",
          "name": "_owner",
          "type": "address"
        },
        {
          "internalType": "uint256",
          "name": "_index",
          "type": "uint256"
        }
      ],
      "name": "tokenOfOwnerByIndex",
      "outputs": [
        {
          "internalType": "uint256",
          "name": "",
          "type": "uint256"
        }
      ],
      "stateMutability": "view",
      "type": "function",
      "constant": true
    },
    {
      "inputs": [],
      "name": "totalSupply",
      "outputs": [
        {
          "internalType": "uint256",
          "name": "",
          "type": "uint256"
        }
      ],
      "stateMutability": "view",
      "type": "function",
      "constant": true
    },
    {
      "inputs": [
        {
          "internalType": "address",
          "name": "from",
          "type": "address"
        },
        {
          "internalType": "address",
          "name": "to",
          "type": "address"
        },
        {
          "internalType": "uint256",
          "name": "tokenId",
          "type": "uint256"
        }
      ],
      "name": "transferFrom",
      "outputs": [],
      "stateMutability": "nonpayable",
      "type": "function"
    },
    {
      "inputs": [
        {
          "internalType": "string",
          "name": "_kryptoBird",
          "type": "string"
        }
      ],
      "name": "mint",
      "outputs": [],
      "stateMutability": "nonpayable",
      "type": "function"
    }
  ],
  "bytecode": "0x60806040523480156200001157600080fd5b506040518060400160405280600a81526020017f4b727970746f42697264000000000000000000000000000000000000000000008152506040518060400160405280600681526020017f4b424952445a00000000000000000000000000000000000000000000000000008152508181620000b17f01ffc9a7a5cef8baa21ed3c5c0d7e23accb804b619e9333b597f47a0d84076e2620003c960201b60201c565b620001237f13b182f4c0e5b2efbac0efe6cf6d756c8b89f4b79c5707a043ed9ea740574ee97bffffffffffffffffffffffffffffffffffffffffffffffffffffffff19167f7feaf19471f34a12a7eaf32d5f3090aa2260ea8624dc8a138e74e0bf0f62307618620003c960201b60201c565b81600190805190602001906200013b929190620004a1565b50806002908051906020019062000154929190620004a1565b5050506200030e7fe0c9b09697cad3aa3f2bcb7fdd781becaefa478990b24e83d3bfdb65623d77537bffffffffffffffffffffffffffffffffffffffffffffffffffffffff19167f5af227006b8981efabb10af200ab71f08976cbce54b4c59ae5c97811d19a398c187bffffffffffffffffffffffffffffffffffffffffffffffffffffffff19167f90dba0bef8387ab29f95a1abead857c8ccc338f1038f6fa159fa78fd18aff9f7187bffffffffffffffffffffffffffffffffffffffffffffffffffffffff19167f8c51fd5fcf1f456ec4eb0f32f68d83471264fe082fac12bcbfd2fa4be9eed6c7187bffffffffffffffffffffffffffffffffffffffffffffffffffffffff19167f3a6eb71757dfc6e784c1459d26270140c2c147d95ca985c80026fc5301c3eca1187bffffffffffffffffffffffffffffffffffffffffffffffffffffffff19167f8a7e378434598edc36d108689a030cbc9d7d465de4f74c71bae1028eed6a881b187bffffffffffffffffffffffffffffffffffffffffffffffffffffffff19167f01ffc9a7a5cef8baa21ed3c5c0d7e23accb804b619e9333b597f47a0d84076e218620003c960201b60201c565b620003c17f8230223f691b981717299fae9549350a0d894555723531f02108b1f522c1a7977bffffffffffffffffffffffffffffffffffffffffffffffffffffffff19167f6da5e1284143cdd2d15038a59bde3be031250f00291d64494c12d967b3a4e0c3187bffffffffffffffffffffffffffffffffffffffffffffffffffffffff19167fc53637662700e6c65104059db8bba34439e0c32483ab7c34e3ccae52c739549518620003c960201b60201c565b50506200065f565b63ffffffff60e01b817bffffffffffffffffffffffffffffffffffffffffffffffffffffffff1916141562000435576040517f08c379a00000000000000000000000000000000000000000000000000000000081526004016200042c90620005d8565b60405180910390fd5b6001600080837bffffffffffffffffffffffffffffffffffffffffffffffffffffffff19167bffffffffffffffffffffffffffffffffffffffffffffffffffffffff1916815260200190815260200160002060006101000a81548160ff02191690831515021790555050565b828054620004af9062000629565b90600052602060002090601f016020900481019282620004d357600085556200051f565b82601f10620004ee57805160ff19168380011785556200051f565b828001600101855582156200051f579182015b828111156200051e57825182559160200191906001019062000501565b5b5090506200052e919062000532565b5090565b5b808211156200054d57600081600090555060010162000533565b5090565b600082825260208201905092915050565b7f4572726f72202d204552433136353a20496e76616c696420696e74657266616360008201527f6500000000000000000000000000000000000000000000000000000000000000602082015250565b6000620005c060218362000551565b9150620005cd8262000562565b604082019050919050565b60006020820190508181036000830152620005f381620005b1565b9050919050565b7f4e487b7100000000000000000000000000000000000000000000000000000000600052602260045260246000fd5b600060028204905060018216806200064257607f821691505b60208210811415620006595762000658620005fa565b5b50919050565b6125b1806200066f6000396000f3fe6080604052600436106100f35760003560e01c80634f6ccce71161008a57806395d89b411161005957806395d89b4114610367578063a22cb46514610392578063d85d3d27146103bb578063e985e9c5146103e4576100f3565b80634f6ccce7146102735780636352211e146102b057806370a08231146102ed57806393ab6e561461032a576100f3565b8063095ea7b3116100c6578063095ea7b3146101c657806318160ddd146101e257806323b872dd1461020d5780632f745c5914610236576100f3565b806301ffc9a7146100f8578063068417d91461013557806306fdde031461015e578063081812fc14610189575b600080fd5b34801561010457600080fd5b5061011f600480360381019061011a91906116cc565b610421565b60405161012c9190611714565b60405180910390f35b34801561014157600080fd5b5061015c600480360381019061015791906116cc565b610488565b005b34801561016a57600080fd5b5061017361055d565b60405161018091906117c8565b60405180910390f35b34801561019557600080fd5b506101b060048036038101906101ab9190611820565b6105ef565b6040516101bd919061188e565b60405180910390f35b6101e060048036038101906101db91906118d5565b610674565b005b3480156101ee57600080fd5b506101f7610810565b6040516102049190611924565b60405180910390f35b34801561021957600080fd5b50610234600480360381019061022f919061193f565b61081d565b005b34801561024257600080fd5b5061025d600480360381019061025891906118d5565b610876565b60405161026a9190611924565b60405180910390f35b34801561027f57600080fd5b5061029a60048036038101906102959190611820565b610926565b6040516102a79190611924565b60405180910390f35b3480156102bc57600080fd5b506102d760048036038101906102d29190611820565b61098c565b6040516102e4919061188e565b60405180910390f35b3480156102f957600080fd5b50610314600480360381019061030f9190611992565b610a3e565b6040516103219190611924565b60405180910390f35b34801561033657600080fd5b50610351600480360381019061034c9190611820565b610af6565b60405161035e91906117c8565b60405180910390f35b34801561037357600080fd5b5061037c610ba2565b60405161038991906117c8565b60405180910390f35b34801561039e57600080fd5b506103b960048036038101906103b491906119eb565b610c34565b005b3480156103c757600080fd5b506103e260048036038101906103dd9190611b60565b610da0565b005b3480156103f057600080fd5b5061040b60048036038101906104069190611ba9565b610ea3565b6040516104189190611714565b60405180910390f35b6000806000837bffffffffffffffffffffffffffffffffffffffffffffffffffffffff19167bffffffffffffffffffffffffffffffffffffffffffffffffffffffff1916815260200190815260200160002060009054906101000a900460ff169050919050565b63ffffffff60e01b817bffffffffffffffffffffffffffffffffffffffffffffffffffffffff191614156104f1576040517f08c379a00000000000000000000000000000000000000000000000000000000081526004016104e890611c5b565b60405180910390fd5b6001600080837bffffffffffffffffffffffffffffffffffffffffffffffffffffffff19167bffffffffffffffffffffffffffffffffffffffffffffffffffffffff1916815260200190815260200160002060006101000a81548160ff02191690831515021790555050565b60606001805461056c90611caa565b80601f016020809104026020016040519081016040528092919081815260200182805461059890611caa565b80156105e55780601f106105ba576101008083540402835291602001916105e5565b820191906000526020600020905b8154815290600101906020018083116105c857829003601f168201915b5050505050905090565b60006105fa82610f37565b610639576040517f08c379a000000000000000000000000000000000000000000000000000000000815260040161063090611d4e565b60405180910390fd5b6005600083815260200190815260200160002060009054906101000a900473ffffffffffffffffffffffffffffffffffffffff169050919050565b600061067f8261098c565b90508073ffffffffffffffffffffffffffffffffffffffff168373ffffffffffffffffffffffffffffffffffffffff1614156106f0576040517f08c379a00000000000000000000000000000000000000000000000000000000081526004016106e790611de0565b60405180910390fd5b8073ffffffffffffffffffffffffffffffffffffffff163373ffffffffffffffffffffffffffffffffffffffff161461075e576040517f08c379a000000000000000000000000000000000000000000000000000000000815260040161075590611e72565b60405180910390fd5b826005600084815260200190815260200160002060006101000a81548173ffffffffffffffffffffffffffffffffffffffff021916908373ffffffffffffffffffffffffffffffffffffffff160217905550818373ffffffffffffffffffffffffffffffffffffffff168273ffffffffffffffffffffffffffffffffffffffff167f8c5be1e5ebec7d5bd14f71427d1e84f3dd0314c0f7b2291e5b200ac8c7c3b92560405160405180910390a4505050565b6000600780549050905090565b6108273382610fa9565b610866576040517f08c379a000000000000000000000000000000000000000000000000000000000815260040161085d90611f04565b60405180910390fd5b610871838383611087565b505050565b600061088183610a3e565b82106108c2576040517f08c379a00000000000000000000000000000000000000000000000000000000081526004016108b990611f70565b60405180910390fd5b600960008473ffffffffffffffffffffffffffffffffffffffff1673ffffffffffffffffffffffffffffffffffffffff168152602001908152602001600020828154811061091357610912611f90565b5b9060005260206000200154905092915050565b6000610930610810565b8210610971576040517f08c379a00000000000000000000000000000000000000000000000000000000081526004016109689061200b565b60405180910390fd5b60086000838152602001908152602001600020549050919050565b6000806003600084815260200190815260200160002060009054906101000a900473ffffffffffffffffffffffffffffffffffffffff169050600073ffffffffffffffffffffffffffffffffffffffff168173ffffffffffffffffffffffffffffffffffffffff161415610a35576040517f08c379a0000000000000000000000000000000000000000000000000000000008152600401610a2c9061209d565b60405180910390fd5b80915050919050565b60008073ffffffffffffffffffffffffffffffffffffffff168273ffffffffffffffffffffffffffffffffffffffff161415610aaf576040517f08c379a0000000000000000000000000000000000000000000000000000000008152600401610aa69061209d565b60405180910390fd5b600460008373ffffffffffffffffffffffffffffffffffffffff1673ffffffffffffffffffffffffffffffffffffffff168152602001908152602001600020549050919050565b600b8181548110610b0657600080fd5b906000526020600020016000915090508054610b2190611caa565b80601f0160208091040260200160405190810160405280929190818152602001828054610b4d90611caa565b8015610b9a5780601f10610b6f57610100808354040283529160200191610b9a565b820191906000526020600020905b815481529060010190602001808311610b7d57829003601f168201915b505050505081565b606060028054610bb190611caa565b80601f0160208091040260200160405190810160405280929190818152602001828054610bdd90611caa565b8015610c2a5780601f10610bff57610100808354040283529160200191610c2a565b820191906000526020600020905b815481529060010190602001808311610c0d57829003601f168201915b5050505050905090565b3373ffffffffffffffffffffffffffffffffffffffff168273ffffffffffffffffffffffffffffffffffffffff161415610ca3576040517f08c379a0000000000000000000000000000000000000000000000000000000008152600401610c9a90612109565b60405180910390fd5b80600660003373ffffffffffffffffffffffffffffffffffffffff1673ffffffffffffffffffffffffffffffffffffffff16815260200190815260200160002060008473ffffffffffffffffffffffffffffffffffffffff1673ffffffffffffffffffffffffffffffffffffffff16815260200190815260200160002060006101000a81548160ff0219169083151502179055508173ffffffffffffffffffffffffffffffffffffffff163373ffffffffffffffffffffffffffffffffffffffff167f17307eab39ab6107e8899845ad3d59bd9653f200f220920489ca2b5937696c3183604051610d949190611714565b60405180910390a35050565b600c81604051610db09190612165565b908152602001604051809103902060009054906101000a900460ff1615610e0c576040517f08c379a0000000000000000000000000000000000000000000000000000000008152600401610e03906121ee565b60405180910390fd5b600b81908060018154018082558091505060019003906000526020600020016000909190919091509080519060200190610e479291906115bd565b5060006001600b80549050610e5c919061223d565b9050610e6833826112cd565b6001600c83604051610e7a9190612165565b908152602001604051809103902060006101000a81548160ff0219169083151502179055505050565b6000600660008473ffffffffffffffffffffffffffffffffffffffff1673ffffffffffffffffffffffffffffffffffffffff16815260200190815260200160002060008373ffffffffffffffffffffffffffffffffffffffff1673ffffffffffffffffffffffffffffffffffffffff16815260200190815260200160002060009054906101000a900460ff16905092915050565b6000806003600084815260200190815260200160002060009054906101000a900473ffffffffffffffffffffffffffffffffffffffff169050600073ffffffffffffffffffffffffffffffffffffffff168173ffffffffffffffffffffffffffffffffffffffff161415915050919050565b6000610fb482610f37565b610ff3576040517f08c379a0000000000000000000000000000000000000000000000000000000008152600401610fea906122bd565b60405180910390fd5b6000610ffe8361098c565b90508073ffffffffffffffffffffffffffffffffffffffff168473ffffffffffffffffffffffffffffffffffffffff16148061106d575061103e836105ef565b73ffffffffffffffffffffffffffffffffffffffff168473ffffffffffffffffffffffffffffffffffffffff16145b8061107e575061107d8185610ea3565b5b91505092915050565b600073ffffffffffffffffffffffffffffffffffffffff168273ffffffffffffffffffffffffffffffffffffffff1614156110f7576040517f08c379a00000000000000000000000000000000000000000000000000000000081526004016110ee9061234f565b60405180910390fd5b8273ffffffffffffffffffffffffffffffffffffffff166111178261098c565b73ffffffffffffffffffffffffffffffffffffffff161461116d576040517f08c379a0000000000000000000000000000000000000000000000000000000008152600401611164906123e1565b60405180910390fd5b6001600460008573ffffffffffffffffffffffffffffffffffffffff1673ffffffffffffffffffffffffffffffffffffffff16815260200190815260200160002060008282546111bd919061223d565b925050819055506001600460008473ffffffffffffffffffffffffffffffffffffffff1673ffffffffffffffffffffffffffffffffffffffff16815260200190815260200160002060008282546112149190612401565b92505081905550816003600083815260200190815260200160002060006101000a81548173ffffffffffffffffffffffffffffffffffffffff021916908373ffffffffffffffffffffffffffffffffffffffff160217905550808273ffffffffffffffffffffffffffffffffffffffff168473ffffffffffffffffffffffffffffffffffffffff167fddf252ad1be2c89b69c2b068fc378daa952ba7f163c4a11628f55a4df523b3ef60405160405180910390a4505050565b6112d782826112ee565b6112e0816114b0565b6112ea82826114f9565b5050565b600073ffffffffffffffffffffffffffffffffffffffff168273ffffffffffffffffffffffffffffffffffffffff16141561135e576040517f08c379a0000000000000000000000000000000000000000000000000000000008152600401611355906124c9565b60405180910390fd5b61136781610f37565b156113a7576040517f08c379a000000000000000000000000000000000000000000000000000000000815260040161139e9061255b565b60405180910390fd5b816003600083815260200190815260200160002060006101000a81548173ffffffffffffffffffffffffffffffffffffffff021916908373ffffffffffffffffffffffffffffffffffffffff1602179055506001600460008473ffffffffffffffffffffffffffffffffffffffff1673ffffffffffffffffffffffffffffffffffffffff16815260200190815260200160002060008282546114499190612401565b92505081905550808273ffffffffffffffffffffffffffffffffffffffff16600073ffffffffffffffffffffffffffffffffffffffff167fddf252ad1be2c89b69c2b068fc378daa952ba7f163c4a11628f55a4df523b3ef60405160405180910390a45050565b6007805490506008600083815260200190815260200160002081905550600781908060018154018082558091505060019003906000526020600020016000909190919091505550565b600960008373ffffffffffffffffffffffffffffffffffffffff1673ffffffffffffffffffffffffffffffffffffffff168152602001908152602001600020819080600181540180825580915050600190039060005260206000200160009091909190915055600960008373ffffffffffffffffffffffffffffffffffffffff1673ffffffffffffffffffffffffffffffffffffffff16815260200190815260200160002080549050600a6000838152602001908152602001600020819055505050565b8280546115c990611caa565b90600052602060002090601f0160209004810192826115eb5760008555611632565b82601f1061160457805160ff1916838001178555611632565b82800160010185558215611632579182015b82811115611631578251825591602001919060010190611616565b5b50905061163f9190611643565b5090565b5b8082111561165c576000816000905550600101611644565b5090565b6000604051905090565b600080fd5b600080fd5b60007fffffffff0000000000000000000000000000000000000000000000000000000082169050919050565b6116a981611674565b81146116b457600080fd5b50565b6000813590506116c6816116a0565b92915050565b6000602082840312156116e2576116e161166a565b5b60006116f0848285016116b7565b91505092915050565b60008115159050919050565b61170e816116f9565b82525050565b60006020820190506117296000830184611705565b92915050565b600081519050919050565b600082825260208201905092915050565b60005b8381101561176957808201518184015260208101905061174e565b83811115611778576000848401525b50505050565b6000601f19601f8301169050919050565b600061179a8261172f565b6117a4818561173a565b93506117b481856020860161174b565b6117bd8161177e565b840191505092915050565b600060208201905081810360008301526117e2818461178f565b905092915050565b6000819050919050565b6117fd816117ea565b811461180857600080fd5b50565b60008135905061181a816117f4565b92915050565b6000602082840312156118365761183561166a565b5b60006118448482850161180b565b91505092915050565b600073ffffffffffffffffffffffffffffffffffffffff82169050919050565b60006118788261184d565b9050919050565b6118888161186d565b82525050565b60006020820190506118a3600083018461187f565b92915050565b6118b28161186d565b81146118bd57600080fd5b50565b6000813590506118cf816118a9565b92915050565b600080604083850312156118ec576118eb61166a565b5b60006118fa858286016118c0565b925050602061190b8582860161180b565b9150509250929050565b61191e816117ea565b82525050565b60006020820190506119396000830184611915565b92915050565b6000806000606084860312156119585761195761166a565b5b6000611966868287016118c0565b9350506020611977868287016118c0565b92505060406119888682870161180b565b9150509250925092565b6000602082840312156119a8576119a761166a565b5b60006119b6848285016118c0565b91505092915050565b6119c8816116f9565b81146119d357600080fd5b50565b6000813590506119e5816119bf565b92915050565b60008060408385031215611a0257611a0161166a565b5b6000611a10858286016118c0565b9250506020611a21858286016119d6565b9150509250929050565b600080fd5b600080fd5b7f4e487b7100000000000000000000000000000000000000000000000000000000600052604160045260246000fd5b611a6d8261177e565b810181811067ffffffffffffffff82111715611a8c57611a8b611a35565b5b80604052505050565b6000611a9f611660565b9050611aab8282611a64565b919050565b600067ffffffffffffffff821115611acb57611aca611a35565b5b611ad48261177e565b9050602081019050919050565b82818337600083830152505050565b6000611b03611afe84611ab0565b611a95565b905082815260208101848484011115611b1f57611b1e611a30565b5b611b2a848285611ae1565b509392505050565b600082601f830112611b4757611b46611a2b565b5b8135611b57848260208601611af0565b91505092915050565b600060208284031215611b7657611b7561166a565b5b600082013567ffffffffffffffff811115611b9457611b9361166f565b5b611ba084828501611b32565b91505092915050565b60008060408385031215611bc057611bbf61166a565b5b6000611bce858286016118c0565b9250506020611bdf858286016118c0565b9150509250929050565b7f4572726f72202d204552433136353a20496e76616c696420696e74657266616360008201527f6500000000000000000000000000000000000000000000000000000000000000602082015250565b6000611c4560218361173a565b9150611c5082611be9565b604082019050919050565b60006020820190508181036000830152611c7481611c38565b9050919050565b7f4e487b7100000000000000000000000000000000000000000000000000000000600052602260045260246000fd5b60006002820490506001821680611cc257607f821691505b60208210811415611cd657611cd5611c7b565b5b50919050565b7f4552433732313a20617070726f76656420717565727920666f72206e6f6e657860008201527f697374656e7420746f6b656e0000000000000000000000000000000000000000602082015250565b6000611d38602c8361173a565b9150611d4382611cdc565b604082019050919050565b60006020820190508181036000830152611d6781611d2b565b9050919050565b7f4572726f72202d20617070726f76616c20746f2063757272656e74206f776e6560008201527f7200000000000000000000000000000000000000000000000000000000000000602082015250565b6000611dca60218361173a565b9150611dd582611d6e565b604082019050919050565b60006020820190508181036000830152611df981611dbd565b9050919050565b7f4572726f72202d2043757272656e742063616c6c6572206973206e6f7420746860008201527f65206f776e6572206f662074686520746f6b656e000000000000000000000000602082015250565b6000611e5c60348361173a565b9150611e6782611e00565b604082019050919050565b60006020820190508181036000830152611e8b81611e4f565b9050919050565b7f4572726f72202d2049742773206e6f7420617070726f766564206f72206f776e60008201527f6572000000000000000000000000000000000000000000000000000000000000602082015250565b6000611eee60228361173a565b9150611ef982611e92565b604082019050919050565b60006020820190508181036000830152611f1d81611ee1565b9050919050565b7f4f776e657220696e646578206973206f7574206f662072616e67652100000000600082015250565b6000611f5a601c8361173a565b9150611f6582611f24565b602082019050919050565b60006020820190508181036000830152611f8981611f4d565b9050919050565b7f4e487b7100000000000000000000000000000000000000000000000000000000600052603260045260246000fd5b7f496e646578206973206f7574206f662072616e67652100000000000000000000600082015250565b6000611ff560168361173a565b915061200082611fbf565b602082019050919050565b6000602082019050818103600083015261202481611fe8565b9050919050565b7f4572726f72202d204f776e657220717565727920666f72206e6f6e2d6578697360008201527f74656e7420746f6b656e00000000000000000000000000000000000000000000602082015250565b6000612087602a8361173a565b91506120928261202b565b604082019050919050565b600060208201905081810360008301526120b68161207a565b9050919050565b7f4552433732313a20617070726f766520746f2063616c6c657200000000000000600082015250565b60006120f360198361173a565b91506120fe826120bd565b602082019050919050565b60006020820190508181036000830152612122816120e6565b9050919050565b600081905092915050565b600061213f8261172f565b6121498185612129565b935061215981856020860161174b565b80840191505092915050565b60006121718284612134565b915081905092915050565b7f4572726f72202d206b727970746f4269726420616c726561647920657869737460008201527f7300000000000000000000000000000000000000000000000000000000000000602082015250565b60006121d860218361173a565b91506121e38261217c565b604082019050919050565b60006020820190508181036000830152612207816121cb565b9050919050565b7f4e487b7100000000000000000000000000000000000000000000000000000000600052601160045260246000fd5b6000612248826117ea565b9150612253836117ea565b9250828210156122665761226561220e565b5b828203905092915050565b7f546f6b656e20646f6573206e6f74206578697374000000000000000000000000600082015250565b60006122a760148361173a565b91506122b282612271565b602082019050919050565b600060208201905081810360008301526122d68161229a565b9050919050565b7f4572726f72202d20455243373231207472616e7366657220746f20746865207a60008201527f65726f2061646472657373200000000000000000000000000000000000000000602082015250565b6000612339602c8361173a565b9150612344826122dd565b604082019050919050565b600060208201905081810360008301526123688161232c565b9050919050565b7f4572726f72202d20547279696e6720746f207472616e73666572206120746f6b60008201527f656e20746865206164647265737320646f6573206e6f74206f776e0000000000602082015250565b60006123cb603b8361173a565b91506123d68261236f565b604082019050919050565b600060208201905081810360008301526123fa816123be565b9050919050565b600061240c826117ea565b9150612417836117ea565b9250827fffffffffffffffffffffffffffffffffffffffffffffffffffffffffffffffff0382111561244c5761244b61220e565b5b828201905092915050565b7f4572726f72202d204552433732313a206d696e74696e6720746f20746865207a60008201527f65726f2061646472657373000000000000000000000000000000000000000000602082015250565b60006124b3602b8361173a565b91506124be82612457565b604082019050919050565b600060208201905081810360008301526124e2816124a6565b9050919050565b7f4572726f72202d204552433732313a20746f6b656e20616c7265616479206d6960008201527f6e74656400000000000000000000000000000000000000000000000000000000602082015250565b600061254560248361173a565b9150612550826124e9565b604082019050919050565b6000602082019050818103600083015261257481612538565b905091905056fea26469706673582212207035aa33a2788ccbfae7a6653c90f5ffe543e1ceac85b649790863aa3b75e10e64736f6c634300080a0033",
  "immutableReferences": {},
  "source": "// SPDX-License-Identifier: MIT\npragma solidity ^0.8.0;\n\nimport './ERC721Connector.sol';\n\ncontract KryptoBird is ERC721Connector {\n\n    // array to store our nfts\n    string [] public kryptoBirdz;\n\n    mapping (string => bool) _kryptoBirdzExists;\n\n    constructor() ERC721Connector('KryptoBird','KBIRDZ') {}\n\n                                // _kryptoBird will be the data location.\n    function mint(string memory _kryptoBird) public {\n        // check if kryptobird are already minted\n        require(!_kryptoBirdzExists[_kryptoBird], \"Error - kryptoBird already exists\");\n        kryptoBirdz.push(_kryptoBird);\n        uint _id = kryptoBirdz.length - 1;\n        _mint(msg.sender, _id);\n        _kryptoBirdzExists[_kryptoBird] = true;\n    }\n\n}\n\n\n",
  "sourcePath": "/home/pyry/Documents/truffleProjects/Ethereum-implementation/NFT_marketplace/nft-marketplace/contracts/KryptoBirdz.sol",
  "compiler": {
    "name": "solc",
    "version": "0.8.10+commit.fc410830.Emscripten.clang"
  },
  "schemaVersion": "3.4.7",
  "updatedAt": "2022-06-09T14:31:47.290Z",
  "networkType": "ethereum",
  "devdoc": {
    "kind": "dev",
    "methods": {
      "balanceOf(address)": {
        "details": "NFTs assigned to the zero address are considered invalid, and this  function throws for queries about the zero address.",
        "params": {
          "_owner": "An address for whom to query the balance"
        },
        "returns": {
          "_0": "The number of NFTs owned by `_owner`, possibly zero"
        }
      },
      "supportsInterface(bytes4)": {
        "details": "Interface identification is specified in ERC-165. This function  uses less than 30,000 gas.",
        "params": {
          "interfaceID": "The interface identifier, as specified in ERC-165"
        },
        "returns": {
          "_0": "`true` if the contract implements `interfaceID` and  `interfaceID` is not 0xffffffff, `false` otherwise"
        }
      }
    },
    "version": 1
  },
  "userdoc": {
    "kind": "user",
    "methods": {
      "balanceOf(address)": {
        "notice": "Count all NFTs assigned to an owner"
      },
      "supportsInterface(bytes4)": {
        "notice": "Query if a contract implements an interface"
      }
    },
    "version": 1
  }
}