{
  "contractName": "MyTokenSale",
  "abi": [
    {
      "inputs": [
        {
          "internalType": "uint256",
          "name": "rate",
          "type": "uint256"
        },
        {
          "internalType": "address payable",
          "name": "wallet",
          "type": "address"
        },
        {
          "internalType": "contract IERC20",
          "name": "token",
          "type": "address"
        },
        {
          "internalType": "contract KycContract",
          "name": "_kyc",
          "type": "address"
        }
      ],
      "stateMutability": "nonpayable",
      "type": "constructor"
    },
    {
      "anonymous": false,
      "inputs": [
        {
          "indexed": true,
          "internalType": "address",
          "name": "purchaser",
          "type": "address"
        },
        {
          "indexed": true,
          "internalType": "address",
          "name": "beneficiary",
          "type": "address"
        },
        {
          "indexed": false,
          "internalType": "uint256",
          "name": "value",
          "type": "uint256"
        },
        {
          "indexed": false,
          "internalType": "uint256",
          "name": "amount",
          "type": "uint256"
        }
      ],
      "name": "TokensPurchased",
      "type": "event"
    },
    {
      "inputs": [
        {
          "internalType": "address",
          "name": "beneficiary",
          "type": "address"
        }
      ],
      "name": "buyTokens",
      "outputs": [],
      "stateMutability": "payable",
      "type": "function"
    },
    {
      "inputs": [],
      "name": "rateFunc",
      "outputs": [
        {
          "internalType": "uint256",
          "name": "",
          "type": "uint256"
        }
      ],
      "stateMutability": "view",
      "type": "function"
    },
    {
      "inputs": [],
      "name": "tokenFunc",
      "outputs": [
        {
          "internalType": "contract IERC20",
          "name": "",
          "type": "address"
        }
      ],
      "stateMutability": "view",
      "type": "function"
    },
    {
      "inputs": [],
      "name": "walletFunc",
      "outputs": [
        {
          "internalType": "address payable",
          "name": "",
          "type": "address"
        }
      ],
      "stateMutability": "view",
      "type": "function"
    },
    {
      "inputs": [],
      "name": "weiRaised",
      "outputs": [
        {
          "internalType": "uint256",
          "name": "",
          "type": "uint256"
        }
      ],
      "stateMutability": "view",
      "type": "function"
    },
    {
      "stateMutability": "payable",
      "type": "receive"
    }
  ],
  "bytecode": "0x60806040523480156200001157600080fd5b506040516200159d3803806200159d8339818101604052810190620000379190620002a1565b83838360016000819055506000831162000088576040517f08c379a00000000000000000000000000000000000000000000000000000000081526004016200007f9062000441565b60405180910390fd5b600073ffffffffffffffffffffffffffffffffffffffff168273ffffffffffffffffffffffffffffffffffffffff161415620000fb576040517f08c379a0000000000000000000000000000000000000000000000000000000008152600401620000f29062000463565b60405180910390fd5b600073ffffffffffffffffffffffffffffffffffffffff168173ffffffffffffffffffffffffffffffffffffffff1614156200016e576040517f08c379a000000000000000000000000000000000000000000000000000000000815260040162000165906200041f565b60405180910390fd5b8260038190555081600260006101000a81548173ffffffffffffffffffffffffffffffffffffffff021916908373ffffffffffffffffffffffffffffffffffffffff16021790555080600160006101000a81548173ffffffffffffffffffffffffffffffffffffffff021916908373ffffffffffffffffffffffffffffffffffffffff16021790555050505080600560006101000a81548173ffffffffffffffffffffffffffffffffffffffff021916908373ffffffffffffffffffffffffffffffffffffffff1602179055505050505062000578565b600081519050620002568162000510565b92915050565b6000815190506200026d816200052a565b92915050565b600081519050620002848162000544565b92915050565b6000815190506200029b816200055e565b92915050565b60008060008060808587031215620002b857600080fd5b6000620002c8878288016200028a565b9450506020620002db8782880162000245565b9350506040620002ee878288016200025c565b9250506060620003018782880162000273565b91505092959194509250565b60006200031c60248362000485565b91507f43726f776473616c653a20746f6b656e20697320746865207a65726f2061646460008301527f72657373000000000000000000000000000000000000000000000000000000006020830152604082019050919050565b60006200038460148362000485565b91507f43726f776473616c653a207261746520697320300000000000000000000000006000830152602082019050919050565b6000620003c660258362000485565b91507f43726f776473616c653a2077616c6c657420697320746865207a65726f20616460008301527f64726573730000000000000000000000000000000000000000000000000000006020830152604082019050919050565b600060208201905081810360008301526200043a816200030d565b9050919050565b600060208201905081810360008301526200045c8162000375565b9050919050565b600060208201905081810360008301526200047e81620003b7565b9050919050565b600082825260208201905092915050565b6000620004a382620004e6565b9050919050565b6000620004b782620004e6565b9050919050565b6000620004cb8262000496565b9050919050565b6000620004df8262000496565b9050919050565b600073ffffffffffffffffffffffffffffffffffffffff82169050919050565b6000819050919050565b6200051b81620004aa565b81146200052757600080fd5b50565b6200053581620004be565b81146200054157600080fd5b50565b6200054f81620004d2565b81146200055b57600080fd5b50565b620005698162000506565b81146200057557600080fd5b50565b61101580620005886000396000f3fe60806040526004361061004e5760003560e01c80630bdc57161461006a5780634042b66f14610095578063675f0fcf146100c0578063982eacad146100eb578063ec8ac4d81461011657610065565b366100655761006361005e610132565b61013a565b005b600080fd5b34801561007657600080fd5b5061007f610260565b60405161008c9190610c39565b60405180910390f35b3480156100a157600080fd5b506100aa61028a565b6040516100b79190610d9a565b60405180910390f35b3480156100cc57600080fd5b506100d5610294565b6040516100e29190610d9a565b60405180910390f35b3480156100f757600080fd5b5061010061029e565b60405161010d9190610c7d565b60405180910390f35b610130600480360381019061012b91906108dd565b61013a565b005b600033905090565b60026000541415610180576040517f08c379a000000000000000000000000000000000000000000000000000000000815260040161017790610d5a565b60405180910390fd5b6002600081905550600034905061019782826102c8565b60006101a2826103c0565b90506101b9826004546103de90919063ffffffff16565b6004819055506101c983826103f4565b8273ffffffffffffffffffffffffffffffffffffffff166101e8610132565b73ffffffffffffffffffffffffffffffffffffffff167f6faf93231a456e552dbc9961f58d9713ee4f2e69d15f1975b050ef0911053a7b848460405161022f929190610db5565b60405180910390a36102418383610402565b610249610406565b6102538383610471565b5050600160008190555050565b6000600260009054906101000a900473ffffffffffffffffffffffffffffffffffffffff16905090565b6000600454905090565b6000600354905090565b6000600160009054906101000a900473ffffffffffffffffffffffffffffffffffffffff16905090565b6102d28282610475565b600560009054906101000a900473ffffffffffffffffffffffffffffffffffffffff1673ffffffffffffffffffffffffffffffffffffffff1663df235fe4836040518263ffffffff1660e01b815260040161032d9190610c1e565b60206040518083038186803b15801561034557600080fd5b505afa158015610359573d6000803e3d6000fd5b505050506040513d601f19601f8201168201806040525081019061037d9190610906565b6103bc576040517f08c379a00000000000000000000000000000000000000000000000000000000081526004016103b390610cda565b60405180910390fd5b5050565b60006103d76003548361052d90919063ffffffff16565b9050919050565b600081836103ec9190610e10565b905092915050565b6103fe8282610543565b5050565b5050565b600260009054906101000a900473ffffffffffffffffffffffffffffffffffffffff1673ffffffffffffffffffffffffffffffffffffffff166108fc349081150290604051600060405180830381858888f1935050505015801561046e573d6000803e3d6000fd5b50565b5050565b600073ffffffffffffffffffffffffffffffffffffffff168273ffffffffffffffffffffffffffffffffffffffff1614156104e5576040517f08c379a00000000000000000000000000000000000000000000000000000000081526004016104dc90610cfa565b60405180910390fd5b6000811415610529576040517f08c379a000000000000000000000000000000000000000000000000000000000815260040161052090610d7a565b60405180910390fd5b5050565b6000818361053b9190610e66565b905092915050565b6105908282600160009054906101000a900473ffffffffffffffffffffffffffffffffffffffff1673ffffffffffffffffffffffffffffffffffffffff166105949092919063ffffffff16565b5050565b6106158363a9059cbb60e01b84846040516024016105b3929190610c54565b604051602081830303815290604052907bffffffffffffffffffffffffffffffffffffffffffffffffffffffff19166020820180517bffffffffffffffffffffffffffffffffffffffffffffffffffffffff838183161783525050505061061a565b505050565b600061067c826040518060400160405280602081526020017f5361666545524332303a206c6f772d6c6576656c2063616c6c206661696c65648152508573ffffffffffffffffffffffffffffffffffffffff166106e19092919063ffffffff16565b90506000815111156106dc578080602001905181019061069c9190610906565b6106db576040517f08c379a00000000000000000000000000000000000000000000000000000000081526004016106d290610d3a565b60405180910390fd5b5b505050565b60606106f084846000856106f9565b90509392505050565b60608247101561073e576040517f08c379a000000000000000000000000000000000000000000000000000000000815260040161073590610cba565b60405180910390fd5b6107478561080d565b610786576040517f08c379a000000000000000000000000000000000000000000000000000000000815260040161077d90610d1a565b60405180910390fd5b6000808673ffffffffffffffffffffffffffffffffffffffff1685876040516107af9190610c07565b60006040518083038185875af1925050503d80600081146107ec576040519150601f19603f3d011682016040523d82523d6000602084013e6107f1565b606091505b509150915061080182828661084c565b92505050949350505050565b6000808273ffffffffffffffffffffffffffffffffffffffff16803b806020016040519081016040528181526000908060200190933c51119050919050565b6060831561085c578290506108ac565b60008351111561086f5782518084602001fd5b816040517f08c379a00000000000000000000000000000000000000000000000000000000081526004016108a39190610c98565b60405180910390fd5b9392505050565b6000813590506108c281610fb1565b92915050565b6000815190506108d781610fc8565b92915050565b6000602082840312156108ef57600080fd5b60006108fd848285016108b3565b91505092915050565b60006020828403121561091857600080fd5b6000610926848285016108c8565b91505092915050565b61093881610ed2565b82525050565b61094781610ec0565b82525050565b600061095882610dde565b6109628185610df4565b9350610972818560208601610f3e565b80840191505092915050565b61098781610f1a565b82525050565b600061099882610de9565b6109a28185610dff565b93506109b2818560208601610f3e565b6109bb81610fa0565b840191505092915050565b60006109d3602683610dff565b91507f416464726573733a20696e73756666696369656e742062616c616e636520666f60008301527f722063616c6c00000000000000000000000000000000000000000000000000006020830152604082019050919050565b6000610a39602083610dff565b91507f4b5943206e6f7420636f6d706c65746564207965742c206162736f7274696e676000830152602082019050919050565b6000610a79602a83610dff565b91507f43726f776473616c653a2062656e656669636961727920697320746865207a6560008301527f726f2061646472657373000000000000000000000000000000000000000000006020830152604082019050919050565b6000610adf601d83610dff565b91507f416464726573733a2063616c6c20746f206e6f6e2d636f6e74726163740000006000830152602082019050919050565b6000610b1f602a83610dff565b91507f5361666545524332303a204552433230206f7065726174696f6e20646964206e60008301527f6f742073756363656564000000000000000000000000000000000000000000006020830152604082019050919050565b6000610b85601f83610dff565b91507f5265656e7472616e637947756172643a207265656e7472616e742063616c6c006000830152602082019050919050565b6000610bc5601983610dff565b91507f43726f776473616c653a20776569416d6f756e742069732030000000000000006000830152602082019050919050565b610c0181610f10565b82525050565b6000610c13828461094d565b915081905092915050565b6000602082019050610c33600083018461093e565b92915050565b6000602082019050610c4e600083018461092f565b92915050565b6000604082019050610c69600083018561093e565b610c766020830184610bf8565b9392505050565b6000602082019050610c92600083018461097e565b92915050565b60006020820190508181036000830152610cb2818461098d565b905092915050565b60006020820190508181036000830152610cd3816109c6565b9050919050565b60006020820190508181036000830152610cf381610a2c565b9050919050565b60006020820190508181036000830152610d1381610a6c565b9050919050565b60006020820190508181036000830152610d3381610ad2565b9050919050565b60006020820190508181036000830152610d5381610b12565b9050919050565b60006020820190508181036000830152610d7381610b78565b9050919050565b60006020820190508181036000830152610d9381610bb8565b9050919050565b6000602082019050610daf6000830184610bf8565b92915050565b6000604082019050610dca6000830185610bf8565b610dd76020830184610bf8565b9392505050565b600081519050919050565b600081519050919050565b600081905092915050565b600082825260208201905092915050565b6000610e1b82610f10565b9150610e2683610f10565b9250827fffffffffffffffffffffffffffffffffffffffffffffffffffffffffffffffff03821115610e5b57610e5a610f71565b5b828201905092915050565b6000610e7182610f10565b9150610e7c83610f10565b9250817fffffffffffffffffffffffffffffffffffffffffffffffffffffffffffffffff0483118215151615610eb557610eb4610f71565b5b828202905092915050565b6000610ecb82610ef0565b9050919050565b6000610edd82610ef0565b9050919050565b60008115159050919050565b600073ffffffffffffffffffffffffffffffffffffffff82169050919050565b6000819050919050565b6000610f2582610f2c565b9050919050565b6000610f3782610ef0565b9050919050565b60005b83811015610f5c578082015181840152602081019050610f41565b83811115610f6b576000848401525b50505050565b7f4e487b7100000000000000000000000000000000000000000000000000000000600052601160045260246000fd5b6000601f19601f8301169050919050565b610fba81610ec0565b8114610fc557600080fd5b50565b610fd181610ee4565b8114610fdc57600080fd5b5056fea2646970667358221220890ccd0521637424155e66bdd7e3fa61ca9e77a4e013dc2eb442b55329f57b4c64736f6c63430008000033",
  "immutableReferences": {},
  "source": "// SPDX-License-Identifier: MIT\npragma solidity ^0.8.0;\n\nimport \"./CrowdSale.sol\";\nimport \"./KycContract.sol\";\n\ncontract MyTokenSale is Crowdsale {\n\n    KycContract kyc;\n\n    constructor(\n        uint256 rate,\n        address payable wallet, \n        IERC20 token,\n        KycContract _kyc\n        )\n        Crowdsale(rate, wallet, token)\n        public\n    {\n        kyc = _kyc;\n    }\n    function _preValidatePurchase(address beneficiary, uint256 weiAmount) internal view override {\n        super._preValidatePurchase(beneficiary, weiAmount);\n        require(kyc.kycCompleted(beneficiary), \"KYC not completed yet, absorting\");\n    }\n\n}",
  "sourcePath": "/home/pyry/Documents/truffleProjects/Ethereum-implementation/assetTokenization/contracts/MyTokenSale.sol",
  "compiler": {
    "name": "solc",
    "version": "0.8.0+commit.c7dfd78e.Emscripten.clang"
  },
  "schemaVersion": "3.4.7",
  "updatedAt": "2022-04-20T09:49:14.050Z",
  "devdoc": {
    "kind": "dev",
    "methods": {
      "buyTokens(address)": {
        "details": "low level token purchase ***DO NOT OVERRIDE*** This function has a non-reentrancy guard, so it shouldn't be called by another `nonReentrant` function.",
        "params": {
          "beneficiary": "Recipient of the token purchase"
        }
      },
      "rateFunc()": {
        "returns": {
          "_0": "the number of token units a buyer gets per wei."
        }
      },
      "tokenFunc()": {
        "returns": {
          "_0": "the token being sold."
        }
      },
      "walletFunc()": {
        "returns": {
          "_0": "the address where funds are collected."
        }
      },
      "weiRaised()": {
        "returns": {
          "_0": "the amount of wei raised."
        }
      }
    },
    "version": 1
  },
  "userdoc": {
    "events": {
      "TokensPurchased(address,address,uint256,uint256)": {
        "notice": "Event for token purchase logging"
      }
    },
    "kind": "user",
    "methods": {},
    "version": 1
  }
}