{
  "contractName": "MyTokenSale",
  "abi": [
    {
      "inputs": [
        {
          "internalType": "uint256",
          "name": "rate",
          "type": "uint256"
        },
        {
          "internalType": "address payable",
          "name": "wallet",
          "type": "address"
        },
        {
          "internalType": "contract IERC20",
          "name": "token",
          "type": "address"
        }
      ],
      "stateMutability": "nonpayable",
      "type": "constructor"
    },
    {
      "anonymous": false,
      "inputs": [
        {
          "indexed": true,
          "internalType": "address",
          "name": "purchaser",
          "type": "address"
        },
        {
          "indexed": true,
          "internalType": "address",
          "name": "beneficiary",
          "type": "address"
        },
        {
          "indexed": false,
          "internalType": "uint256",
          "name": "value",
          "type": "uint256"
        },
        {
          "indexed": false,
          "internalType": "uint256",
          "name": "amount",
          "type": "uint256"
        }
      ],
      "name": "TokensPurchased",
      "type": "event"
    },
    {
      "inputs": [
        {
          "internalType": "address",
          "name": "beneficiary",
          "type": "address"
        }
      ],
      "name": "buyTokens",
      "outputs": [],
      "stateMutability": "payable",
      "type": "function"
    },
    {
      "inputs": [],
      "name": "rateFunc",
      "outputs": [
        {
          "internalType": "uint256",
          "name": "",
          "type": "uint256"
        }
      ],
      "stateMutability": "view",
      "type": "function"
    },
    {
      "inputs": [],
      "name": "tokenFunc",
      "outputs": [
        {
          "internalType": "contract IERC20",
          "name": "",
          "type": "address"
        }
      ],
      "stateMutability": "view",
      "type": "function"
    },
    {
      "inputs": [],
      "name": "walletFunc",
      "outputs": [
        {
          "internalType": "address payable",
          "name": "",
          "type": "address"
        }
      ],
      "stateMutability": "view",
      "type": "function"
    },
    {
      "inputs": [],
      "name": "weiRaised",
      "outputs": [
        {
          "internalType": "uint256",
          "name": "",
          "type": "uint256"
        }
      ],
      "stateMutability": "view",
      "type": "function"
    },
    {
      "stateMutability": "payable",
      "type": "receive"
    }
  ],
  "bytecode": "0x60806040523480156200001157600080fd5b506040516200138d3803806200138d833981810160405281019062000037919062000248565b82828260016000819055506000831162000088576040517f08c379a00000000000000000000000000000000000000000000000000000000081526004016200007f90620003d2565b60405180910390fd5b600073ffffffffffffffffffffffffffffffffffffffff168273ffffffffffffffffffffffffffffffffffffffff161415620000fb576040517f08c379a0000000000000000000000000000000000000000000000000000000008152600401620000f290620003f4565b60405180910390fd5b600073ffffffffffffffffffffffffffffffffffffffff168173ffffffffffffffffffffffffffffffffffffffff1614156200016e576040517f08c379a00000000000000000000000000000000000000000000000000000000081526004016200016590620003b0565b60405180910390fd5b8260038190555081600260006101000a81548173ffffffffffffffffffffffffffffffffffffffff021916908373ffffffffffffffffffffffffffffffffffffffff16021790555080600160006101000a81548173ffffffffffffffffffffffffffffffffffffffff021916908373ffffffffffffffffffffffffffffffffffffffff160217905550505050505050620004db565b60008151905062000214816200048d565b92915050565b6000815190506200022b81620004a7565b92915050565b6000815190506200024281620004c1565b92915050565b6000806000606084860312156200025e57600080fd5b60006200026e8682870162000231565b9350506020620002818682870162000203565b925050604062000294868287016200021a565b9150509250925092565b6000620002ad60248362000416565b91507f43726f776473616c653a20746f6b656e20697320746865207a65726f2061646460008301527f72657373000000000000000000000000000000000000000000000000000000006020830152604082019050919050565b60006200031560148362000416565b91507f43726f776473616c653a207261746520697320300000000000000000000000006000830152602082019050919050565b60006200035760258362000416565b91507f43726f776473616c653a2077616c6c657420697320746865207a65726f20616460008301527f64726573730000000000000000000000000000000000000000000000000000006020830152604082019050919050565b60006020820190508181036000830152620003cb816200029e565b9050919050565b60006020820190508181036000830152620003ed8162000306565b9050919050565b600060208201905081810360008301526200040f8162000348565b9050919050565b600082825260208201905092915050565b6000620004348262000463565b9050919050565b6000620004488262000463565b9050919050565b60006200045c8262000427565b9050919050565b600073ffffffffffffffffffffffffffffffffffffffff82169050919050565b6000819050919050565b62000498816200043b565b8114620004a457600080fd5b50565b620004b2816200044f565b8114620004be57600080fd5b50565b620004cc8162000483565b8114620004d857600080fd5b50565b610ea280620004eb6000396000f3fe60806040526004361061004e5760003560e01c80630bdc57161461006a5780634042b66f14610095578063675f0fcf146100c0578063982eacad146100eb578063ec8ac4d81461011657610065565b366100655761006361005e610132565b61013a565b005b600080fd5b34801561007657600080fd5b5061007f610260565b60405161008c9190610ae6565b60405180910390f35b3480156100a157600080fd5b506100aa61028a565b6040516100b79190610c27565b60405180910390f35b3480156100cc57600080fd5b506100d5610294565b6040516100e29190610c27565b60405180910390f35b3480156100f757600080fd5b5061010061029e565b60405161010d9190610b2a565b60405180910390f35b610130600480360381019061012b91906107e5565b61013a565b005b600033905090565b60026000541415610180576040517f08c379a000000000000000000000000000000000000000000000000000000000815260040161017790610be7565b60405180910390fd5b6002600081905550600034905061019782826102c8565b60006101a282610380565b90506101b98260045461039e90919063ffffffff16565b6004819055506101c983826103b4565b8273ffffffffffffffffffffffffffffffffffffffff166101e8610132565b73ffffffffffffffffffffffffffffffffffffffff167f6faf93231a456e552dbc9961f58d9713ee4f2e69d15f1975b050ef0911053a7b848460405161022f929190610c42565b60405180910390a361024183836103c2565b6102496103c6565b6102538383610431565b5050600160008190555050565b6000600260009054906101000a900473ffffffffffffffffffffffffffffffffffffffff16905090565b6000600454905090565b6000600354905090565b6000600160009054906101000a900473ffffffffffffffffffffffffffffffffffffffff16905090565b600073ffffffffffffffffffffffffffffffffffffffff168273ffffffffffffffffffffffffffffffffffffffff161415610338576040517f08c379a000000000000000000000000000000000000000000000000000000000815260040161032f90610b87565b60405180910390fd5b600081141561037c576040517f08c379a000000000000000000000000000000000000000000000000000000000815260040161037390610c07565b60405180910390fd5b5050565b60006103976003548361043590919063ffffffff16565b9050919050565b600081836103ac9190610c9d565b905092915050565b6103be828261044b565b5050565b5050565b600260009054906101000a900473ffffffffffffffffffffffffffffffffffffffff1673ffffffffffffffffffffffffffffffffffffffff166108fc349081150290604051600060405180830381858888f1935050505015801561042e573d6000803e3d6000fd5b50565b5050565b600081836104439190610cf3565b905092915050565b6104988282600160009054906101000a900473ffffffffffffffffffffffffffffffffffffffff1673ffffffffffffffffffffffffffffffffffffffff1661049c9092919063ffffffff16565b5050565b61051d8363a9059cbb60e01b84846040516024016104bb929190610b01565b604051602081830303815290604052907bffffffffffffffffffffffffffffffffffffffffffffffffffffffff19166020820180517bffffffffffffffffffffffffffffffffffffffffffffffffffffffff8381831617835250505050610522565b505050565b6000610584826040518060400160405280602081526020017f5361666545524332303a206c6f772d6c6576656c2063616c6c206661696c65648152508573ffffffffffffffffffffffffffffffffffffffff166105e99092919063ffffffff16565b90506000815111156105e457808060200190518101906105a4919061080e565b6105e3576040517f08c379a00000000000000000000000000000000000000000000000000000000081526004016105da90610bc7565b60405180910390fd5b5b505050565b60606105f88484600085610601565b90509392505050565b606082471015610646576040517f08c379a000000000000000000000000000000000000000000000000000000000815260040161063d90610b67565b60405180910390fd5b61064f85610715565b61068e576040517f08c379a000000000000000000000000000000000000000000000000000000000815260040161068590610ba7565b60405180910390fd5b6000808673ffffffffffffffffffffffffffffffffffffffff1685876040516106b79190610acf565b60006040518083038185875af1925050503d80600081146106f4576040519150601f19603f3d011682016040523d82523d6000602084013e6106f9565b606091505b5091509150610709828286610754565b92505050949350505050565b6000808273ffffffffffffffffffffffffffffffffffffffff16803b806020016040519081016040528181526000908060200190933c51119050919050565b60608315610764578290506107b4565b6000835111156107775782518084602001fd5b816040517f08c379a00000000000000000000000000000000000000000000000000000000081526004016107ab9190610b45565b60405180910390fd5b9392505050565b6000813590506107ca81610e3e565b92915050565b6000815190506107df81610e55565b92915050565b6000602082840312156107f757600080fd5b6000610805848285016107bb565b91505092915050565b60006020828403121561082057600080fd5b600061082e848285016107d0565b91505092915050565b61084081610d5f565b82525050565b61084f81610d4d565b82525050565b600061086082610c6b565b61086a8185610c81565b935061087a818560208601610dcb565b80840191505092915050565b61088f81610da7565b82525050565b60006108a082610c76565b6108aa8185610c8c565b93506108ba818560208601610dcb565b6108c381610e2d565b840191505092915050565b60006108db602683610c8c565b91507f416464726573733a20696e73756666696369656e742062616c616e636520666f60008301527f722063616c6c00000000000000000000000000000000000000000000000000006020830152604082019050919050565b6000610941602a83610c8c565b91507f43726f776473616c653a2062656e656669636961727920697320746865207a6560008301527f726f2061646472657373000000000000000000000000000000000000000000006020830152604082019050919050565b60006109a7601d83610c8c565b91507f416464726573733a2063616c6c20746f206e6f6e2d636f6e74726163740000006000830152602082019050919050565b60006109e7602a83610c8c565b91507f5361666545524332303a204552433230206f7065726174696f6e20646964206e60008301527f6f742073756363656564000000000000000000000000000000000000000000006020830152604082019050919050565b6000610a4d601f83610c8c565b91507f5265656e7472616e637947756172643a207265656e7472616e742063616c6c006000830152602082019050919050565b6000610a8d601983610c8c565b91507f43726f776473616c653a20776569416d6f756e742069732030000000000000006000830152602082019050919050565b610ac981610d9d565b82525050565b6000610adb8284610855565b915081905092915050565b6000602082019050610afb6000830184610837565b92915050565b6000604082019050610b166000830185610846565b610b236020830184610ac0565b9392505050565b6000602082019050610b3f6000830184610886565b92915050565b60006020820190508181036000830152610b5f8184610895565b905092915050565b60006020820190508181036000830152610b80816108ce565b9050919050565b60006020820190508181036000830152610ba081610934565b9050919050565b60006020820190508181036000830152610bc08161099a565b9050919050565b60006020820190508181036000830152610be0816109da565b9050919050565b60006020820190508181036000830152610c0081610a40565b9050919050565b60006020820190508181036000830152610c2081610a80565b9050919050565b6000602082019050610c3c6000830184610ac0565b92915050565b6000604082019050610c576000830185610ac0565b610c646020830184610ac0565b9392505050565b600081519050919050565b600081519050919050565b600081905092915050565b600082825260208201905092915050565b6000610ca882610d9d565b9150610cb383610d9d565b9250827fffffffffffffffffffffffffffffffffffffffffffffffffffffffffffffffff03821115610ce857610ce7610dfe565b5b828201905092915050565b6000610cfe82610d9d565b9150610d0983610d9d565b9250817fffffffffffffffffffffffffffffffffffffffffffffffffffffffffffffffff0483118215151615610d4257610d41610dfe565b5b828202905092915050565b6000610d5882610d7d565b9050919050565b6000610d6a82610d7d565b9050919050565b60008115159050919050565b600073ffffffffffffffffffffffffffffffffffffffff82169050919050565b6000819050919050565b6000610db282610db9565b9050919050565b6000610dc482610d7d565b9050919050565b60005b83811015610de9578082015181840152602081019050610dce565b83811115610df8576000848401525b50505050565b7f4e487b7100000000000000000000000000000000000000000000000000000000600052601160045260246000fd5b6000601f19601f8301169050919050565b610e4781610d4d565b8114610e5257600080fd5b50565b610e5e81610d71565b8114610e6957600080fd5b5056fea26469706673582212209238d68d04e8c979f34124ce7b40bceb87814c01b29e85c11de4176274a53a4a64736f6c63430008000033",
  "immutableReferences": {},
  "source": "// SPDX-License-Identifier: MIT\npragma solidity ^0.8.0;\n\nimport \"./CrowdSale.sol\";\n\ncontract MyTokenSale is Crowdsale {\n\n\n    constructor(\n        uint256 rate,    // rate in TKNbits\n        address payable wallet,\n        IERC20 token\n    )\n        Crowdsale(rate, wallet, token)\n        public\n    {\n\n    }\n\n}",
  "sourcePath": "/home/pyry/Documents/truffleProjects/Ethereum-implementation/assetTokenization/contracts/MyTokenSale.sol",
  "compiler": {
    "name": "solc",
    "version": "0.8.0+commit.c7dfd78e.Emscripten.clang"
  },
  "schemaVersion": "3.4.7",
  "updatedAt": "2022-04-18T10:53:07.797Z",
  "devdoc": {
    "kind": "dev",
    "methods": {
      "buyTokens(address)": {
        "details": "low level token purchase ***DO NOT OVERRIDE*** This function has a non-reentrancy guard, so it shouldn't be called by another `nonReentrant` function.",
        "params": {
          "beneficiary": "Recipient of the token purchase"
        }
      },
      "rateFunc()": {
        "returns": {
          "_0": "the number of token units a buyer gets per wei."
        }
      },
      "tokenFunc()": {
        "returns": {
          "_0": "the token being sold."
        }
      },
      "walletFunc()": {
        "returns": {
          "_0": "the address where funds are collected."
        }
      },
      "weiRaised()": {
        "returns": {
          "_0": "the amount of wei raised."
        }
      }
    },
    "version": 1
  },
  "userdoc": {
    "events": {
      "TokensPurchased(address,address,uint256,uint256)": {
        "notice": "Event for token purchase logging"
      }
    },
    "kind": "user",
    "methods": {},
    "version": 1
  }
}